{
	"contracts/Prompt.sol": {
		"Prompt": {
			"abi": [
				{
					"inputs": [
						{
							"internalType": "contract IAIOracle",
							"name": "_aiOracle",
							"type": "address"
						}
					],
					"stateMutability": "nonpayable",
					"type": "constructor"
				},
				{
					"inputs": [
						{
							"internalType": "contract IAIOracle",
							"name": "expected",
							"type": "address"
						},
						{
							"internalType": "contract IAIOracle",
							"name": "found",
							"type": "address"
						}
					],
					"name": "UnauthorizedCallbackSource",
					"type": "error"
				},
				{
					"anonymous": false,
					"inputs": [
						{
							"indexed": false,
							"internalType": "uint256",
							"name": "requestId",
							"type": "uint256"
						},
						{
							"indexed": false,
							"internalType": "address",
							"name": "sender",
							"type": "address"
						},
						{
							"indexed": false,
							"internalType": "uint256",
							"name": "modelId",
							"type": "uint256"
						},
						{
							"indexed": false,
							"internalType": "string",
							"name": "prompt",
							"type": "string"
						}
					],
					"name": "promptRequest",
					"type": "event"
				},
				{
					"anonymous": false,
					"inputs": [
						{
							"indexed": false,
							"internalType": "uint256",
							"name": "requestId",
							"type": "uint256"
						},
						{
							"indexed": false,
							"internalType": "uint256",
							"name": "modelId",
							"type": "uint256"
						},
						{
							"indexed": false,
							"internalType": "string",
							"name": "input",
							"type": "string"
						},
						{
							"indexed": false,
							"internalType": "string",
							"name": "output",
							"type": "string"
						},
						{
							"indexed": false,
							"internalType": "bytes",
							"name": "callbackData",
							"type": "bytes"
						}
					],
					"name": "promptsUpdated",
					"type": "event"
				},
				{
					"inputs": [],
					"name": "aiOracle",
					"outputs": [
						{
							"internalType": "contract IAIOracle",
							"name": "",
							"type": "address"
						}
					],
					"stateMutability": "view",
					"type": "function"
				},
				{
					"inputs": [
						{
							"internalType": "uint256",
							"name": "requestId",
							"type": "uint256"
						},
						{
							"internalType": "bytes",
							"name": "output",
							"type": "bytes"
						},
						{
							"internalType": "bytes",
							"name": "callbackData",
							"type": "bytes"
						}
					],
					"name": "aiOracleCallback",
					"outputs": [],
					"stateMutability": "nonpayable",
					"type": "function"
				},
				{
					"inputs": [
						{
							"internalType": "uint256",
							"name": "modelId",
							"type": "uint256"
						},
						{
							"internalType": "string",
							"name": "prompt",
							"type": "string"
						}
					],
					"name": "calculateAIResult",
					"outputs": [],
					"stateMutability": "payable",
					"type": "function"
				},
				{
					"inputs": [
						{
							"internalType": "uint256",
							"name": "",
							"type": "uint256"
						}
					],
					"name": "callbackGasLimit",
					"outputs": [
						{
							"internalType": "uint64",
							"name": "",
							"type": "uint64"
						}
					],
					"stateMutability": "view",
					"type": "function"
				},
				{
					"inputs": [
						{
							"internalType": "uint256",
							"name": "modelId",
							"type": "uint256"
						}
					],
					"name": "estimateFee",
					"outputs": [
						{
							"internalType": "uint256",
							"name": "",
							"type": "uint256"
						}
					],
					"stateMutability": "view",
					"type": "function"
				},
				{
					"inputs": [
						{
							"internalType": "uint256",
							"name": "modelId",
							"type": "uint256"
						},
						{
							"internalType": "string",
							"name": "prompt",
							"type": "string"
						}
					],
					"name": "getAIResult",
					"outputs": [
						{
							"internalType": "string",
							"name": "",
							"type": "string"
						}
					],
					"stateMutability": "view",
					"type": "function"
				},
				{
					"inputs": [
						{
							"internalType": "uint256",
							"name": "requestId",
							"type": "uint256"
						}
					],
					"name": "isFinalized",
					"outputs": [
						{
							"internalType": "bool",
							"name": "",
							"type": "bool"
						}
					],
					"stateMutability": "view",
					"type": "function"
				},
				{
					"inputs": [
						{
							"internalType": "uint256",
							"name": "",
							"type": "uint256"
						},
						{
							"internalType": "string",
							"name": "",
							"type": "string"
						}
					],
					"name": "prompts",
					"outputs": [
						{
							"internalType": "string",
							"name": "",
							"type": "string"
						}
					],
					"stateMutability": "view",
					"type": "function"
				},
				{
					"inputs": [
						{
							"internalType": "uint256",
							"name": "",
							"type": "uint256"
						}
					],
					"name": "requests",
					"outputs": [
						{
							"internalType": "address",
							"name": "sender",
							"type": "address"
						},
						{
							"internalType": "uint256",
							"name": "modelId",
							"type": "uint256"
						},
						{
							"internalType": "bytes",
							"name": "input",
							"type": "bytes"
						},
						{
							"internalType": "bytes",
							"name": "output",
							"type": "bytes"
						}
					],
					"stateMutability": "view",
					"type": "function"
				},
				{
					"inputs": [
						{
							"internalType": "uint256",
							"name": "modelId",
							"type": "uint256"
						},
						{
							"internalType": "uint64",
							"name": "gasLimit",
							"type": "uint64"
						}
					],
					"name": "setCallbackGasLimit",
					"outputs": [],
					"stateMutability": "nonpayable",
					"type": "function"
				}
			],
			"devdoc": {
				"kind": "dev",
				"methods": {
					"aiOracleCallback(uint256,bytes,bytes)": {
						"details": "the callback function in OAO, should add the modifier onlyAIOracleCallback!",
						"params": {
							"callbackData": "user-defined data (The same as when the user call aiOracle.requestCallback)",
							"output": "AI model's output",
							"requestId": "Id for the request in OAO (unique per request)"
						}
					}
				},
				"version": 1
			},
			"evm": {
				"assembly": "    /* \"contracts/Prompt.sol\":159:2817  contract Prompt is AIOracleCallbackReceiver {... */\n  mstore(0x40, 0xa0)\n    /* \"contracts/Prompt.sol\":899:1118  constructor(IAIOracle _aiOracle) AIOracleCallbackReceiver(_aiOracle) {... */\n  callvalue\n  dup1\n  iszero\n  tag_1\n  jumpi\n  0x00\n  dup1\n  revert\ntag_1:\n  pop\n  mload(0x40)\n  sub(codesize, bytecodeSize)\n  dup1\n  bytecodeSize\n  dup4\n  codecopy\n  dup2\n  dup2\n  add\n  0x40\n  mstore\n  dup2\n  add\n  swap1\n  tag_2\n  swap2\n  swap1\n  tag_3\n  jump\t// in\ntag_2:\n    /* \"contracts/Prompt.sol\":957:966  _aiOracle */\n  dup1\n    /* \"contracts/AIOracleCallbackReceiver.sol\":573:582  _aiOracle */\n  dup1\n    /* \"contracts/AIOracleCallbackReceiver.sol\":562:582  aiOracle = _aiOracle */\n  0xffffffffffffffffffffffffffffffffffffffff\n  and\n  0x80\n  dup2\n  0xffffffffffffffffffffffffffffffffffffffff\n  and\n  dup2\n  mstore\n  pop\n  pop\n    /* \"contracts/AIOracleCallbackReceiver.sol\":518:590  constructor(IAIOracle _aiOracle) {... */\n  pop\n    /* \"contracts/Prompt.sol\":987:997  msg.sender */\n  caller\n    /* \"contracts/Prompt.sol\":979:984  owner */\n  0x00\n  dup1\n    /* \"contracts/Prompt.sol\":979:997  owner = msg.sender */\n  0x0100\n  exp\n  dup2\n  sload\n  dup2\n  0xffffffffffffffffffffffffffffffffffffffff\n  mul\n  not\n  and\n  swap1\n  dup4\n  0xffffffffffffffffffffffffffffffffffffffff\n  and\n  mul\n  or\n  swap1\n  sstore\n  pop\n    /* \"contracts/Prompt.sol\":1031:1038  500_000 */\n  0x07a120\n    /* \"contracts/Prompt.sol\":1008:1024  callbackGasLimit */\n  0x02\n    /* \"contracts/Prompt.sol\":1008:1028  callbackGasLimit[50] */\n  0x00\n    /* \"contracts/Prompt.sol\":1025:1027  50 */\n  0x32\n    /* \"contracts/Prompt.sol\":1008:1028  callbackGasLimit[50] */\n  dup2\n  mstore\n  0x20\n  add\n  swap1\n  dup2\n  mstore\n  0x20\n  add\n  0x00\n  keccak256\n  0x00\n    /* \"contracts/Prompt.sol\":1008:1038  callbackGasLimit[50] = 500_000 */\n  0x0100\n  exp\n  dup2\n  sload\n  dup2\n  0xffffffffffffffff\n  mul\n  not\n  and\n  swap1\n  dup4\n  0xffffffffffffffff\n  and\n  mul\n  or\n  swap1\n  sstore\n  pop\n    /* \"contracts/Prompt.sol\":1092:1101  5_000_000 */\n  0x4c4b40\n    /* \"contracts/Prompt.sol\":1069:1085  callbackGasLimit */\n  0x02\n    /* \"contracts/Prompt.sol\":1069:1089  callbackGasLimit[11] */\n  0x00\n    /* \"contracts/Prompt.sol\":1086:1088  11 */\n  0x0b\n    /* \"contracts/Prompt.sol\":1069:1089  callbackGasLimit[11] */\n  dup2\n  mstore\n  0x20\n  add\n  swap1\n  dup2\n  mstore\n  0x20\n  add\n  0x00\n  keccak256\n  0x00\n    /* \"contracts/Prompt.sol\":1069:1101  callbackGasLimit[11] = 5_000_000 */\n  0x0100\n  exp\n  dup2\n  sload\n  dup2\n  0xffffffffffffffff\n  mul\n  not\n  and\n  swap1\n  dup4\n  0xffffffffffffffff\n  and\n  mul\n  or\n  swap1\n  sstore\n  pop\n    /* \"contracts/Prompt.sol\":899:1118  constructor(IAIOracle _aiOracle) AIOracleCallbackReceiver(_aiOracle) {... */\n  pop\n    /* \"contracts/Prompt.sol\":159:2817  contract Prompt is AIOracleCallbackReceiver {... */\n  jump(tag_8)\n    /* \"#utility.yul\":88:205   */\ntag_10:\n    /* \"#utility.yul\":197:198   */\n  0x00\n    /* \"#utility.yul\":194:195   */\n  dup1\n    /* \"#utility.yul\":187:199   */\n  revert\n    /* \"#utility.yul\":334:460   */\ntag_12:\n    /* \"#utility.yul\":371:378   */\n  0x00\n    /* \"#utility.yul\":411:453   */\n  0xffffffffffffffffffffffffffffffffffffffff\n    /* \"#utility.yul\":404:409   */\n  dup3\n    /* \"#utility.yul\":400:454   */\n  and\n    /* \"#utility.yul\":389:454   */\n  swap1\n  pop\n    /* \"#utility.yul\":334:460   */\n  swap2\n  swap1\n  pop\n  jump\t// out\n    /* \"#utility.yul\":466:562   */\ntag_13:\n    /* \"#utility.yul\":503:510   */\n  0x00\n    /* \"#utility.yul\":532:556   */\n  tag_23\n    /* \"#utility.yul\":550:555   */\n  dup3\n    /* \"#utility.yul\":532:556   */\n  tag_12\n  jump\t// in\ntag_23:\n    /* \"#utility.yul\":521:556   */\n  swap1\n  pop\n    /* \"#utility.yul\":466:562   */\n  swap2\n  swap1\n  pop\n  jump\t// out\n    /* \"#utility.yul\":568:681   */\ntag_14:\n    /* \"#utility.yul\":622:629   */\n  0x00\n    /* \"#utility.yul\":651:675   */\n  tag_25\n    /* \"#utility.yul\":669:674   */\n  dup3\n    /* \"#utility.yul\":651:675   */\n  tag_13\n  jump\t// in\ntag_25:\n    /* \"#utility.yul\":640:675   */\n  swap1\n  pop\n    /* \"#utility.yul\":568:681   */\n  swap2\n  swap1\n  pop\n  jump\t// out\n    /* \"#utility.yul\":687:843   */\ntag_15:\n    /* \"#utility.yul\":777:818   */\n  tag_27\n    /* \"#utility.yul\":812:817   */\n  dup2\n    /* \"#utility.yul\":777:818   */\n  tag_14\n  jump\t// in\ntag_27:\n    /* \"#utility.yul\":770:775   */\n  dup2\n    /* \"#utility.yul\":767:819   */\n  eq\n    /* \"#utility.yul\":757:837   */\n  tag_28\n  jumpi\n    /* \"#utility.yul\":833:834   */\n  0x00\n    /* \"#utility.yul\":830:831   */\n  dup1\n    /* \"#utility.yul\":823:835   */\n  revert\n    /* \"#utility.yul\":757:837   */\ntag_28:\n    /* \"#utility.yul\":687:843   */\n  pop\n  jump\t// out\n    /* \"#utility.yul\":849:1026   */\ntag_16:\n    /* \"#utility.yul\":923:928   */\n  0x00\n    /* \"#utility.yul\":954:960   */\n  dup2\n    /* \"#utility.yul\":948:961   */\n  mload\n    /* \"#utility.yul\":939:961   */\n  swap1\n  pop\n    /* \"#utility.yul\":970:1020   */\n  tag_30\n    /* \"#utility.yul\":1014:1019   */\n  dup2\n    /* \"#utility.yul\":970:1020   */\n  tag_15\n  jump\t// in\ntag_30:\n    /* \"#utility.yul\":849:1026   */\n  swap3\n  swap2\n  pop\n  pop\n  jump\t// out\n    /* \"#utility.yul\":1032:1417   */\ntag_3:\n    /* \"#utility.yul\":1119:1125   */\n  0x00\n    /* \"#utility.yul\":1168:1170   */\n  0x20\n    /* \"#utility.yul\":1156:1165   */\n  dup3\n    /* \"#utility.yul\":1147:1154   */\n  dup5\n    /* \"#utility.yul\":1143:1166   */\n  sub\n    /* \"#utility.yul\":1139:1171   */\n  slt\n    /* \"#utility.yul\":1136:1255   */\n  iszero\n  tag_32\n  jumpi\n    /* \"#utility.yul\":1174:1253   */\n  tag_33\n  tag_10\n  jump\t// in\ntag_33:\n    /* \"#utility.yul\":1136:1255   */\ntag_32:\n    /* \"#utility.yul\":1294:1295   */\n  0x00\n    /* \"#utility.yul\":1319:1400   */\n  tag_34\n    /* \"#utility.yul\":1392:1399   */\n  dup5\n    /* \"#utility.yul\":1383:1389   */\n  dup3\n    /* \"#utility.yul\":1372:1381   */\n  dup6\n    /* \"#utility.yul\":1368:1390   */\n  add\n    /* \"#utility.yul\":1319:1400   */\n  tag_16\n  jump\t// in\ntag_34:\n    /* \"#utility.yul\":1309:1400   */\n  swap2\n  pop\n    /* \"#utility.yul\":1265:1410   */\n  pop\n    /* \"#utility.yul\":1032:1417   */\n  swap3\n  swap2\n  pop\n  pop\n  jump\t// out\n    /* \"contracts/Prompt.sol\":159:2817  contract Prompt is AIOracleCallbackReceiver {... */\ntag_8:\n  mload(0x80)\n  codecopy(0x00, dataOffset(sub_0), dataSize(sub_0))\n  0x00\n  assignImmutable(\"0xe455bf8ea6e7463a1046a0b52804526e119b4bf5136279614e0b1e8e296a4e2d\")\n  return(0x00, dataSize(sub_0))\nstop\n\nsub_0: assembly {\n        /* \"contracts/Prompt.sol\":159:2817  contract Prompt is AIOracleCallbackReceiver {... */\n      mstore(0x40, 0x80)\n      jumpi(tag_1, lt(calldatasize, 0x04))\n      shr(0xe0, calldataload(0x00))\n      dup1\n      0x813d1e15\n      gt\n      tag_12\n      jumpi\n      dup1\n      0x813d1e15\n      eq\n      tag_7\n      jumpi\n      dup1\n      0x81d12c58\n      eq\n      tag_8\n      jumpi\n      dup1\n      0x8cbc52d9\n      eq\n      tag_9\n      jumpi\n      dup1\n      0xb0347814\n      eq\n      tag_10\n      jumpi\n      dup1\n      0xfac5d7e1\n      eq\n      tag_11\n      jumpi\n      jump(tag_1)\n    tag_12:\n      dup1\n      0x127e8e4d\n      eq\n      tag_2\n      jumpi\n      dup1\n      0x20f38718\n      eq\n      tag_3\n      jumpi\n      dup1\n      0x2c6296b7\n      eq\n      tag_4\n      jumpi\n      dup1\n      0x31b221cd\n      eq\n      tag_5\n      jumpi\n      dup1\n      0x33727c4d\n      eq\n      tag_6\n      jumpi\n    tag_1:\n      0x00\n      dup1\n      revert\n        /* \"contracts/Prompt.sol\":2010:2160  function estimateFee(uint256 modelId) public view returns (uint256) {... */\n    tag_2:\n      callvalue\n      dup1\n      iszero\n      tag_13\n      jumpi\n      0x00\n      dup1\n      revert\n    tag_13:\n      pop\n      tag_14\n      0x04\n      dup1\n      calldatasize\n      sub\n      dup2\n      add\n      swap1\n      tag_15\n      swap2\n      swap1\n      tag_16\n      jump\t// in\n    tag_15:\n      tag_17\n      jump\t// in\n    tag_14:\n      mload(0x40)\n      tag_18\n      swap2\n      swap1\n      tag_19\n      jump\t// in\n    tag_18:\n      mload(0x40)\n      dup1\n      swap2\n      sub\n      swap1\n      return\n        /* \"contracts/Prompt.sol\":840:890  mapping(uint256 => uint64) public callbackGasLimit */\n    tag_3:\n      callvalue\n      dup1\n      iszero\n      tag_20\n      jumpi\n      0x00\n      dup1\n      revert\n    tag_20:\n      pop\n      tag_21\n      0x04\n      dup1\n      calldatasize\n      sub\n      dup2\n      add\n      swap1\n      tag_22\n      swap2\n      swap1\n      tag_16\n      jump\t// in\n    tag_22:\n      tag_23\n      jump\t// in\n    tag_21:\n      mload(0x40)\n      tag_24\n      swap2\n      swap1\n      tag_25\n      jump\t// in\n    tag_24:\n      mload(0x40)\n      dup1\n      swap2\n      sub\n      swap1\n      return\n        /* \"contracts/Prompt.sol\":1340:1490  function getAIResult(uint256 modelId, string calldata prompt) external view returns (string memory) {... */\n    tag_4:\n      callvalue\n      dup1\n      iszero\n      tag_26\n      jumpi\n      0x00\n      dup1\n      revert\n    tag_26:\n      pop\n      tag_27\n      0x04\n      dup1\n      calldatasize\n      sub\n      dup2\n      add\n      swap1\n      tag_28\n      swap2\n      swap1\n      tag_29\n      jump\t// in\n    tag_28:\n      tag_30\n      jump\t// in\n    tag_27:\n      mload(0x40)\n      tag_31\n      swap2\n      swap1\n      tag_32\n      jump\t// in\n    tag_31:\n      mload(0x40)\n      dup1\n      swap2\n      sub\n      swap1\n      return\n        /* \"contracts/AIOracleCallbackReceiver.sol\":272:307  IAIOracle public immutable aiOracle */\n    tag_5:\n      callvalue\n      dup1\n      iszero\n      tag_33\n      jumpi\n      0x00\n      dup1\n      revert\n    tag_33:\n      pop\n      tag_34\n      tag_35\n      jump\t// in\n    tag_34:\n      mload(0x40)\n      tag_36\n      swap2\n      swap1\n      tag_37\n      jump\t// in\n    tag_36:\n      mload(0x40)\n      dup1\n      swap2\n      sub\n      swap1\n      return\n        /* \"contracts/AIOracleCallbackReceiver.sol\":1368:1494  function isFinalized(uint256 requestId) external view returns (bool) {... */\n    tag_6:\n      callvalue\n      dup1\n      iszero\n      tag_38\n      jumpi\n      0x00\n      dup1\n      revert\n    tag_38:\n      pop\n      tag_39\n      0x04\n      dup1\n      calldatasize\n      sub\n      dup2\n      add\n      swap1\n      tag_40\n      swap2\n      swap1\n      tag_16\n      jump\t// in\n    tag_40:\n      tag_41\n      jump\t// in\n    tag_39:\n      mload(0x40)\n      tag_42\n      swap2\n      swap1\n      tag_43\n      jump\t// in\n    tag_42:\n      mload(0x40)\n      dup1\n      swap2\n      sub\n      swap1\n      return\n        /* \"contracts/Prompt.sol\":1126:1263  function setCallbackGasLimit(uint256 modelId, uint64 gasLimit) external onlyOwner {... */\n    tag_7:\n      callvalue\n      dup1\n      iszero\n      tag_44\n      jumpi\n      0x00\n      dup1\n      revert\n    tag_44:\n      pop\n      tag_45\n      0x04\n      dup1\n      calldatasize\n      sub\n      dup2\n      add\n      swap1\n      tag_46\n      swap2\n      swap1\n      tag_47\n      jump\t// in\n    tag_46:\n      tag_48\n      jump\t// in\n    tag_45:\n      stop\n        /* \"contracts/Prompt.sol\":780:831  mapping(uint256 => AIOracleRequest) public requests */\n    tag_8:\n      callvalue\n      dup1\n      iszero\n      tag_49\n      jumpi\n      0x00\n      dup1\n      revert\n    tag_49:\n      pop\n      tag_50\n      0x04\n      dup1\n      calldatasize\n      sub\n      dup2\n      add\n      swap1\n      tag_51\n      swap2\n      swap1\n      tag_16\n      jump\t// in\n    tag_51:\n      tag_52\n      jump\t// in\n    tag_50:\n      mload(0x40)\n      tag_53\n      swap5\n      swap4\n      swap3\n      swap2\n      swap1\n      tag_54\n      jump\t// in\n    tag_53:\n      mload(0x40)\n      dup1\n      swap2\n      sub\n      swap1\n      return\n        /* \"contracts/Prompt.sol\":1271:1331  mapping(uint256 => mapping(string => string)) public prompts */\n    tag_9:\n      callvalue\n      dup1\n      iszero\n      tag_55\n      jumpi\n      0x00\n      dup1\n      revert\n    tag_55:\n      pop\n      tag_56\n      0x04\n      dup1\n      calldatasize\n      sub\n      dup2\n      add\n      swap1\n      tag_57\n      swap2\n      swap1\n      tag_58\n      jump\t// in\n    tag_57:\n      tag_59\n      jump\t// in\n    tag_56:\n      mload(0x40)\n      tag_60\n      swap2\n      swap1\n      tag_32\n      jump\t// in\n    tag_60:\n      mload(0x40)\n      dup1\n      swap2\n      sub\n      swap1\n      return\n        /* \"contracts/Prompt.sol\":1498:2002  function aiOracleCallback(uint256 requestId, bytes calldata output, bytes calldata callbackData) external override onlyAIOracleCallback() {... */\n    tag_10:\n      callvalue\n      dup1\n      iszero\n      tag_61\n      jumpi\n      0x00\n      dup1\n      revert\n    tag_61:\n      pop\n      tag_62\n      0x04\n      dup1\n      calldatasize\n      sub\n      dup2\n      add\n      swap1\n      tag_63\n      swap2\n      swap1\n      tag_64\n      jump\t// in\n    tag_63:\n      tag_65\n      jump\t// in\n    tag_62:\n      stop\n        /* \"contracts/Prompt.sol\":2168:2814  function calculateAIResult(uint256 modelId, string calldata prompt) payable external {... */\n    tag_11:\n      tag_66\n      0x04\n      dup1\n      calldatasize\n      sub\n      dup2\n      add\n      swap1\n      tag_67\n      swap2\n      swap1\n      tag_29\n      jump\t// in\n    tag_67:\n      tag_68\n      jump\t// in\n    tag_66:\n      stop\n        /* \"contracts/Prompt.sol\":2010:2160  function estimateFee(uint256 modelId) public view returns (uint256) {... */\n    tag_17:\n        /* \"contracts/Prompt.sol\":2069:2076  uint256 */\n      0x00\n        /* \"contracts/Prompt.sol\":2096:2104  aiOracle */\n      immutable(\"0xe455bf8ea6e7463a1046a0b52804526e119b4bf5136279614e0b1e8e296a4e2d\")\n        /* \"contracts/Prompt.sol\":2096:2116  aiOracle.estimateFee */\n      0xffffffffffffffffffffffffffffffffffffffff\n      and\n      0xe1d8d0\n        /* \"contracts/Prompt.sol\":2117:2124  modelId */\n      dup4\n        /* \"contracts/Prompt.sol\":2126:2142  callbackGasLimit */\n      0x02\n        /* \"contracts/Prompt.sol\":2126:2151  callbackGasLimit[modelId] */\n      0x00\n        /* \"contracts/Prompt.sol\":2143:2150  modelId */\n      dup7\n        /* \"contracts/Prompt.sol\":2126:2151  callbackGasLimit[modelId] */\n      dup2\n      mstore\n      0x20\n      add\n      swap1\n      dup2\n      mstore\n      0x20\n      add\n      0x00\n      keccak256\n      0x00\n      swap1\n      sload\n      swap1\n      0x0100\n      exp\n      swap1\n      div\n      0xffffffffffffffff\n      and\n        /* \"contracts/Prompt.sol\":2096:2152  aiOracle.estimateFee(modelId, callbackGasLimit[modelId]) */\n      mload(0x40)\n      dup4\n      0xffffffff\n      and\n      0xe0\n      shl\n      dup2\n      mstore\n      0x04\n      add\n      tag_70\n      swap3\n      swap2\n      swap1\n      tag_71\n      jump\t// in\n    tag_70:\n      0x20\n      mload(0x40)\n      dup1\n      dup4\n      sub\n      dup2\n      dup7\n      gas\n      staticcall\n      iszero\n      dup1\n      iszero\n      tag_73\n      jumpi\n      returndatasize\n      0x00\n      dup1\n      returndatacopy\n      revert(0x00, returndatasize)\n    tag_73:\n      pop\n      pop\n      pop\n      pop\n      mload(0x40)\n      returndatasize\n      not(0x1f)\n      0x1f\n      dup3\n      add\n      and\n      dup3\n      add\n      dup1\n      0x40\n      mstore\n      pop\n      dup2\n      add\n      swap1\n      tag_74\n      swap2\n      swap1\n      tag_75\n      jump\t// in\n    tag_74:\n        /* \"contracts/Prompt.sol\":2089:2152  return aiOracle.estimateFee(modelId, callbackGasLimit[modelId]) */\n      swap1\n      pop\n        /* \"contracts/Prompt.sol\":2010:2160  function estimateFee(uint256 modelId) public view returns (uint256) {... */\n      swap2\n      swap1\n      pop\n      jump\t// out\n        /* \"contracts/Prompt.sol\":840:890  mapping(uint256 => uint64) public callbackGasLimit */\n    tag_23:\n      mstore(0x20, 0x02)\n      dup1\n      0x00\n      mstore\n      keccak256(0x00, 0x40)\n      0x00\n      swap2\n      pop\n      sload\n      swap1\n      0x0100\n      exp\n      swap1\n      div\n      0xffffffffffffffff\n      and\n      dup2\n      jump\t// out\n        /* \"contracts/Prompt.sol\":1340:1490  function getAIResult(uint256 modelId, string calldata prompt) external view returns (string memory) {... */\n    tag_30:\n        /* \"contracts/Prompt.sol\":1425:1438  string memory */\n      0x60\n        /* \"contracts/Prompt.sol\":1458:1465  prompts */\n      0x03\n        /* \"contracts/Prompt.sol\":1458:1474  prompts[modelId] */\n      0x00\n        /* \"contracts/Prompt.sol\":1466:1473  modelId */\n      dup6\n        /* \"contracts/Prompt.sol\":1458:1474  prompts[modelId] */\n      dup2\n      mstore\n      0x20\n      add\n      swap1\n      dup2\n      mstore\n      0x20\n      add\n      0x00\n      keccak256\n        /* \"contracts/Prompt.sol\":1475:1481  prompt */\n      dup4\n      dup4\n        /* \"contracts/Prompt.sol\":1458:1482  prompts[modelId][prompt] */\n      mload(0x40)\n      tag_77\n      swap3\n      swap2\n      swap1\n      tag_78\n      jump\t// in\n    tag_77:\n      swap1\n      dup2\n      mstore\n      0x20\n      add\n      mload(0x40)\n      dup1\n      swap2\n      sub\n      swap1\n      keccak256\n        /* \"contracts/Prompt.sol\":1451:1482  return prompts[modelId][prompt] */\n      dup1\n      sload\n      tag_79\n      swap1\n      tag_80\n      jump\t// in\n    tag_79:\n      dup1\n      0x1f\n      add\n      0x20\n      dup1\n      swap2\n      div\n      mul\n      0x20\n      add\n      mload(0x40)\n      swap1\n      dup2\n      add\n      0x40\n      mstore\n      dup1\n      swap3\n      swap2\n      swap1\n      dup2\n      dup2\n      mstore\n      0x20\n      add\n      dup3\n      dup1\n      sload\n      tag_81\n      swap1\n      tag_80\n      jump\t// in\n    tag_81:\n      dup1\n      iszero\n      tag_82\n      jumpi\n      dup1\n      0x1f\n      lt\n      tag_83\n      jumpi\n      0x0100\n      dup1\n      dup4\n      sload\n      div\n      mul\n      dup4\n      mstore\n      swap2\n      0x20\n      add\n      swap2\n      jump(tag_82)\n    tag_83:\n      dup3\n      add\n      swap2\n      swap1\n      0x00\n      mstore\n      keccak256(0x00, 0x20)\n      swap1\n    tag_84:\n      dup2\n      sload\n      dup2\n      mstore\n      swap1\n      0x01\n      add\n      swap1\n      0x20\n      add\n      dup1\n      dup4\n      gt\n      tag_84\n      jumpi\n      dup3\n      swap1\n      sub\n      0x1f\n      and\n      dup3\n      add\n      swap2\n    tag_82:\n      pop\n      pop\n      pop\n      pop\n      pop\n      swap1\n      pop\n        /* \"contracts/Prompt.sol\":1340:1490  function getAIResult(uint256 modelId, string calldata prompt) external view returns (string memory) {... */\n      swap4\n      swap3\n      pop\n      pop\n      pop\n      jump\t// out\n        /* \"contracts/AIOracleCallbackReceiver.sol\":272:307  IAIOracle public immutable aiOracle */\n    tag_35:\n      immutable(\"0xe455bf8ea6e7463a1046a0b52804526e119b4bf5136279614e0b1e8e296a4e2d\")\n      dup2\n      jump\t// out\n        /* \"contracts/AIOracleCallbackReceiver.sol\":1368:1494  function isFinalized(uint256 requestId) external view returns (bool) {... */\n    tag_41:\n        /* \"contracts/AIOracleCallbackReceiver.sol\":1431:1435  bool */\n      0x00\n        /* \"contracts/AIOracleCallbackReceiver.sol\":1455:1463  aiOracle */\n      immutable(\"0xe455bf8ea6e7463a1046a0b52804526e119b4bf5136279614e0b1e8e296a4e2d\")\n        /* \"contracts/AIOracleCallbackReceiver.sol\":1455:1475  aiOracle.isFinalized */\n      0xffffffffffffffffffffffffffffffffffffffff\n      and\n      0x33727c4d\n        /* \"contracts/AIOracleCallbackReceiver.sol\":1476:1485  requestId */\n      dup4\n        /* \"contracts/AIOracleCallbackReceiver.sol\":1455:1486  aiOracle.isFinalized(requestId) */\n      mload(0x40)\n      dup3\n      0xffffffff\n      and\n      0xe0\n      shl\n      dup2\n      mstore\n      0x04\n      add\n      tag_86\n      swap2\n      swap1\n      tag_19\n      jump\t// in\n    tag_86:\n      0x20\n      mload(0x40)\n      dup1\n      dup4\n      sub\n      dup2\n      dup7\n      gas\n      staticcall\n      iszero\n      dup1\n      iszero\n      tag_88\n      jumpi\n      returndatasize\n      0x00\n      dup1\n      returndatacopy\n      revert(0x00, returndatasize)\n    tag_88:\n      pop\n      pop\n      pop\n      pop\n      mload(0x40)\n      returndatasize\n      not(0x1f)\n      0x1f\n      dup3\n      add\n      and\n      dup3\n      add\n      dup1\n      0x40\n      mstore\n      pop\n      dup2\n      add\n      swap1\n      tag_89\n      swap2\n      swap1\n      tag_90\n      jump\t// in\n    tag_89:\n        /* \"contracts/AIOracleCallbackReceiver.sol\":1448:1486  return aiOracle.isFinalized(requestId) */\n      swap1\n      pop\n        /* \"contracts/AIOracleCallbackReceiver.sol\":1368:1494  function isFinalized(uint256 requestId) external view returns (bool) {... */\n      swap2\n      swap1\n      pop\n      jump\t// out\n        /* \"contracts/Prompt.sol\":1126:1263  function setCallbackGasLimit(uint256 modelId, uint64 gasLimit) external onlyOwner {... */\n    tag_48:\n        /* \"contracts/Prompt.sol\":732:737  owner */\n      0x00\n      dup1\n      sload\n      swap1\n      0x0100\n      exp\n      swap1\n      div\n      0xffffffffffffffffffffffffffffffffffffffff\n      and\n        /* \"contracts/Prompt.sol\":718:737  msg.sender == owner */\n      0xffffffffffffffffffffffffffffffffffffffff\n      and\n        /* \"contracts/Prompt.sol\":718:728  msg.sender */\n      caller\n        /* \"contracts/Prompt.sol\":718:737  msg.sender == owner */\n      0xffffffffffffffffffffffffffffffffffffffff\n      and\n      eq\n        /* \"contracts/Prompt.sol\":710:752  require(msg.sender == owner, \"Only owner\") */\n      tag_92\n      jumpi\n      mload(0x40)\n      0x08c379a000000000000000000000000000000000000000000000000000000000\n      dup2\n      mstore\n      0x04\n      add\n      tag_93\n      swap1\n      tag_94\n      jump\t// in\n    tag_93:\n      mload(0x40)\n      dup1\n      swap2\n      sub\n      swap1\n      revert\n    tag_92:\n        /* \"contracts/Prompt.sol\":1247:1255  gasLimit */\n      dup1\n        /* \"contracts/Prompt.sol\":1219:1235  callbackGasLimit */\n      0x02\n        /* \"contracts/Prompt.sol\":1219:1244  callbackGasLimit[modelId] */\n      0x00\n        /* \"contracts/Prompt.sol\":1236:1243  modelId */\n      dup5\n        /* \"contracts/Prompt.sol\":1219:1244  callbackGasLimit[modelId] */\n      dup2\n      mstore\n      0x20\n      add\n      swap1\n      dup2\n      mstore\n      0x20\n      add\n      0x00\n      keccak256\n      0x00\n        /* \"contracts/Prompt.sol\":1219:1255  callbackGasLimit[modelId] = gasLimit */\n      0x0100\n      exp\n      dup2\n      sload\n      dup2\n      0xffffffffffffffff\n      mul\n      not\n      and\n      swap1\n      dup4\n      0xffffffffffffffff\n      and\n      mul\n      or\n      swap1\n      sstore\n      pop\n        /* \"contracts/Prompt.sol\":1126:1263  function setCallbackGasLimit(uint256 modelId, uint64 gasLimit) external onlyOwner {... */\n      pop\n      pop\n      jump\t// out\n        /* \"contracts/Prompt.sol\":780:831  mapping(uint256 => AIOracleRequest) public requests */\n    tag_52:\n      mstore(0x20, 0x01)\n      dup1\n      0x00\n      mstore\n      keccak256(0x00, 0x40)\n      0x00\n      swap2\n      pop\n      swap1\n      pop\n      dup1\n      0x00\n      add\n      0x00\n      swap1\n      sload\n      swap1\n      0x0100\n      exp\n      swap1\n      div\n      0xffffffffffffffffffffffffffffffffffffffff\n      and\n      swap1\n      dup1\n      0x01\n      add\n      sload\n      swap1\n      dup1\n      0x02\n      add\n      dup1\n      sload\n      tag_96\n      swap1\n      tag_80\n      jump\t// in\n    tag_96:\n      dup1\n      0x1f\n      add\n      0x20\n      dup1\n      swap2\n      div\n      mul\n      0x20\n      add\n      mload(0x40)\n      swap1\n      dup2\n      add\n      0x40\n      mstore\n      dup1\n      swap3\n      swap2\n      swap1\n      dup2\n      dup2\n      mstore\n      0x20\n      add\n      dup3\n      dup1\n      sload\n      tag_97\n      swap1\n      tag_80\n      jump\t// in\n    tag_97:\n      dup1\n      iszero\n      tag_98\n      jumpi\n      dup1\n      0x1f\n      lt\n      tag_99\n      jumpi\n      0x0100\n      dup1\n      dup4\n      sload\n      div\n      mul\n      dup4\n      mstore\n      swap2\n      0x20\n      add\n      swap2\n      jump(tag_98)\n    tag_99:\n      dup3\n      add\n      swap2\n      swap1\n      0x00\n      mstore\n      keccak256(0x00, 0x20)\n      swap1\n    tag_100:\n      dup2\n      sload\n      dup2\n      mstore\n      swap1\n      0x01\n      add\n      swap1\n      0x20\n      add\n      dup1\n      dup4\n      gt\n      tag_100\n      jumpi\n      dup3\n      swap1\n      sub\n      0x1f\n      and\n      dup3\n      add\n      swap2\n    tag_98:\n      pop\n      pop\n      pop\n      pop\n      pop\n      swap1\n      dup1\n      0x03\n      add\n      dup1\n      sload\n      tag_101\n      swap1\n      tag_80\n      jump\t// in\n    tag_101:\n      dup1\n      0x1f\n      add\n      0x20\n      dup1\n      swap2\n      div\n      mul\n      0x20\n      add\n      mload(0x40)\n      swap1\n      dup2\n      add\n      0x40\n      mstore\n      dup1\n      swap3\n      swap2\n      swap1\n      dup2\n      dup2\n      mstore\n      0x20\n      add\n      dup3\n      dup1\n      sload\n      tag_102\n      swap1\n      tag_80\n      jump\t// in\n    tag_102:\n      dup1\n      iszero\n      tag_103\n      jumpi\n      dup1\n      0x1f\n      lt\n      tag_104\n      jumpi\n      0x0100\n      dup1\n      dup4\n      sload\n      div\n      mul\n      dup4\n      mstore\n      swap2\n      0x20\n      add\n      swap2\n      jump(tag_103)\n    tag_104:\n      dup3\n      add\n      swap2\n      swap1\n      0x00\n      mstore\n      keccak256(0x00, 0x20)\n      swap1\n    tag_105:\n      dup2\n      sload\n      dup2\n      mstore\n      swap1\n      0x01\n      add\n      swap1\n      0x20\n      add\n      dup1\n      dup4\n      gt\n      tag_105\n      jumpi\n      dup3\n      swap1\n      sub\n      0x1f\n      and\n      dup3\n      add\n      swap2\n    tag_103:\n      pop\n      pop\n      pop\n      pop\n      pop\n      swap1\n      pop\n      dup5\n      jump\t// out\n        /* \"contracts/Prompt.sol\":1271:1331  mapping(uint256 => mapping(string => string)) public prompts */\n    tag_59:\n      mstore(0x20, 0x03)\n      dup2\n      0x00\n      mstore\n      keccak256(0x00, 0x40)\n      dup2\n      dup1\n      mload\n      0x20\n      dup2\n      add\n      dup3\n      add\n      dup1\n      mload\n      dup5\n      dup3\n      mstore\n      0x20\n      dup4\n      add\n      0x20\n      dup6\n      add\n      keccak256\n      dup2\n      dup4\n      mstore\n      dup1\n      swap6\n      pop\n      pop\n      pop\n      pop\n      pop\n      pop\n      0x00\n      swap2\n      pop\n      swap2\n      pop\n      pop\n      dup1\n      sload\n      tag_106\n      swap1\n      tag_80\n      jump\t// in\n    tag_106:\n      dup1\n      0x1f\n      add\n      0x20\n      dup1\n      swap2\n      div\n      mul\n      0x20\n      add\n      mload(0x40)\n      swap1\n      dup2\n      add\n      0x40\n      mstore\n      dup1\n      swap3\n      swap2\n      swap1\n      dup2\n      dup2\n      mstore\n      0x20\n      add\n      dup3\n      dup1\n      sload\n      tag_107\n      swap1\n      tag_80\n      jump\t// in\n    tag_107:\n      dup1\n      iszero\n      tag_108\n      jumpi\n      dup1\n      0x1f\n      lt\n      tag_109\n      jumpi\n      0x0100\n      dup1\n      dup4\n      sload\n      div\n      mul\n      dup4\n      mstore\n      swap2\n      0x20\n      add\n      swap2\n      jump(tag_108)\n    tag_109:\n      dup3\n      add\n      swap2\n      swap1\n      0x00\n      mstore\n      keccak256(0x00, 0x20)\n      swap1\n    tag_110:\n      dup2\n      sload\n      dup2\n      mstore\n      swap1\n      0x01\n      add\n      swap1\n      0x20\n      add\n      dup1\n      dup4\n      gt\n      tag_110\n      jumpi\n      dup3\n      swap1\n      sub\n      0x1f\n      and\n      dup3\n      add\n      swap2\n    tag_108:\n      pop\n      pop\n      pop\n      pop\n      pop\n      dup2\n      jump\t// out\n        /* \"contracts/Prompt.sol\":1498:2002  function aiOracleCallback(uint256 requestId, bytes calldata output, bytes calldata callbackData) external override onlyAIOracleCallback() {... */\n    tag_65:\n        /* \"contracts/AIOracleCallbackReceiver.sol\":710:737  IAIOracle foundRelayAddress */\n      0x00\n        /* \"contracts/AIOracleCallbackReceiver.sol\":750:760  msg.sender */\n      caller\n        /* \"contracts/AIOracleCallbackReceiver.sol\":710:761  IAIOracle foundRelayAddress = IAIOracle(msg.sender) */\n      swap1\n      pop\n        /* \"contracts/AIOracleCallbackReceiver.sol\":797:805  aiOracle */\n      immutable(\"0xe455bf8ea6e7463a1046a0b52804526e119b4bf5136279614e0b1e8e296a4e2d\")\n        /* \"contracts/AIOracleCallbackReceiver.sol\":776:805  foundRelayAddress != aiOracle */\n      0xffffffffffffffffffffffffffffffffffffffff\n      and\n        /* \"contracts/AIOracleCallbackReceiver.sol\":776:793  foundRelayAddress */\n      dup2\n        /* \"contracts/AIOracleCallbackReceiver.sol\":776:805  foundRelayAddress != aiOracle */\n      0xffffffffffffffffffffffffffffffffffffffff\n      and\n      eq\n        /* \"contracts/AIOracleCallbackReceiver.sol\":772:896  if (foundRelayAddress != aiOracle) {... */\n      tag_112\n      jumpi\n        /* \"contracts/AIOracleCallbackReceiver.sol\":856:864  aiOracle */\n      immutable(\"0xe455bf8ea6e7463a1046a0b52804526e119b4bf5136279614e0b1e8e296a4e2d\")\n        /* \"contracts/AIOracleCallbackReceiver.sol\":866:883  foundRelayAddress */\n      dup2\n        /* \"contracts/AIOracleCallbackReceiver.sol\":829:884  UnauthorizedCallbackSource(aiOracle, foundRelayAddress) */\n      mload(0x40)\n      0x865c066e00000000000000000000000000000000000000000000000000000000\n      dup2\n      mstore\n      0x04\n      add\n      tag_113\n      swap3\n      swap2\n      swap1\n      tag_114\n      jump\t// in\n    tag_113:\n      mload(0x40)\n      dup1\n      swap2\n      sub\n      swap1\n      revert\n        /* \"contracts/AIOracleCallbackReceiver.sol\":772:896  if (foundRelayAddress != aiOracle) {... */\n    tag_112:\n        /* \"contracts/Prompt.sol\":1647:1678  AIOracleRequest storage request */\n      0x00\n        /* \"contracts/Prompt.sol\":1681:1689  requests */\n      0x01\n        /* \"contracts/Prompt.sol\":1681:1700  requests[requestId] */\n      0x00\n        /* \"contracts/Prompt.sol\":1690:1699  requestId */\n      dup9\n        /* \"contracts/Prompt.sol\":1681:1700  requests[requestId] */\n      dup2\n      mstore\n      0x20\n      add\n      swap1\n      dup2\n      mstore\n      0x20\n      add\n      0x00\n      keccak256\n        /* \"contracts/Prompt.sol\":1647:1700  AIOracleRequest storage request = requests[requestId] */\n      swap1\n      pop\n        /* \"contracts/Prompt.sol\":1745:1746  0 */\n      0x00\n        /* \"contracts/Prompt.sol\":1719:1747  request.sender != address(0) */\n      0xffffffffffffffffffffffffffffffffffffffff\n      and\n        /* \"contracts/Prompt.sol\":1719:1726  request */\n      dup2\n        /* \"contracts/Prompt.sol\":1719:1733  request.sender */\n      0x00\n      add\n      0x00\n      swap1\n      sload\n      swap1\n      0x0100\n      exp\n      swap1\n      div\n      0xffffffffffffffffffffffffffffffffffffffff\n      and\n        /* \"contracts/Prompt.sol\":1719:1747  request.sender != address(0) */\n      0xffffffffffffffffffffffffffffffffffffffff\n      and\n      sub\n        /* \"contracts/Prompt.sol\":1711:1774  require(request.sender != address(0), \"request does not exist\") */\n      tag_116\n      jumpi\n      mload(0x40)\n      0x08c379a000000000000000000000000000000000000000000000000000000000\n      dup2\n      mstore\n      0x04\n      add\n      tag_117\n      swap1\n      tag_118\n      jump\t// in\n    tag_117:\n      mload(0x40)\n      dup1\n      swap2\n      sub\n      swap1\n      revert\n    tag_116:\n        /* \"contracts/Prompt.sol\":1802:1808  output */\n      dup6\n      dup6\n        /* \"contracts/Prompt.sol\":1785:1792  request */\n      dup3\n        /* \"contracts/Prompt.sol\":1785:1799  request.output */\n      0x03\n      add\n        /* \"contracts/Prompt.sol\":1785:1808  request.output = output */\n      swap2\n      dup3\n      tag_119\n      swap3\n      swap2\n      swap1\n      tag_120\n      jump\t// in\n    tag_119:\n      pop\n        /* \"contracts/Prompt.sol\":1876:1882  output */\n      dup6\n      dup6\n        /* \"contracts/Prompt.sol\":1819:1826  prompts */\n      0x03\n        /* \"contracts/Prompt.sol\":1819:1843  prompts[request.modelId] */\n      0x00\n        /* \"contracts/Prompt.sol\":1827:1834  request */\n      dup5\n        /* \"contracts/Prompt.sol\":1827:1842  request.modelId */\n      0x01\n      add\n      sload\n        /* \"contracts/Prompt.sol\":1819:1843  prompts[request.modelId] */\n      dup2\n      mstore\n      0x20\n      add\n      swap1\n      dup2\n      mstore\n      0x20\n      add\n      0x00\n      keccak256\n        /* \"contracts/Prompt.sol\":1851:1858  request */\n      dup4\n        /* \"contracts/Prompt.sol\":1851:1864  request.input */\n      0x02\n      add\n        /* \"contracts/Prompt.sol\":1819:1866  prompts[request.modelId][string(request.input)] */\n      mload(0x40)\n      tag_121\n      swap2\n      swap1\n      tag_122\n      jump\t// in\n    tag_121:\n      swap1\n      dup2\n      mstore\n      0x20\n      add\n      mload(0x40)\n      dup1\n      swap2\n      sub\n      swap1\n      keccak256\n        /* \"contracts/Prompt.sol\":1819:1883  prompts[request.modelId][string(request.input)] = string(output) */\n      swap2\n      dup3\n      tag_123\n      swap3\n      swap2\n      swap1\n      tag_124\n      jump\t// in\n    tag_123:\n      pop\n        /* \"contracts/Prompt.sol\":1899:1994  promptsUpdated(requestId, request.modelId, string(request.input), string(output), callbackData) */\n      0xaf2b2381ddcb18a2b18a7826186fd216acdd9c852a8c7a9a49e7eab127f96ccf\n        /* \"contracts/Prompt.sol\":1914:1923  requestId */\n      dup8\n        /* \"contracts/Prompt.sol\":1925:1932  request */\n      dup3\n        /* \"contracts/Prompt.sol\":1925:1940  request.modelId */\n      0x01\n      add\n      sload\n        /* \"contracts/Prompt.sol\":1949:1956  request */\n      dup4\n        /* \"contracts/Prompt.sol\":1949:1962  request.input */\n      0x02\n      add\n        /* \"contracts/Prompt.sol\":1972:1978  output */\n      dup10\n      dup10\n        /* \"contracts/Prompt.sol\":1981:1993  callbackData */\n      dup10\n      dup10\n        /* \"contracts/Prompt.sol\":1899:1994  promptsUpdated(requestId, request.modelId, string(request.input), string(output), callbackData) */\n      mload(0x40)\n      tag_125\n      swap8\n      swap7\n      swap6\n      swap5\n      swap4\n      swap3\n      swap2\n      swap1\n      tag_126\n      jump\t// in\n    tag_125:\n      mload(0x40)\n      dup1\n      swap2\n      sub\n      swap1\n      log1\n        /* \"contracts/Prompt.sol\":1636:2002  {... */\n      pop\n        /* \"contracts/AIOracleCallbackReceiver.sol\":699:915  {... */\n      pop\n        /* \"contracts/Prompt.sol\":1498:2002  function aiOracleCallback(uint256 requestId, bytes calldata output, bytes calldata callbackData) external override onlyAIOracleCallback() {... */\n      pop\n      pop\n      pop\n      pop\n      pop\n      jump\t// out\n        /* \"contracts/Prompt.sol\":2168:2814  function calculateAIResult(uint256 modelId, string calldata prompt) payable external {... */\n    tag_68:\n        /* \"contracts/Prompt.sol\":2264:2282  bytes memory input */\n      0x00\n        /* \"contracts/Prompt.sol\":2291:2297  prompt */\n      dup3\n      dup3\n        /* \"contracts/Prompt.sol\":2264:2298  bytes memory input = bytes(prompt) */\n      dup1\n      dup1\n      0x1f\n      add\n      0x20\n      dup1\n      swap2\n      div\n      mul\n      0x20\n      add\n      mload(0x40)\n      swap1\n      dup2\n      add\n      0x40\n      mstore\n      dup1\n      swap4\n      swap3\n      swap2\n      swap1\n      dup2\n      dup2\n      mstore\n      0x20\n      add\n      dup4\n      dup4\n      dup1\n      dup3\n      dup5\n      calldatacopy\n      0x00\n      dup2\n      dup5\n      add\n      mstore\n      not(0x1f)\n      0x1f\n      dup3\n      add\n      and\n      swap1\n      pop\n      dup1\n      dup4\n      add\n      swap3\n      pop\n      pop\n      pop\n      pop\n      pop\n      pop\n      pop\n      swap1\n      pop\n        /* \"contracts/Prompt.sol\":2309:2334  bytes memory callbackData */\n      0x00\n        /* \"contracts/Prompt.sol\":2337:2346  bytes(\"\") */\n      mload(0x40)\n      dup1\n      0x20\n      add\n      0x40\n      mstore\n      dup1\n      0x00\n      dup2\n      mstore\n      pop\n        /* \"contracts/Prompt.sol\":2309:2346  bytes memory callbackData = bytes(\"\") */\n      swap1\n      pop\n        /* \"contracts/Prompt.sol\":2357:2380  address callbackAddress */\n      0x00\n        /* \"contracts/Prompt.sol\":2391:2395  this */\n      address\n        /* \"contracts/Prompt.sol\":2357:2396  address callbackAddress = address(this) */\n      swap1\n      pop\n        /* \"contracts/Prompt.sol\":2407:2424  uint256 requestId */\n      0x00\n        /* \"contracts/Prompt.sol\":2427:2435  aiOracle */\n      immutable(\"0xe455bf8ea6e7463a1046a0b52804526e119b4bf5136279614e0b1e8e296a4e2d\")\n        /* \"contracts/Prompt.sol\":2427:2451  aiOracle.requestCallback */\n      0xffffffffffffffffffffffffffffffffffffffff\n      and\n      0x5b953806\n        /* \"contracts/Prompt.sol\":2459:2468  msg.value */\n      callvalue\n        /* \"contracts/Prompt.sol\":2484:2491  modelId */\n      dup10\n        /* \"contracts/Prompt.sol\":2493:2498  input */\n      dup8\n        /* \"contracts/Prompt.sol\":2500:2515  callbackAddress */\n      dup7\n        /* \"contracts/Prompt.sol\":2517:2533  callbackGasLimit */\n      0x02\n        /* \"contracts/Prompt.sol\":2517:2542  callbackGasLimit[modelId] */\n      0x00\n        /* \"contracts/Prompt.sol\":2534:2541  modelId */\n      dup15\n        /* \"contracts/Prompt.sol\":2517:2542  callbackGasLimit[modelId] */\n      dup2\n      mstore\n      0x20\n      add\n      swap1\n      dup2\n      mstore\n      0x20\n      add\n      0x00\n      keccak256\n      0x00\n      swap1\n      sload\n      swap1\n      0x0100\n      exp\n      swap1\n      div\n      0xffffffffffffffff\n      and\n        /* \"contracts/Prompt.sol\":2544:2556  callbackData */\n      dup10\n        /* \"contracts/Prompt.sol\":2427:2567  aiOracle.requestCallback{value: msg.value}(... */\n      mload(0x40)\n      dup8\n      0xffffffff\n      and\n      0xe0\n      shl\n      dup2\n      mstore\n      0x04\n      add\n      tag_128\n      swap6\n      swap5\n      swap4\n      swap3\n      swap2\n      swap1\n      tag_129\n      jump\t// in\n    tag_128:\n      0x20\n      mload(0x40)\n      dup1\n      dup4\n      sub\n      dup2\n      dup6\n      dup9\n      gas\n      call\n      iszero\n      dup1\n      iszero\n      tag_131\n      jumpi\n      returndatasize\n      0x00\n      dup1\n      returndatacopy\n      revert(0x00, returndatasize)\n    tag_131:\n      pop\n      pop\n      pop\n      pop\n      pop\n      mload(0x40)\n      returndatasize\n      not(0x1f)\n      0x1f\n      dup3\n      add\n      and\n      dup3\n      add\n      dup1\n      0x40\n      mstore\n      pop\n      dup2\n      add\n      swap1\n      tag_132\n      swap2\n      swap1\n      tag_75\n      jump\t// in\n    tag_132:\n        /* \"contracts/Prompt.sol\":2407:2567  uint256 requestId = aiOracle.requestCallback{value: msg.value}(... */\n      swap1\n      pop\n        /* \"contracts/Prompt.sol\":2578:2609  AIOracleRequest storage request */\n      0x00\n        /* \"contracts/Prompt.sol\":2612:2620  requests */\n      0x01\n        /* \"contracts/Prompt.sol\":2612:2631  requests[requestId] */\n      0x00\n        /* \"contracts/Prompt.sol\":2621:2630  requestId */\n      dup4\n        /* \"contracts/Prompt.sol\":2612:2631  requests[requestId] */\n      dup2\n      mstore\n      0x20\n      add\n      swap1\n      dup2\n      mstore\n      0x20\n      add\n      0x00\n      keccak256\n        /* \"contracts/Prompt.sol\":2578:2631  AIOracleRequest storage request = requests[requestId] */\n      swap1\n      pop\n        /* \"contracts/Prompt.sol\":2658:2663  input */\n      dup5\n        /* \"contracts/Prompt.sol\":2642:2649  request */\n      dup2\n        /* \"contracts/Prompt.sol\":2642:2655  request.input */\n      0x02\n      add\n        /* \"contracts/Prompt.sol\":2642:2663  request.input = input */\n      swap1\n      dup2\n      tag_133\n      swap2\n      swap1\n      tag_134\n      jump\t// in\n    tag_133:\n      pop\n        /* \"contracts/Prompt.sol\":2691:2701  msg.sender */\n      caller\n        /* \"contracts/Prompt.sol\":2674:2681  request */\n      dup2\n        /* \"contracts/Prompt.sol\":2674:2688  request.sender */\n      0x00\n      add\n      0x00\n        /* \"contracts/Prompt.sol\":2674:2701  request.sender = msg.sender */\n      0x0100\n      exp\n      dup2\n      sload\n      dup2\n      0xffffffffffffffffffffffffffffffffffffffff\n      mul\n      not\n      and\n      swap1\n      dup4\n      0xffffffffffffffffffffffffffffffffffffffff\n      and\n      mul\n      or\n      swap1\n      sstore\n      pop\n        /* \"contracts/Prompt.sol\":2730:2737  modelId */\n      dup8\n        /* \"contracts/Prompt.sol\":2712:2719  request */\n      dup2\n        /* \"contracts/Prompt.sol\":2712:2727  request.modelId */\n      0x01\n      add\n        /* \"contracts/Prompt.sol\":2712:2737  request.modelId = modelId */\n      dup2\n      swap1\n      sstore\n      pop\n        /* \"contracts/Prompt.sol\":2753:2806  promptRequest(requestId, msg.sender, modelId, prompt) */\n      0xa0faead83d70148ae18b694377f9bef079251342ab90e14af0f9ef68b891269f\n        /* \"contracts/Prompt.sol\":2767:2776  requestId */\n      dup3\n        /* \"contracts/Prompt.sol\":2778:2788  msg.sender */\n      caller\n        /* \"contracts/Prompt.sol\":2790:2797  modelId */\n      dup11\n        /* \"contracts/Prompt.sol\":2799:2805  prompt */\n      dup11\n      dup11\n        /* \"contracts/Prompt.sol\":2753:2806  promptRequest(requestId, msg.sender, modelId, prompt) */\n      mload(0x40)\n      tag_135\n      swap6\n      swap5\n      swap4\n      swap3\n      swap2\n      swap1\n      tag_136\n      jump\t// in\n    tag_135:\n      mload(0x40)\n      dup1\n      swap2\n      sub\n      swap1\n      log1\n        /* \"contracts/Prompt.sol\":2253:2814  {... */\n      pop\n      pop\n      pop\n      pop\n      pop\n        /* \"contracts/Prompt.sol\":2168:2814  function calculateAIResult(uint256 modelId, string calldata prompt) payable external {... */\n      pop\n      pop\n      pop\n      jump\t// out\n        /* \"#utility.yul\":7:82   */\n    tag_137:\n        /* \"#utility.yul\":40:46   */\n      0x00\n        /* \"#utility.yul\":73:75   */\n      0x40\n        /* \"#utility.yul\":67:76   */\n      mload\n        /* \"#utility.yul\":57:76   */\n      swap1\n      pop\n        /* \"#utility.yul\":7:82   */\n      swap1\n      jump\t// out\n        /* \"#utility.yul\":88:205   */\n    tag_138:\n        /* \"#utility.yul\":197:198   */\n      0x00\n        /* \"#utility.yul\":194:195   */\n      dup1\n        /* \"#utility.yul\":187:199   */\n      revert\n        /* \"#utility.yul\":211:328   */\n    tag_139:\n        /* \"#utility.yul\":320:321   */\n      0x00\n        /* \"#utility.yul\":317:318   */\n      dup1\n        /* \"#utility.yul\":310:322   */\n      revert\n        /* \"#utility.yul\":334:411   */\n    tag_140:\n        /* \"#utility.yul\":371:378   */\n      0x00\n        /* \"#utility.yul\":400:405   */\n      dup2\n        /* \"#utility.yul\":389:405   */\n      swap1\n      pop\n        /* \"#utility.yul\":334:411   */\n      swap2\n      swap1\n      pop\n      jump\t// out\n        /* \"#utility.yul\":417:539   */\n    tag_141:\n        /* \"#utility.yul\":490:514   */\n      tag_220\n        /* \"#utility.yul\":508:513   */\n      dup2\n        /* \"#utility.yul\":490:514   */\n      tag_140\n      jump\t// in\n    tag_220:\n        /* \"#utility.yul\":483:488   */\n      dup2\n        /* \"#utility.yul\":480:515   */\n      eq\n        /* \"#utility.yul\":470:533   */\n      tag_221\n      jumpi\n        /* \"#utility.yul\":529:530   */\n      0x00\n        /* \"#utility.yul\":526:527   */\n      dup1\n        /* \"#utility.yul\":519:531   */\n      revert\n        /* \"#utility.yul\":470:533   */\n    tag_221:\n        /* \"#utility.yul\":417:539   */\n      pop\n      jump\t// out\n        /* \"#utility.yul\":545:684   */\n    tag_142:\n        /* \"#utility.yul\":591:596   */\n      0x00\n        /* \"#utility.yul\":629:635   */\n      dup2\n        /* \"#utility.yul\":616:636   */\n      calldataload\n        /* \"#utility.yul\":607:636   */\n      swap1\n      pop\n        /* \"#utility.yul\":645:678   */\n      tag_223\n        /* \"#utility.yul\":672:677   */\n      dup2\n        /* \"#utility.yul\":645:678   */\n      tag_141\n      jump\t// in\n    tag_223:\n        /* \"#utility.yul\":545:684   */\n      swap3\n      swap2\n      pop\n      pop\n      jump\t// out\n        /* \"#utility.yul\":690:1019   */\n    tag_16:\n        /* \"#utility.yul\":749:755   */\n      0x00\n        /* \"#utility.yul\":798:800   */\n      0x20\n        /* \"#utility.yul\":786:795   */\n      dup3\n        /* \"#utility.yul\":777:784   */\n      dup5\n        /* \"#utility.yul\":773:796   */\n      sub\n        /* \"#utility.yul\":769:801   */\n      slt\n        /* \"#utility.yul\":766:885   */\n      iszero\n      tag_225\n      jumpi\n        /* \"#utility.yul\":804:883   */\n      tag_226\n      tag_138\n      jump\t// in\n    tag_226:\n        /* \"#utility.yul\":766:885   */\n    tag_225:\n        /* \"#utility.yul\":924:925   */\n      0x00\n        /* \"#utility.yul\":949:1002   */\n      tag_227\n        /* \"#utility.yul\":994:1001   */\n      dup5\n        /* \"#utility.yul\":985:991   */\n      dup3\n        /* \"#utility.yul\":974:983   */\n      dup6\n        /* \"#utility.yul\":970:992   */\n      add\n        /* \"#utility.yul\":949:1002   */\n      tag_142\n      jump\t// in\n    tag_227:\n        /* \"#utility.yul\":939:1002   */\n      swap2\n      pop\n        /* \"#utility.yul\":895:1012   */\n      pop\n        /* \"#utility.yul\":690:1019   */\n      swap3\n      swap2\n      pop\n      pop\n      jump\t// out\n        /* \"#utility.yul\":1025:1143   */\n    tag_143:\n        /* \"#utility.yul\":1112:1136   */\n      tag_229\n        /* \"#utility.yul\":1130:1135   */\n      dup2\n        /* \"#utility.yul\":1112:1136   */\n      tag_140\n      jump\t// in\n    tag_229:\n        /* \"#utility.yul\":1107:1110   */\n      dup3\n        /* \"#utility.yul\":1100:1137   */\n      mstore\n        /* \"#utility.yul\":1025:1143   */\n      pop\n      pop\n      jump\t// out\n        /* \"#utility.yul\":1149:1371   */\n    tag_19:\n        /* \"#utility.yul\":1242:1246   */\n      0x00\n        /* \"#utility.yul\":1280:1282   */\n      0x20\n        /* \"#utility.yul\":1269:1278   */\n      dup3\n        /* \"#utility.yul\":1265:1283   */\n      add\n        /* \"#utility.yul\":1257:1283   */\n      swap1\n      pop\n        /* \"#utility.yul\":1293:1364   */\n      tag_231\n        /* \"#utility.yul\":1361:1362   */\n      0x00\n        /* \"#utility.yul\":1350:1359   */\n      dup4\n        /* \"#utility.yul\":1346:1363   */\n      add\n        /* \"#utility.yul\":1337:1343   */\n      dup5\n        /* \"#utility.yul\":1293:1364   */\n      tag_143\n      jump\t// in\n    tag_231:\n        /* \"#utility.yul\":1149:1371   */\n      swap3\n      swap2\n      pop\n      pop\n      jump\t// out\n        /* \"#utility.yul\":1377:1478   */\n    tag_144:\n        /* \"#utility.yul\":1413:1420   */\n      0x00\n        /* \"#utility.yul\":1453:1471   */\n      0xffffffffffffffff\n        /* \"#utility.yul\":1446:1451   */\n      dup3\n        /* \"#utility.yul\":1442:1472   */\n      and\n        /* \"#utility.yul\":1431:1472   */\n      swap1\n      pop\n        /* \"#utility.yul\":1377:1478   */\n      swap2\n      swap1\n      pop\n      jump\t// out\n        /* \"#utility.yul\":1484:1599   */\n    tag_145:\n        /* \"#utility.yul\":1569:1592   */\n      tag_234\n        /* \"#utility.yul\":1586:1591   */\n      dup2\n        /* \"#utility.yul\":1569:1592   */\n      tag_144\n      jump\t// in\n    tag_234:\n        /* \"#utility.yul\":1564:1567   */\n      dup3\n        /* \"#utility.yul\":1557:1593   */\n      mstore\n        /* \"#utility.yul\":1484:1599   */\n      pop\n      pop\n      jump\t// out\n        /* \"#utility.yul\":1605:1823   */\n    tag_25:\n        /* \"#utility.yul\":1696:1700   */\n      0x00\n        /* \"#utility.yul\":1734:1736   */\n      0x20\n        /* \"#utility.yul\":1723:1732   */\n      dup3\n        /* \"#utility.yul\":1719:1737   */\n      add\n        /* \"#utility.yul\":1711:1737   */\n      swap1\n      pop\n        /* \"#utility.yul\":1747:1816   */\n      tag_236\n        /* \"#utility.yul\":1813:1814   */\n      0x00\n        /* \"#utility.yul\":1802:1811   */\n      dup4\n        /* \"#utility.yul\":1798:1815   */\n      add\n        /* \"#utility.yul\":1789:1795   */\n      dup5\n        /* \"#utility.yul\":1747:1816   */\n      tag_145\n      jump\t// in\n    tag_236:\n        /* \"#utility.yul\":1605:1823   */\n      swap3\n      swap2\n      pop\n      pop\n      jump\t// out\n        /* \"#utility.yul\":1829:1946   */\n    tag_146:\n        /* \"#utility.yul\":1938:1939   */\n      0x00\n        /* \"#utility.yul\":1935:1936   */\n      dup1\n        /* \"#utility.yul\":1928:1940   */\n      revert\n        /* \"#utility.yul\":1952:2069   */\n    tag_147:\n        /* \"#utility.yul\":2061:2062   */\n      0x00\n        /* \"#utility.yul\":2058:2059   */\n      dup1\n        /* \"#utility.yul\":2051:2063   */\n      revert\n        /* \"#utility.yul\":2075:2192   */\n    tag_148:\n        /* \"#utility.yul\":2184:2185   */\n      0x00\n        /* \"#utility.yul\":2181:2182   */\n      dup1\n        /* \"#utility.yul\":2174:2186   */\n      revert\n        /* \"#utility.yul\":2212:2765   */\n    tag_149:\n        /* \"#utility.yul\":2270:2278   */\n      0x00\n        /* \"#utility.yul\":2280:2286   */\n      dup1\n        /* \"#utility.yul\":2330:2333   */\n      dup4\n        /* \"#utility.yul\":2323:2327   */\n      0x1f\n        /* \"#utility.yul\":2315:2321   */\n      dup5\n        /* \"#utility.yul\":2311:2328   */\n      add\n        /* \"#utility.yul\":2307:2334   */\n      slt\n        /* \"#utility.yul\":2297:2419   */\n      tag_241\n      jumpi\n        /* \"#utility.yul\":2338:2417   */\n      tag_242\n      tag_146\n      jump\t// in\n    tag_242:\n        /* \"#utility.yul\":2297:2419   */\n    tag_241:\n        /* \"#utility.yul\":2451:2457   */\n      dup3\n        /* \"#utility.yul\":2438:2458   */\n      calldataload\n        /* \"#utility.yul\":2428:2458   */\n      swap1\n      pop\n        /* \"#utility.yul\":2481:2499   */\n      0xffffffffffffffff\n        /* \"#utility.yul\":2473:2479   */\n      dup2\n        /* \"#utility.yul\":2470:2500   */\n      gt\n        /* \"#utility.yul\":2467:2584   */\n      iszero\n      tag_243\n      jumpi\n        /* \"#utility.yul\":2503:2582   */\n      tag_244\n      tag_147\n      jump\t// in\n    tag_244:\n        /* \"#utility.yul\":2467:2584   */\n    tag_243:\n        /* \"#utility.yul\":2617:2621   */\n      0x20\n        /* \"#utility.yul\":2609:2615   */\n      dup4\n        /* \"#utility.yul\":2605:2622   */\n      add\n        /* \"#utility.yul\":2593:2622   */\n      swap2\n      pop\n        /* \"#utility.yul\":2671:2674   */\n      dup4\n        /* \"#utility.yul\":2663:2667   */\n      0x01\n        /* \"#utility.yul\":2655:2661   */\n      dup3\n        /* \"#utility.yul\":2651:2668   */\n      mul\n        /* \"#utility.yul\":2641:2649   */\n      dup4\n        /* \"#utility.yul\":2637:2669   */\n      add\n        /* \"#utility.yul\":2634:2675   */\n      gt\n        /* \"#utility.yul\":2631:2759   */\n      iszero\n      tag_245\n      jumpi\n        /* \"#utility.yul\":2678:2757   */\n      tag_246\n      tag_148\n      jump\t// in\n    tag_246:\n        /* \"#utility.yul\":2631:2759   */\n    tag_245:\n        /* \"#utility.yul\":2212:2765   */\n      swap3\n      pop\n      swap3\n      swap1\n      pop\n      jump\t// out\n        /* \"#utility.yul\":2771:3445   */\n    tag_29:\n        /* \"#utility.yul\":2851:2857   */\n      0x00\n        /* \"#utility.yul\":2859:2865   */\n      dup1\n        /* \"#utility.yul\":2867:2873   */\n      0x00\n        /* \"#utility.yul\":2916:2918   */\n      0x40\n        /* \"#utility.yul\":2904:2913   */\n      dup5\n        /* \"#utility.yul\":2895:2902   */\n      dup7\n        /* \"#utility.yul\":2891:2914   */\n      sub\n        /* \"#utility.yul\":2887:2919   */\n      slt\n        /* \"#utility.yul\":2884:3003   */\n      iszero\n      tag_248\n      jumpi\n        /* \"#utility.yul\":2922:3001   */\n      tag_249\n      tag_138\n      jump\t// in\n    tag_249:\n        /* \"#utility.yul\":2884:3003   */\n    tag_248:\n        /* \"#utility.yul\":3042:3043   */\n      0x00\n        /* \"#utility.yul\":3067:3120   */\n      tag_250\n        /* \"#utility.yul\":3112:3119   */\n      dup7\n        /* \"#utility.yul\":3103:3109   */\n      dup3\n        /* \"#utility.yul\":3092:3101   */\n      dup8\n        /* \"#utility.yul\":3088:3110   */\n      add\n        /* \"#utility.yul\":3067:3120   */\n      tag_142\n      jump\t// in\n    tag_250:\n        /* \"#utility.yul\":3057:3120   */\n      swap4\n      pop\n        /* \"#utility.yul\":3013:3130   */\n      pop\n        /* \"#utility.yul\":3197:3199   */\n      0x20\n        /* \"#utility.yul\":3186:3195   */\n      dup5\n        /* \"#utility.yul\":3182:3200   */\n      add\n        /* \"#utility.yul\":3169:3201   */\n      calldataload\n        /* \"#utility.yul\":3228:3246   */\n      0xffffffffffffffff\n        /* \"#utility.yul\":3220:3226   */\n      dup2\n        /* \"#utility.yul\":3217:3247   */\n      gt\n        /* \"#utility.yul\":3214:3331   */\n      iszero\n      tag_251\n      jumpi\n        /* \"#utility.yul\":3250:3329   */\n      tag_252\n      tag_139\n      jump\t// in\n    tag_252:\n        /* \"#utility.yul\":3214:3331   */\n    tag_251:\n        /* \"#utility.yul\":3363:3428   */\n      tag_253\n        /* \"#utility.yul\":3420:3427   */\n      dup7\n        /* \"#utility.yul\":3411:3417   */\n      dup3\n        /* \"#utility.yul\":3400:3409   */\n      dup8\n        /* \"#utility.yul\":3396:3418   */\n      add\n        /* \"#utility.yul\":3363:3428   */\n      tag_149\n      jump\t// in\n    tag_253:\n        /* \"#utility.yul\":3345:3428   */\n      swap3\n      pop\n      swap3\n      pop\n        /* \"#utility.yul\":3140:3438   */\n      pop\n        /* \"#utility.yul\":2771:3445   */\n      swap3\n      pop\n      swap3\n      pop\n      swap3\n      jump\t// out\n        /* \"#utility.yul\":3451:3550   */\n    tag_150:\n        /* \"#utility.yul\":3503:3509   */\n      0x00\n        /* \"#utility.yul\":3537:3542   */\n      dup2\n        /* \"#utility.yul\":3531:3543   */\n      mload\n        /* \"#utility.yul\":3521:3543   */\n      swap1\n      pop\n        /* \"#utility.yul\":3451:3550   */\n      swap2\n      swap1\n      pop\n      jump\t// out\n        /* \"#utility.yul\":3556:3725   */\n    tag_151:\n        /* \"#utility.yul\":3640:3651   */\n      0x00\n        /* \"#utility.yul\":3674:3680   */\n      dup3\n        /* \"#utility.yul\":3669:3672   */\n      dup3\n        /* \"#utility.yul\":3662:3681   */\n      mstore\n        /* \"#utility.yul\":3714:3718   */\n      0x20\n        /* \"#utility.yul\":3709:3712   */\n      dup3\n        /* \"#utility.yul\":3705:3719   */\n      add\n        /* \"#utility.yul\":3690:3719   */\n      swap1\n      pop\n        /* \"#utility.yul\":3556:3725   */\n      swap3\n      swap2\n      pop\n      pop\n      jump\t// out\n        /* \"#utility.yul\":3731:3870   */\n    tag_152:\n        /* \"#utility.yul\":3820:3826   */\n      dup3\n        /* \"#utility.yul\":3815:3818   */\n      dup2\n        /* \"#utility.yul\":3810:3813   */\n      dup4\n        /* \"#utility.yul\":3804:3827   */\n      mcopy\n        /* \"#utility.yul\":3861:3862   */\n      0x00\n        /* \"#utility.yul\":3852:3858   */\n      dup4\n        /* \"#utility.yul\":3847:3850   */\n      dup4\n        /* \"#utility.yul\":3843:3859   */\n      add\n        /* \"#utility.yul\":3836:3863   */\n      mstore\n        /* \"#utility.yul\":3731:3870   */\n      pop\n      pop\n      pop\n      jump\t// out\n        /* \"#utility.yul\":3876:3978   */\n    tag_153:\n        /* \"#utility.yul\":3917:3923   */\n      0x00\n        /* \"#utility.yul\":3968:3970   */\n      0x1f\n        /* \"#utility.yul\":3964:3971   */\n      not\n        /* \"#utility.yul\":3959:3961   */\n      0x1f\n        /* \"#utility.yul\":3952:3957   */\n      dup4\n        /* \"#utility.yul\":3948:3962   */\n      add\n        /* \"#utility.yul\":3944:3972   */\n      and\n        /* \"#utility.yul\":3934:3972   */\n      swap1\n      pop\n        /* \"#utility.yul\":3876:3978   */\n      swap2\n      swap1\n      pop\n      jump\t// out\n        /* \"#utility.yul\":3984:4361   */\n    tag_154:\n        /* \"#utility.yul\":4072:4075   */\n      0x00\n        /* \"#utility.yul\":4100:4139   */\n      tag_259\n        /* \"#utility.yul\":4133:4138   */\n      dup3\n        /* \"#utility.yul\":4100:4139   */\n      tag_150\n      jump\t// in\n    tag_259:\n        /* \"#utility.yul\":4155:4226   */\n      tag_260\n        /* \"#utility.yul\":4219:4225   */\n      dup2\n        /* \"#utility.yul\":4214:4217   */\n      dup6\n        /* \"#utility.yul\":4155:4226   */\n      tag_151\n      jump\t// in\n    tag_260:\n        /* \"#utility.yul\":4148:4226   */\n      swap4\n      pop\n        /* \"#utility.yul\":4235:4300   */\n      tag_261\n        /* \"#utility.yul\":4293:4299   */\n      dup2\n        /* \"#utility.yul\":4288:4291   */\n      dup6\n        /* \"#utility.yul\":4281:4285   */\n      0x20\n        /* \"#utility.yul\":4274:4279   */\n      dup7\n        /* \"#utility.yul\":4270:4286   */\n      add\n        /* \"#utility.yul\":4235:4300   */\n      tag_152\n      jump\t// in\n    tag_261:\n        /* \"#utility.yul\":4325:4354   */\n      tag_262\n        /* \"#utility.yul\":4347:4353   */\n      dup2\n        /* \"#utility.yul\":4325:4354   */\n      tag_153\n      jump\t// in\n    tag_262:\n        /* \"#utility.yul\":4320:4323   */\n      dup5\n        /* \"#utility.yul\":4316:4355   */\n      add\n        /* \"#utility.yul\":4309:4355   */\n      swap2\n      pop\n        /* \"#utility.yul\":4076:4361   */\n      pop\n        /* \"#utility.yul\":3984:4361   */\n      swap3\n      swap2\n      pop\n      pop\n      jump\t// out\n        /* \"#utility.yul\":4367:4680   */\n    tag_32:\n        /* \"#utility.yul\":4480:4484   */\n      0x00\n        /* \"#utility.yul\":4518:4520   */\n      0x20\n        /* \"#utility.yul\":4507:4516   */\n      dup3\n        /* \"#utility.yul\":4503:4521   */\n      add\n        /* \"#utility.yul\":4495:4521   */\n      swap1\n      pop\n        /* \"#utility.yul\":4567:4576   */\n      dup2\n        /* \"#utility.yul\":4561:4565   */\n      dup2\n        /* \"#utility.yul\":4557:4577   */\n      sub\n        /* \"#utility.yul\":4553:4554   */\n      0x00\n        /* \"#utility.yul\":4542:4551   */\n      dup4\n        /* \"#utility.yul\":4538:4555   */\n      add\n        /* \"#utility.yul\":4531:4578   */\n      mstore\n        /* \"#utility.yul\":4595:4673   */\n      tag_264\n        /* \"#utility.yul\":4668:4672   */\n      dup2\n        /* \"#utility.yul\":4659:4665   */\n      dup5\n        /* \"#utility.yul\":4595:4673   */\n      tag_154\n      jump\t// in\n    tag_264:\n        /* \"#utility.yul\":4587:4673   */\n      swap1\n      pop\n        /* \"#utility.yul\":4367:4680   */\n      swap3\n      swap2\n      pop\n      pop\n      jump\t// out\n        /* \"#utility.yul\":4686:4812   */\n    tag_155:\n        /* \"#utility.yul\":4723:4730   */\n      0x00\n        /* \"#utility.yul\":4763:4805   */\n      0xffffffffffffffffffffffffffffffffffffffff\n        /* \"#utility.yul\":4756:4761   */\n      dup3\n        /* \"#utility.yul\":4752:4806   */\n      and\n        /* \"#utility.yul\":4741:4806   */\n      swap1\n      pop\n        /* \"#utility.yul\":4686:4812   */\n      swap2\n      swap1\n      pop\n      jump\t// out\n        /* \"#utility.yul\":4818:4878   */\n    tag_156:\n        /* \"#utility.yul\":4846:4849   */\n      0x00\n        /* \"#utility.yul\":4867:4872   */\n      dup2\n        /* \"#utility.yul\":4860:4872   */\n      swap1\n      pop\n        /* \"#utility.yul\":4818:4878   */\n      swap2\n      swap1\n      pop\n      jump\t// out\n        /* \"#utility.yul\":4884:5026   */\n    tag_157:\n        /* \"#utility.yul\":4934:4943   */\n      0x00\n        /* \"#utility.yul\":4967:5020   */\n      tag_268\n        /* \"#utility.yul\":4985:5019   */\n      tag_269\n        /* \"#utility.yul\":4994:5018   */\n      tag_270\n        /* \"#utility.yul\":5012:5017   */\n      dup5\n        /* \"#utility.yul\":4994:5018   */\n      tag_155\n      jump\t// in\n    tag_270:\n        /* \"#utility.yul\":4985:5019   */\n      tag_156\n      jump\t// in\n    tag_269:\n        /* \"#utility.yul\":4967:5020   */\n      tag_155\n      jump\t// in\n    tag_268:\n        /* \"#utility.yul\":4954:5020   */\n      swap1\n      pop\n        /* \"#utility.yul\":4884:5026   */\n      swap2\n      swap1\n      pop\n      jump\t// out\n        /* \"#utility.yul\":5032:5158   */\n    tag_158:\n        /* \"#utility.yul\":5082:5091   */\n      0x00\n        /* \"#utility.yul\":5115:5152   */\n      tag_272\n        /* \"#utility.yul\":5146:5151   */\n      dup3\n        /* \"#utility.yul\":5115:5152   */\n      tag_157\n      jump\t// in\n    tag_272:\n        /* \"#utility.yul\":5102:5152   */\n      swap1\n      pop\n        /* \"#utility.yul\":5032:5158   */\n      swap2\n      swap1\n      pop\n      jump\t// out\n        /* \"#utility.yul\":5164:5307   */\n    tag_159:\n        /* \"#utility.yul\":5231:5240   */\n      0x00\n        /* \"#utility.yul\":5264:5301   */\n      tag_274\n        /* \"#utility.yul\":5295:5300   */\n      dup3\n        /* \"#utility.yul\":5264:5301   */\n      tag_158\n      jump\t// in\n    tag_274:\n        /* \"#utility.yul\":5251:5301   */\n      swap1\n      pop\n        /* \"#utility.yul\":5164:5307   */\n      swap2\n      swap1\n      pop\n      jump\t// out\n        /* \"#utility.yul\":5313:5478   */\n    tag_160:\n        /* \"#utility.yul\":5417:5471   */\n      tag_276\n        /* \"#utility.yul\":5465:5470   */\n      dup2\n        /* \"#utility.yul\":5417:5471   */\n      tag_159\n      jump\t// in\n    tag_276:\n        /* \"#utility.yul\":5412:5415   */\n      dup3\n        /* \"#utility.yul\":5405:5472   */\n      mstore\n        /* \"#utility.yul\":5313:5478   */\n      pop\n      pop\n      jump\t// out\n        /* \"#utility.yul\":5484:5740   */\n    tag_37:\n        /* \"#utility.yul\":5594:5598   */\n      0x00\n        /* \"#utility.yul\":5632:5634   */\n      0x20\n        /* \"#utility.yul\":5621:5630   */\n      dup3\n        /* \"#utility.yul\":5617:5635   */\n      add\n        /* \"#utility.yul\":5609:5635   */\n      swap1\n      pop\n        /* \"#utility.yul\":5645:5733   */\n      tag_278\n        /* \"#utility.yul\":5730:5731   */\n      0x00\n        /* \"#utility.yul\":5719:5728   */\n      dup4\n        /* \"#utility.yul\":5715:5732   */\n      add\n        /* \"#utility.yul\":5706:5712   */\n      dup5\n        /* \"#utility.yul\":5645:5733   */\n      tag_160\n      jump\t// in\n    tag_278:\n        /* \"#utility.yul\":5484:5740   */\n      swap3\n      swap2\n      pop\n      pop\n      jump\t// out\n        /* \"#utility.yul\":5746:5836   */\n    tag_161:\n        /* \"#utility.yul\":5780:5787   */\n      0x00\n        /* \"#utility.yul\":5823:5828   */\n      dup2\n        /* \"#utility.yul\":5816:5829   */\n      iszero\n        /* \"#utility.yul\":5809:5830   */\n      iszero\n        /* \"#utility.yul\":5798:5830   */\n      swap1\n      pop\n        /* \"#utility.yul\":5746:5836   */\n      swap2\n      swap1\n      pop\n      jump\t// out\n        /* \"#utility.yul\":5842:5951   */\n    tag_162:\n        /* \"#utility.yul\":5923:5944   */\n      tag_281\n        /* \"#utility.yul\":5938:5943   */\n      dup2\n        /* \"#utility.yul\":5923:5944   */\n      tag_161\n      jump\t// in\n    tag_281:\n        /* \"#utility.yul\":5918:5921   */\n      dup3\n        /* \"#utility.yul\":5911:5945   */\n      mstore\n        /* \"#utility.yul\":5842:5951   */\n      pop\n      pop\n      jump\t// out\n        /* \"#utility.yul\":5957:6167   */\n    tag_43:\n        /* \"#utility.yul\":6044:6048   */\n      0x00\n        /* \"#utility.yul\":6082:6084   */\n      0x20\n        /* \"#utility.yul\":6071:6080   */\n      dup3\n        /* \"#utility.yul\":6067:6085   */\n      add\n        /* \"#utility.yul\":6059:6085   */\n      swap1\n      pop\n        /* \"#utility.yul\":6095:6160   */\n      tag_283\n        /* \"#utility.yul\":6157:6158   */\n      0x00\n        /* \"#utility.yul\":6146:6155   */\n      dup4\n        /* \"#utility.yul\":6142:6159   */\n      add\n        /* \"#utility.yul\":6133:6139   */\n      dup5\n        /* \"#utility.yul\":6095:6160   */\n      tag_162\n      jump\t// in\n    tag_283:\n        /* \"#utility.yul\":5957:6167   */\n      swap3\n      swap2\n      pop\n      pop\n      jump\t// out\n        /* \"#utility.yul\":6173:6293   */\n    tag_163:\n        /* \"#utility.yul\":6245:6268   */\n      tag_285\n        /* \"#utility.yul\":6262:6267   */\n      dup2\n        /* \"#utility.yul\":6245:6268   */\n      tag_144\n      jump\t// in\n    tag_285:\n        /* \"#utility.yul\":6238:6243   */\n      dup2\n        /* \"#utility.yul\":6235:6269   */\n      eq\n        /* \"#utility.yul\":6225:6287   */\n      tag_286\n      jumpi\n        /* \"#utility.yul\":6283:6284   */\n      0x00\n        /* \"#utility.yul\":6280:6281   */\n      dup1\n        /* \"#utility.yul\":6273:6285   */\n      revert\n        /* \"#utility.yul\":6225:6287   */\n    tag_286:\n        /* \"#utility.yul\":6173:6293   */\n      pop\n      jump\t// out\n        /* \"#utility.yul\":6299:6436   */\n    tag_164:\n        /* \"#utility.yul\":6344:6349   */\n      0x00\n        /* \"#utility.yul\":6382:6388   */\n      dup2\n        /* \"#utility.yul\":6369:6389   */\n      calldataload\n        /* \"#utility.yul\":6360:6389   */\n      swap1\n      pop\n        /* \"#utility.yul\":6398:6430   */\n      tag_288\n        /* \"#utility.yul\":6424:6429   */\n      dup2\n        /* \"#utility.yul\":6398:6430   */\n      tag_163\n      jump\t// in\n    tag_288:\n        /* \"#utility.yul\":6299:6436   */\n      swap3\n      swap2\n      pop\n      pop\n      jump\t// out\n        /* \"#utility.yul\":6442:6914   */\n    tag_47:\n        /* \"#utility.yul\":6509:6515   */\n      0x00\n        /* \"#utility.yul\":6517:6523   */\n      dup1\n        /* \"#utility.yul\":6566:6568   */\n      0x40\n        /* \"#utility.yul\":6554:6563   */\n      dup4\n        /* \"#utility.yul\":6545:6552   */\n      dup6\n        /* \"#utility.yul\":6541:6564   */\n      sub\n        /* \"#utility.yul\":6537:6569   */\n      slt\n        /* \"#utility.yul\":6534:6653   */\n      iszero\n      tag_290\n      jumpi\n        /* \"#utility.yul\":6572:6651   */\n      tag_291\n      tag_138\n      jump\t// in\n    tag_291:\n        /* \"#utility.yul\":6534:6653   */\n    tag_290:\n        /* \"#utility.yul\":6692:6693   */\n      0x00\n        /* \"#utility.yul\":6717:6770   */\n      tag_292\n        /* \"#utility.yul\":6762:6769   */\n      dup6\n        /* \"#utility.yul\":6753:6759   */\n      dup3\n        /* \"#utility.yul\":6742:6751   */\n      dup7\n        /* \"#utility.yul\":6738:6760   */\n      add\n        /* \"#utility.yul\":6717:6770   */\n      tag_142\n      jump\t// in\n    tag_292:\n        /* \"#utility.yul\":6707:6770   */\n      swap3\n      pop\n        /* \"#utility.yul\":6663:6780   */\n      pop\n        /* \"#utility.yul\":6819:6821   */\n      0x20\n        /* \"#utility.yul\":6845:6897   */\n      tag_293\n        /* \"#utility.yul\":6889:6896   */\n      dup6\n        /* \"#utility.yul\":6880:6886   */\n      dup3\n        /* \"#utility.yul\":6869:6878   */\n      dup7\n        /* \"#utility.yul\":6865:6887   */\n      add\n        /* \"#utility.yul\":6845:6897   */\n      tag_164\n      jump\t// in\n    tag_293:\n        /* \"#utility.yul\":6835:6897   */\n      swap2\n      pop\n        /* \"#utility.yul\":6790:6907   */\n      pop\n        /* \"#utility.yul\":6442:6914   */\n      swap3\n      pop\n      swap3\n      swap1\n      pop\n      jump\t// out\n        /* \"#utility.yul\":6920:7016   */\n    tag_165:\n        /* \"#utility.yul\":6957:6964   */\n      0x00\n        /* \"#utility.yul\":6986:7010   */\n      tag_295\n        /* \"#utility.yul\":7004:7009   */\n      dup3\n        /* \"#utility.yul\":6986:7010   */\n      tag_155\n      jump\t// in\n    tag_295:\n        /* \"#utility.yul\":6975:7010   */\n      swap1\n      pop\n        /* \"#utility.yul\":6920:7016   */\n      swap2\n      swap1\n      pop\n      jump\t// out\n        /* \"#utility.yul\":7022:7140   */\n    tag_166:\n        /* \"#utility.yul\":7109:7133   */\n      tag_297\n        /* \"#utility.yul\":7127:7132   */\n      dup2\n        /* \"#utility.yul\":7109:7133   */\n      tag_165\n      jump\t// in\n    tag_297:\n        /* \"#utility.yul\":7104:7107   */\n      dup3\n        /* \"#utility.yul\":7097:7134   */\n      mstore\n        /* \"#utility.yul\":7022:7140   */\n      pop\n      pop\n      jump\t// out\n        /* \"#utility.yul\":7146:7244   */\n    tag_167:\n        /* \"#utility.yul\":7197:7203   */\n      0x00\n        /* \"#utility.yul\":7231:7236   */\n      dup2\n        /* \"#utility.yul\":7225:7237   */\n      mload\n        /* \"#utility.yul\":7215:7237   */\n      swap1\n      pop\n        /* \"#utility.yul\":7146:7244   */\n      swap2\n      swap1\n      pop\n      jump\t// out\n        /* \"#utility.yul\":7250:7418   */\n    tag_168:\n        /* \"#utility.yul\":7333:7344   */\n      0x00\n        /* \"#utility.yul\":7367:7373   */\n      dup3\n        /* \"#utility.yul\":7362:7365   */\n      dup3\n        /* \"#utility.yul\":7355:7374   */\n      mstore\n        /* \"#utility.yul\":7407:7411   */\n      0x20\n        /* \"#utility.yul\":7402:7405   */\n      dup3\n        /* \"#utility.yul\":7398:7412   */\n      add\n        /* \"#utility.yul\":7383:7412   */\n      swap1\n      pop\n        /* \"#utility.yul\":7250:7418   */\n      swap3\n      swap2\n      pop\n      pop\n      jump\t// out\n        /* \"#utility.yul\":7424:7797   */\n    tag_169:\n        /* \"#utility.yul\":7510:7513   */\n      0x00\n        /* \"#utility.yul\":7538:7576   */\n      tag_301\n        /* \"#utility.yul\":7570:7575   */\n      dup3\n        /* \"#utility.yul\":7538:7576   */\n      tag_167\n      jump\t// in\n    tag_301:\n        /* \"#utility.yul\":7592:7662   */\n      tag_302\n        /* \"#utility.yul\":7655:7661   */\n      dup2\n        /* \"#utility.yul\":7650:7653   */\n      dup6\n        /* \"#utility.yul\":7592:7662   */\n      tag_168\n      jump\t// in\n    tag_302:\n        /* \"#utility.yul\":7585:7662   */\n      swap4\n      pop\n        /* \"#utility.yul\":7671:7736   */\n      tag_303\n        /* \"#utility.yul\":7729:7735   */\n      dup2\n        /* \"#utility.yul\":7724:7727   */\n      dup6\n        /* \"#utility.yul\":7717:7721   */\n      0x20\n        /* \"#utility.yul\":7710:7715   */\n      dup7\n        /* \"#utility.yul\":7706:7722   */\n      add\n        /* \"#utility.yul\":7671:7736   */\n      tag_152\n      jump\t// in\n    tag_303:\n        /* \"#utility.yul\":7761:7790   */\n      tag_304\n        /* \"#utility.yul\":7783:7789   */\n      dup2\n        /* \"#utility.yul\":7761:7790   */\n      tag_153\n      jump\t// in\n    tag_304:\n        /* \"#utility.yul\":7756:7759   */\n      dup5\n        /* \"#utility.yul\":7752:7791   */\n      add\n        /* \"#utility.yul\":7745:7791   */\n      swap2\n      pop\n        /* \"#utility.yul\":7514:7797   */\n      pop\n        /* \"#utility.yul\":7424:7797   */\n      swap3\n      swap2\n      pop\n      pop\n      jump\t// out\n        /* \"#utility.yul\":7803:8530   */\n    tag_54:\n        /* \"#utility.yul\":8016:8020   */\n      0x00\n        /* \"#utility.yul\":8054:8057   */\n      0x80\n        /* \"#utility.yul\":8043:8052   */\n      dup3\n        /* \"#utility.yul\":8039:8058   */\n      add\n        /* \"#utility.yul\":8031:8058   */\n      swap1\n      pop\n        /* \"#utility.yul\":8068:8139   */\n      tag_306\n        /* \"#utility.yul\":8136:8137   */\n      0x00\n        /* \"#utility.yul\":8125:8134   */\n      dup4\n        /* \"#utility.yul\":8121:8138   */\n      add\n        /* \"#utility.yul\":8112:8118   */\n      dup8\n        /* \"#utility.yul\":8068:8139   */\n      tag_166\n      jump\t// in\n    tag_306:\n        /* \"#utility.yul\":8149:8221   */\n      tag_307\n        /* \"#utility.yul\":8217:8219   */\n      0x20\n        /* \"#utility.yul\":8206:8215   */\n      dup4\n        /* \"#utility.yul\":8202:8220   */\n      add\n        /* \"#utility.yul\":8193:8199   */\n      dup7\n        /* \"#utility.yul\":8149:8221   */\n      tag_143\n      jump\t// in\n    tag_307:\n        /* \"#utility.yul\":8268:8277   */\n      dup2\n        /* \"#utility.yul\":8262:8266   */\n      dup2\n        /* \"#utility.yul\":8258:8278   */\n      sub\n        /* \"#utility.yul\":8253:8255   */\n      0x40\n        /* \"#utility.yul\":8242:8251   */\n      dup4\n        /* \"#utility.yul\":8238:8256   */\n      add\n        /* \"#utility.yul\":8231:8279   */\n      mstore\n        /* \"#utility.yul\":8296:8372   */\n      tag_308\n        /* \"#utility.yul\":8367:8371   */\n      dup2\n        /* \"#utility.yul\":8358:8364   */\n      dup6\n        /* \"#utility.yul\":8296:8372   */\n      tag_169\n      jump\t// in\n    tag_308:\n        /* \"#utility.yul\":8288:8372   */\n      swap1\n      pop\n        /* \"#utility.yul\":8419:8428   */\n      dup2\n        /* \"#utility.yul\":8413:8417   */\n      dup2\n        /* \"#utility.yul\":8409:8429   */\n      sub\n        /* \"#utility.yul\":8404:8406   */\n      0x60\n        /* \"#utility.yul\":8393:8402   */\n      dup4\n        /* \"#utility.yul\":8389:8407   */\n      add\n        /* \"#utility.yul\":8382:8430   */\n      mstore\n        /* \"#utility.yul\":8447:8523   */\n      tag_309\n        /* \"#utility.yul\":8518:8522   */\n      dup2\n        /* \"#utility.yul\":8509:8515   */\n      dup5\n        /* \"#utility.yul\":8447:8523   */\n      tag_169\n      jump\t// in\n    tag_309:\n        /* \"#utility.yul\":8439:8523   */\n      swap1\n      pop\n        /* \"#utility.yul\":7803:8530   */\n      swap6\n      swap5\n      pop\n      pop\n      pop\n      pop\n      pop\n      jump\t// out\n        /* \"#utility.yul\":8536:8653   */\n    tag_170:\n        /* \"#utility.yul\":8645:8646   */\n      0x00\n        /* \"#utility.yul\":8642:8643   */\n      dup1\n        /* \"#utility.yul\":8635:8647   */\n      revert\n        /* \"#utility.yul\":8659:8839   */\n    tag_171:\n        /* \"#utility.yul\":8707:8784   */\n      0x4e487b7100000000000000000000000000000000000000000000000000000000\n        /* \"#utility.yul\":8704:8705   */\n      0x00\n        /* \"#utility.yul\":8697:8785   */\n      mstore\n        /* \"#utility.yul\":8804:8808   */\n      0x41\n        /* \"#utility.yul\":8801:8802   */\n      0x04\n        /* \"#utility.yul\":8794:8809   */\n      mstore\n        /* \"#utility.yul\":8828:8832   */\n      0x24\n        /* \"#utility.yul\":8825:8826   */\n      0x00\n        /* \"#utility.yul\":8818:8833   */\n      revert\n        /* \"#utility.yul\":8845:9126   */\n    tag_172:\n        /* \"#utility.yul\":8928:8955   */\n      tag_313\n        /* \"#utility.yul\":8950:8954   */\n      dup3\n        /* \"#utility.yul\":8928:8955   */\n      tag_153\n      jump\t// in\n    tag_313:\n        /* \"#utility.yul\":8920:8926   */\n      dup2\n        /* \"#utility.yul\":8916:8956   */\n      add\n        /* \"#utility.yul\":9058:9064   */\n      dup2\n        /* \"#utility.yul\":9046:9056   */\n      dup2\n        /* \"#utility.yul\":9043:9065   */\n      lt\n        /* \"#utility.yul\":9022:9040   */\n      0xffffffffffffffff\n        /* \"#utility.yul\":9010:9020   */\n      dup3\n        /* \"#utility.yul\":9007:9041   */\n      gt\n        /* \"#utility.yul\":9004:9066   */\n      or\n        /* \"#utility.yul\":9001:9089   */\n      iszero\n      tag_314\n      jumpi\n        /* \"#utility.yul\":9069:9087   */\n      tag_315\n      tag_171\n      jump\t// in\n    tag_315:\n        /* \"#utility.yul\":9001:9089   */\n    tag_314:\n        /* \"#utility.yul\":9109:9119   */\n      dup1\n        /* \"#utility.yul\":9105:9107   */\n      0x40\n        /* \"#utility.yul\":9098:9120   */\n      mstore\n        /* \"#utility.yul\":8888:9126   */\n      pop\n        /* \"#utility.yul\":8845:9126   */\n      pop\n      pop\n      jump\t// out\n        /* \"#utility.yul\":9132:9261   */\n    tag_173:\n        /* \"#utility.yul\":9166:9172   */\n      0x00\n        /* \"#utility.yul\":9193:9213   */\n      tag_317\n      tag_137\n      jump\t// in\n    tag_317:\n        /* \"#utility.yul\":9183:9213   */\n      swap1\n      pop\n        /* \"#utility.yul\":9222:9255   */\n      tag_318\n        /* \"#utility.yul\":9250:9254   */\n      dup3\n        /* \"#utility.yul\":9242:9248   */\n      dup3\n        /* \"#utility.yul\":9222:9255   */\n      tag_172\n      jump\t// in\n    tag_318:\n        /* \"#utility.yul\":9132:9261   */\n      swap2\n      swap1\n      pop\n      jump\t// out\n        /* \"#utility.yul\":9267:9575   */\n    tag_174:\n        /* \"#utility.yul\":9329:9333   */\n      0x00\n        /* \"#utility.yul\":9419:9437   */\n      0xffffffffffffffff\n        /* \"#utility.yul\":9411:9417   */\n      dup3\n        /* \"#utility.yul\":9408:9438   */\n      gt\n        /* \"#utility.yul\":9405:9461   */\n      iszero\n      tag_320\n      jumpi\n        /* \"#utility.yul\":9441:9459   */\n      tag_321\n      tag_171\n      jump\t// in\n    tag_321:\n        /* \"#utility.yul\":9405:9461   */\n    tag_320:\n        /* \"#utility.yul\":9479:9508   */\n      tag_322\n        /* \"#utility.yul\":9501:9507   */\n      dup3\n        /* \"#utility.yul\":9479:9508   */\n      tag_153\n      jump\t// in\n    tag_322:\n        /* \"#utility.yul\":9471:9508   */\n      swap1\n      pop\n        /* \"#utility.yul\":9563:9567   */\n      0x20\n        /* \"#utility.yul\":9557:9561   */\n      dup2\n        /* \"#utility.yul\":9553:9568   */\n      add\n        /* \"#utility.yul\":9545:9568   */\n      swap1\n      pop\n        /* \"#utility.yul\":9267:9575   */\n      swap2\n      swap1\n      pop\n      jump\t// out\n        /* \"#utility.yul\":9581:9729   */\n    tag_175:\n        /* \"#utility.yul\":9679:9685   */\n      dup3\n        /* \"#utility.yul\":9674:9677   */\n      dup2\n        /* \"#utility.yul\":9669:9672   */\n      dup4\n        /* \"#utility.yul\":9656:9686   */\n      calldatacopy\n        /* \"#utility.yul\":9720:9721   */\n      0x00\n        /* \"#utility.yul\":9711:9717   */\n      dup4\n        /* \"#utility.yul\":9706:9709   */\n      dup4\n        /* \"#utility.yul\":9702:9718   */\n      add\n        /* \"#utility.yul\":9695:9722   */\n      mstore\n        /* \"#utility.yul\":9581:9729   */\n      pop\n      pop\n      pop\n      jump\t// out\n        /* \"#utility.yul\":9735:10160   */\n    tag_176:\n        /* \"#utility.yul\":9813:9818   */\n      0x00\n        /* \"#utility.yul\":9838:9904   */\n      tag_325\n        /* \"#utility.yul\":9854:9903   */\n      tag_326\n        /* \"#utility.yul\":9896:9902   */\n      dup5\n        /* \"#utility.yul\":9854:9903   */\n      tag_174\n      jump\t// in\n    tag_326:\n        /* \"#utility.yul\":9838:9904   */\n      tag_173\n      jump\t// in\n    tag_325:\n        /* \"#utility.yul\":9829:9904   */\n      swap1\n      pop\n        /* \"#utility.yul\":9927:9933   */\n      dup3\n        /* \"#utility.yul\":9920:9925   */\n      dup2\n        /* \"#utility.yul\":9913:9934   */\n      mstore\n        /* \"#utility.yul\":9965:9969   */\n      0x20\n        /* \"#utility.yul\":9958:9963   */\n      dup2\n        /* \"#utility.yul\":9954:9970   */\n      add\n        /* \"#utility.yul\":10003:10006   */\n      dup5\n        /* \"#utility.yul\":9994:10000   */\n      dup5\n        /* \"#utility.yul\":9989:9992   */\n      dup5\n        /* \"#utility.yul\":9985:10001   */\n      add\n        /* \"#utility.yul\":9982:10007   */\n      gt\n        /* \"#utility.yul\":9979:10091   */\n      iszero\n      tag_327\n      jumpi\n        /* \"#utility.yul\":10010:10089   */\n      tag_328\n      tag_170\n      jump\t// in\n    tag_328:\n        /* \"#utility.yul\":9979:10091   */\n    tag_327:\n        /* \"#utility.yul\":10100:10154   */\n      tag_329\n        /* \"#utility.yul\":10147:10153   */\n      dup5\n        /* \"#utility.yul\":10142:10145   */\n      dup3\n        /* \"#utility.yul\":10137:10140   */\n      dup6\n        /* \"#utility.yul\":10100:10154   */\n      tag_175\n      jump\t// in\n    tag_329:\n        /* \"#utility.yul\":9819:10160   */\n      pop\n        /* \"#utility.yul\":9735:10160   */\n      swap4\n      swap3\n      pop\n      pop\n      pop\n      jump\t// out\n        /* \"#utility.yul\":10180:10520   */\n    tag_177:\n        /* \"#utility.yul\":10236:10241   */\n      0x00\n        /* \"#utility.yul\":10285:10288   */\n      dup3\n        /* \"#utility.yul\":10278:10282   */\n      0x1f\n        /* \"#utility.yul\":10270:10276   */\n      dup4\n        /* \"#utility.yul\":10266:10283   */\n      add\n        /* \"#utility.yul\":10262:10289   */\n      slt\n        /* \"#utility.yul\":10252:10374   */\n      tag_331\n      jumpi\n        /* \"#utility.yul\":10293:10372   */\n      tag_332\n      tag_146\n      jump\t// in\n    tag_332:\n        /* \"#utility.yul\":10252:10374   */\n    tag_331:\n        /* \"#utility.yul\":10410:10416   */\n      dup2\n        /* \"#utility.yul\":10397:10417   */\n      calldataload\n        /* \"#utility.yul\":10435:10514   */\n      tag_333\n        /* \"#utility.yul\":10510:10513   */\n      dup5\n        /* \"#utility.yul\":10502:10508   */\n      dup3\n        /* \"#utility.yul\":10495:10499   */\n      0x20\n        /* \"#utility.yul\":10487:10493   */\n      dup7\n        /* \"#utility.yul\":10483:10500   */\n      add\n        /* \"#utility.yul\":10435:10514   */\n      tag_176\n      jump\t// in\n    tag_333:\n        /* \"#utility.yul\":10426:10514   */\n      swap2\n      pop\n        /* \"#utility.yul\":10242:10520   */\n      pop\n        /* \"#utility.yul\":10180:10520   */\n      swap3\n      swap2\n      pop\n      pop\n      jump\t// out\n        /* \"#utility.yul\":10526:11180   */\n    tag_58:\n        /* \"#utility.yul\":10604:10610   */\n      0x00\n        /* \"#utility.yul\":10612:10618   */\n      dup1\n        /* \"#utility.yul\":10661:10663   */\n      0x40\n        /* \"#utility.yul\":10649:10658   */\n      dup4\n        /* \"#utility.yul\":10640:10647   */\n      dup6\n        /* \"#utility.yul\":10636:10659   */\n      sub\n        /* \"#utility.yul\":10632:10664   */\n      slt\n        /* \"#utility.yul\":10629:10748   */\n      iszero\n      tag_335\n      jumpi\n        /* \"#utility.yul\":10667:10746   */\n      tag_336\n      tag_138\n      jump\t// in\n    tag_336:\n        /* \"#utility.yul\":10629:10748   */\n    tag_335:\n        /* \"#utility.yul\":10787:10788   */\n      0x00\n        /* \"#utility.yul\":10812:10865   */\n      tag_337\n        /* \"#utility.yul\":10857:10864   */\n      dup6\n        /* \"#utility.yul\":10848:10854   */\n      dup3\n        /* \"#utility.yul\":10837:10846   */\n      dup7\n        /* \"#utility.yul\":10833:10855   */\n      add\n        /* \"#utility.yul\":10812:10865   */\n      tag_142\n      jump\t// in\n    tag_337:\n        /* \"#utility.yul\":10802:10865   */\n      swap3\n      pop\n        /* \"#utility.yul\":10758:10875   */\n      pop\n        /* \"#utility.yul\":10942:10944   */\n      0x20\n        /* \"#utility.yul\":10931:10940   */\n      dup4\n        /* \"#utility.yul\":10927:10945   */\n      add\n        /* \"#utility.yul\":10914:10946   */\n      calldataload\n        /* \"#utility.yul\":10973:10991   */\n      0xffffffffffffffff\n        /* \"#utility.yul\":10965:10971   */\n      dup2\n        /* \"#utility.yul\":10962:10992   */\n      gt\n        /* \"#utility.yul\":10959:11076   */\n      iszero\n      tag_338\n      jumpi\n        /* \"#utility.yul\":10995:11074   */\n      tag_339\n      tag_139\n      jump\t// in\n    tag_339:\n        /* \"#utility.yul\":10959:11076   */\n    tag_338:\n        /* \"#utility.yul\":11100:11163   */\n      tag_340\n        /* \"#utility.yul\":11155:11162   */\n      dup6\n        /* \"#utility.yul\":11146:11152   */\n      dup3\n        /* \"#utility.yul\":11135:11144   */\n      dup7\n        /* \"#utility.yul\":11131:11153   */\n      add\n        /* \"#utility.yul\":11100:11163   */\n      tag_177\n      jump\t// in\n    tag_340:\n        /* \"#utility.yul\":11090:11163   */\n      swap2\n      pop\n        /* \"#utility.yul\":10885:11173   */\n      pop\n        /* \"#utility.yul\":10526:11180   */\n      swap3\n      pop\n      swap3\n      swap1\n      pop\n      jump\t// out\n        /* \"#utility.yul\":11199:11751   */\n    tag_178:\n        /* \"#utility.yul\":11256:11264   */\n      0x00\n        /* \"#utility.yul\":11266:11272   */\n      dup1\n        /* \"#utility.yul\":11316:11319   */\n      dup4\n        /* \"#utility.yul\":11309:11313   */\n      0x1f\n        /* \"#utility.yul\":11301:11307   */\n      dup5\n        /* \"#utility.yul\":11297:11314   */\n      add\n        /* \"#utility.yul\":11293:11320   */\n      slt\n        /* \"#utility.yul\":11283:11405   */\n      tag_342\n      jumpi\n        /* \"#utility.yul\":11324:11403   */\n      tag_343\n      tag_146\n      jump\t// in\n    tag_343:\n        /* \"#utility.yul\":11283:11405   */\n    tag_342:\n        /* \"#utility.yul\":11437:11443   */\n      dup3\n        /* \"#utility.yul\":11424:11444   */\n      calldataload\n        /* \"#utility.yul\":11414:11444   */\n      swap1\n      pop\n        /* \"#utility.yul\":11467:11485   */\n      0xffffffffffffffff\n        /* \"#utility.yul\":11459:11465   */\n      dup2\n        /* \"#utility.yul\":11456:11486   */\n      gt\n        /* \"#utility.yul\":11453:11570   */\n      iszero\n      tag_344\n      jumpi\n        /* \"#utility.yul\":11489:11568   */\n      tag_345\n      tag_147\n      jump\t// in\n    tag_345:\n        /* \"#utility.yul\":11453:11570   */\n    tag_344:\n        /* \"#utility.yul\":11603:11607   */\n      0x20\n        /* \"#utility.yul\":11595:11601   */\n      dup4\n        /* \"#utility.yul\":11591:11608   */\n      add\n        /* \"#utility.yul\":11579:11608   */\n      swap2\n      pop\n        /* \"#utility.yul\":11657:11660   */\n      dup4\n        /* \"#utility.yul\":11649:11653   */\n      0x01\n        /* \"#utility.yul\":11641:11647   */\n      dup3\n        /* \"#utility.yul\":11637:11654   */\n      mul\n        /* \"#utility.yul\":11627:11635   */\n      dup4\n        /* \"#utility.yul\":11623:11655   */\n      add\n        /* \"#utility.yul\":11620:11661   */\n      gt\n        /* \"#utility.yul\":11617:11745   */\n      iszero\n      tag_346\n      jumpi\n        /* \"#utility.yul\":11664:11743   */\n      tag_347\n      tag_148\n      jump\t// in\n    tag_347:\n        /* \"#utility.yul\":11617:11745   */\n    tag_346:\n        /* \"#utility.yul\":11199:11751   */\n      swap3\n      pop\n      swap3\n      swap1\n      pop\n      jump\t// out\n        /* \"#utility.yul\":11757:12772   */\n    tag_64:\n        /* \"#utility.yul\":11856:11862   */\n      0x00\n        /* \"#utility.yul\":11864:11870   */\n      dup1\n        /* \"#utility.yul\":11872:11878   */\n      0x00\n        /* \"#utility.yul\":11880:11886   */\n      dup1\n        /* \"#utility.yul\":11888:11894   */\n      0x00\n        /* \"#utility.yul\":11937:11939   */\n      0x60\n        /* \"#utility.yul\":11925:11934   */\n      dup7\n        /* \"#utility.yul\":11916:11923   */\n      dup9\n        /* \"#utility.yul\":11912:11935   */\n      sub\n        /* \"#utility.yul\":11908:11940   */\n      slt\n        /* \"#utility.yul\":11905:12024   */\n      iszero\n      tag_349\n      jumpi\n        /* \"#utility.yul\":11943:12022   */\n      tag_350\n      tag_138\n      jump\t// in\n    tag_350:\n        /* \"#utility.yul\":11905:12024   */\n    tag_349:\n        /* \"#utility.yul\":12063:12064   */\n      0x00\n        /* \"#utility.yul\":12088:12141   */\n      tag_351\n        /* \"#utility.yul\":12133:12140   */\n      dup9\n        /* \"#utility.yul\":12124:12130   */\n      dup3\n        /* \"#utility.yul\":12113:12122   */\n      dup10\n        /* \"#utility.yul\":12109:12131   */\n      add\n        /* \"#utility.yul\":12088:12141   */\n      tag_142\n      jump\t// in\n    tag_351:\n        /* \"#utility.yul\":12078:12141   */\n      swap6\n      pop\n        /* \"#utility.yul\":12034:12151   */\n      pop\n        /* \"#utility.yul\":12218:12220   */\n      0x20\n        /* \"#utility.yul\":12207:12216   */\n      dup7\n        /* \"#utility.yul\":12203:12221   */\n      add\n        /* \"#utility.yul\":12190:12222   */\n      calldataload\n        /* \"#utility.yul\":12249:12267   */\n      0xffffffffffffffff\n        /* \"#utility.yul\":12241:12247   */\n      dup2\n        /* \"#utility.yul\":12238:12268   */\n      gt\n        /* \"#utility.yul\":12235:12352   */\n      iszero\n      tag_352\n      jumpi\n        /* \"#utility.yul\":12271:12350   */\n      tag_353\n      tag_139\n      jump\t// in\n    tag_353:\n        /* \"#utility.yul\":12235:12352   */\n    tag_352:\n        /* \"#utility.yul\":12384:12448   */\n      tag_354\n        /* \"#utility.yul\":12440:12447   */\n      dup9\n        /* \"#utility.yul\":12431:12437   */\n      dup3\n        /* \"#utility.yul\":12420:12429   */\n      dup10\n        /* \"#utility.yul\":12416:12438   */\n      add\n        /* \"#utility.yul\":12384:12448   */\n      tag_178\n      jump\t// in\n    tag_354:\n        /* \"#utility.yul\":12366:12448   */\n      swap5\n      pop\n      swap5\n      pop\n        /* \"#utility.yul\":12161:12458   */\n      pop\n        /* \"#utility.yul\":12525:12527   */\n      0x40\n        /* \"#utility.yul\":12514:12523   */\n      dup7\n        /* \"#utility.yul\":12510:12528   */\n      add\n        /* \"#utility.yul\":12497:12529   */\n      calldataload\n        /* \"#utility.yul\":12556:12574   */\n      0xffffffffffffffff\n        /* \"#utility.yul\":12548:12554   */\n      dup2\n        /* \"#utility.yul\":12545:12575   */\n      gt\n        /* \"#utility.yul\":12542:12659   */\n      iszero\n      tag_355\n      jumpi\n        /* \"#utility.yul\":12578:12657   */\n      tag_356\n      tag_139\n      jump\t// in\n    tag_356:\n        /* \"#utility.yul\":12542:12659   */\n    tag_355:\n        /* \"#utility.yul\":12691:12755   */\n      tag_357\n        /* \"#utility.yul\":12747:12754   */\n      dup9\n        /* \"#utility.yul\":12738:12744   */\n      dup3\n        /* \"#utility.yul\":12727:12736   */\n      dup10\n        /* \"#utility.yul\":12723:12745   */\n      add\n        /* \"#utility.yul\":12691:12755   */\n      tag_178\n      jump\t// in\n    tag_357:\n        /* \"#utility.yul\":12673:12755   */\n      swap3\n      pop\n      swap3\n      pop\n        /* \"#utility.yul\":12468:12765   */\n      pop\n        /* \"#utility.yul\":11757:12772   */\n      swap3\n      swap6\n      pop\n      swap3\n      swap6\n      swap1\n      swap4\n      pop\n      jump\t// out\n        /* \"#utility.yul\":12778:12918   */\n    tag_179:\n        /* \"#utility.yul\":12827:12836   */\n      0x00\n        /* \"#utility.yul\":12860:12912   */\n      tag_359\n        /* \"#utility.yul\":12878:12911   */\n      tag_360\n        /* \"#utility.yul\":12887:12910   */\n      tag_361\n        /* \"#utility.yul\":12904:12909   */\n      dup5\n        /* \"#utility.yul\":12887:12910   */\n      tag_144\n      jump\t// in\n    tag_361:\n        /* \"#utility.yul\":12878:12911   */\n      tag_156\n      jump\t// in\n    tag_360:\n        /* \"#utility.yul\":12860:12912   */\n      tag_140\n      jump\t// in\n    tag_359:\n        /* \"#utility.yul\":12847:12912   */\n      swap1\n      pop\n        /* \"#utility.yul\":12778:12918   */\n      swap2\n      swap1\n      pop\n      jump\t// out\n        /* \"#utility.yul\":12924:13053   */\n    tag_180:\n        /* \"#utility.yul\":13010:13046   */\n      tag_363\n        /* \"#utility.yul\":13040:13045   */\n      dup2\n        /* \"#utility.yul\":13010:13046   */\n      tag_179\n      jump\t// in\n    tag_363:\n        /* \"#utility.yul\":13005:13008   */\n      dup3\n        /* \"#utility.yul\":12998:13047   */\n      mstore\n        /* \"#utility.yul\":12924:13053   */\n      pop\n      pop\n      jump\t// out\n        /* \"#utility.yul\":13059:13389   */\n    tag_71:\n        /* \"#utility.yul\":13179:13183   */\n      0x00\n        /* \"#utility.yul\":13217:13219   */\n      0x40\n        /* \"#utility.yul\":13206:13215   */\n      dup3\n        /* \"#utility.yul\":13202:13220   */\n      add\n        /* \"#utility.yul\":13194:13220   */\n      swap1\n      pop\n        /* \"#utility.yul\":13230:13301   */\n      tag_365\n        /* \"#utility.yul\":13298:13299   */\n      0x00\n        /* \"#utility.yul\":13287:13296   */\n      dup4\n        /* \"#utility.yul\":13283:13300   */\n      add\n        /* \"#utility.yul\":13274:13280   */\n      dup6\n        /* \"#utility.yul\":13230:13301   */\n      tag_143\n      jump\t// in\n    tag_365:\n        /* \"#utility.yul\":13311:13382   */\n      tag_366\n        /* \"#utility.yul\":13378:13380   */\n      0x20\n        /* \"#utility.yul\":13367:13376   */\n      dup4\n        /* \"#utility.yul\":13363:13381   */\n      add\n        /* \"#utility.yul\":13354:13360   */\n      dup5\n        /* \"#utility.yul\":13311:13382   */\n      tag_180\n      jump\t// in\n    tag_366:\n        /* \"#utility.yul\":13059:13389   */\n      swap4\n      swap3\n      pop\n      pop\n      pop\n      jump\t// out\n        /* \"#utility.yul\":13395:13538   */\n    tag_181:\n        /* \"#utility.yul\":13452:13457   */\n      0x00\n        /* \"#utility.yul\":13483:13489   */\n      dup2\n        /* \"#utility.yul\":13477:13490   */\n      mload\n        /* \"#utility.yul\":13468:13490   */\n      swap1\n      pop\n        /* \"#utility.yul\":13499:13532   */\n      tag_368\n        /* \"#utility.yul\":13526:13531   */\n      dup2\n        /* \"#utility.yul\":13499:13532   */\n      tag_141\n      jump\t// in\n    tag_368:\n        /* \"#utility.yul\":13395:13538   */\n      swap3\n      swap2\n      pop\n      pop\n      jump\t// out\n        /* \"#utility.yul\":13544:13895   */\n    tag_75:\n        /* \"#utility.yul\":13614:13620   */\n      0x00\n        /* \"#utility.yul\":13663:13665   */\n      0x20\n        /* \"#utility.yul\":13651:13660   */\n      dup3\n        /* \"#utility.yul\":13642:13649   */\n      dup5\n        /* \"#utility.yul\":13638:13661   */\n      sub\n        /* \"#utility.yul\":13634:13666   */\n      slt\n        /* \"#utility.yul\":13631:13750   */\n      iszero\n      tag_370\n      jumpi\n        /* \"#utility.yul\":13669:13748   */\n      tag_371\n      tag_138\n      jump\t// in\n    tag_371:\n        /* \"#utility.yul\":13631:13750   */\n    tag_370:\n        /* \"#utility.yul\":13789:13790   */\n      0x00\n        /* \"#utility.yul\":13814:13878   */\n      tag_372\n        /* \"#utility.yul\":13870:13877   */\n      dup5\n        /* \"#utility.yul\":13861:13867   */\n      dup3\n        /* \"#utility.yul\":13850:13859   */\n      dup6\n        /* \"#utility.yul\":13846:13868   */\n      add\n        /* \"#utility.yul\":13814:13878   */\n      tag_181\n      jump\t// in\n    tag_372:\n        /* \"#utility.yul\":13804:13878   */\n      swap2\n      pop\n        /* \"#utility.yul\":13760:13888   */\n      pop\n        /* \"#utility.yul\":13544:13895   */\n      swap3\n      swap2\n      pop\n      pop\n      jump\t// out\n        /* \"#utility.yul\":13901:14049   */\n    tag_182:\n        /* \"#utility.yul\":14003:14014   */\n      0x00\n        /* \"#utility.yul\":14040:14043   */\n      dup2\n        /* \"#utility.yul\":14025:14043   */\n      swap1\n      pop\n        /* \"#utility.yul\":13901:14049   */\n      swap3\n      swap2\n      pop\n      pop\n      jump\t// out\n        /* \"#utility.yul\":14079:14409   */\n    tag_183:\n        /* \"#utility.yul\":14195:14198   */\n      0x00\n        /* \"#utility.yul\":14216:14305   */\n      tag_375\n        /* \"#utility.yul\":14298:14304   */\n      dup4\n        /* \"#utility.yul\":14293:14296   */\n      dup6\n        /* \"#utility.yul\":14216:14305   */\n      tag_182\n      jump\t// in\n    tag_375:\n        /* \"#utility.yul\":14209:14305   */\n      swap4\n      pop\n        /* \"#utility.yul\":14315:14371   */\n      tag_376\n        /* \"#utility.yul\":14364:14370   */\n      dup4\n        /* \"#utility.yul\":14359:14362   */\n      dup6\n        /* \"#utility.yul\":14352:14357   */\n      dup5\n        /* \"#utility.yul\":14315:14371   */\n      tag_175\n      jump\t// in\n    tag_376:\n        /* \"#utility.yul\":14396:14402   */\n      dup3\n        /* \"#utility.yul\":14391:14394   */\n      dup5\n        /* \"#utility.yul\":14387:14403   */\n      add\n        /* \"#utility.yul\":14380:14403   */\n      swap1\n      pop\n        /* \"#utility.yul\":14079:14409   */\n      swap4\n      swap3\n      pop\n      pop\n      pop\n      jump\t// out\n        /* \"#utility.yul\":14415:14710   */\n    tag_78:\n        /* \"#utility.yul\":14557:14560   */\n      0x00\n        /* \"#utility.yul\":14579:14684   */\n      tag_378\n        /* \"#utility.yul\":14680:14683   */\n      dup3\n        /* \"#utility.yul\":14671:14677   */\n      dup5\n        /* \"#utility.yul\":14663:14669   */\n      dup7\n        /* \"#utility.yul\":14579:14684   */\n      tag_183\n      jump\t// in\n    tag_378:\n        /* \"#utility.yul\":14572:14684   */\n      swap2\n      pop\n        /* \"#utility.yul\":14701:14704   */\n      dup2\n        /* \"#utility.yul\":14694:14704   */\n      swap1\n      pop\n        /* \"#utility.yul\":14415:14710   */\n      swap4\n      swap3\n      pop\n      pop\n      pop\n      jump\t// out\n        /* \"#utility.yul\":14716:14896   */\n    tag_184:\n        /* \"#utility.yul\":14764:14841   */\n      0x4e487b7100000000000000000000000000000000000000000000000000000000\n        /* \"#utility.yul\":14761:14762   */\n      0x00\n        /* \"#utility.yul\":14754:14842   */\n      mstore\n        /* \"#utility.yul\":14861:14865   */\n      0x22\n        /* \"#utility.yul\":14858:14859   */\n      0x04\n        /* \"#utility.yul\":14851:14866   */\n      mstore\n        /* \"#utility.yul\":14885:14889   */\n      0x24\n        /* \"#utility.yul\":14882:14883   */\n      0x00\n        /* \"#utility.yul\":14875:14890   */\n      revert\n        /* \"#utility.yul\":14902:15222   */\n    tag_80:\n        /* \"#utility.yul\":14946:14952   */\n      0x00\n        /* \"#utility.yul\":14983:14984   */\n      0x02\n        /* \"#utility.yul\":14977:14981   */\n      dup3\n        /* \"#utility.yul\":14973:14985   */\n      div\n        /* \"#utility.yul\":14963:14985   */\n      swap1\n      pop\n        /* \"#utility.yul\":15030:15031   */\n      0x01\n        /* \"#utility.yul\":15024:15028   */\n      dup3\n        /* \"#utility.yul\":15020:15032   */\n      and\n        /* \"#utility.yul\":15051:15069   */\n      dup1\n        /* \"#utility.yul\":15041:15122   */\n      tag_381\n      jumpi\n        /* \"#utility.yul\":15107:15111   */\n      0x7f\n        /* \"#utility.yul\":15099:15105   */\n      dup3\n        /* \"#utility.yul\":15095:15112   */\n      and\n        /* \"#utility.yul\":15085:15112   */\n      swap2\n      pop\n        /* \"#utility.yul\":15041:15122   */\n    tag_381:\n        /* \"#utility.yul\":15169:15171   */\n      0x20\n        /* \"#utility.yul\":15161:15167   */\n      dup3\n        /* \"#utility.yul\":15158:15172   */\n      lt\n        /* \"#utility.yul\":15138:15156   */\n      dup2\n        /* \"#utility.yul\":15135:15173   */\n      sub\n        /* \"#utility.yul\":15132:15216   */\n      tag_382\n      jumpi\n        /* \"#utility.yul\":15188:15206   */\n      tag_383\n      tag_184\n      jump\t// in\n    tag_383:\n        /* \"#utility.yul\":15132:15216   */\n    tag_382:\n        /* \"#utility.yul\":14953:15222   */\n      pop\n        /* \"#utility.yul\":14902:15222   */\n      swap2\n      swap1\n      pop\n      jump\t// out\n        /* \"#utility.yul\":15228:15344   */\n    tag_185:\n        /* \"#utility.yul\":15298:15319   */\n      tag_385\n        /* \"#utility.yul\":15313:15318   */\n      dup2\n        /* \"#utility.yul\":15298:15319   */\n      tag_161\n      jump\t// in\n    tag_385:\n        /* \"#utility.yul\":15291:15296   */\n      dup2\n        /* \"#utility.yul\":15288:15320   */\n      eq\n        /* \"#utility.yul\":15278:15338   */\n      tag_386\n      jumpi\n        /* \"#utility.yul\":15334:15335   */\n      0x00\n        /* \"#utility.yul\":15331:15332   */\n      dup1\n        /* \"#utility.yul\":15324:15336   */\n      revert\n        /* \"#utility.yul\":15278:15338   */\n    tag_386:\n        /* \"#utility.yul\":15228:15344   */\n      pop\n      jump\t// out\n        /* \"#utility.yul\":15350:15487   */\n    tag_186:\n        /* \"#utility.yul\":15404:15409   */\n      0x00\n        /* \"#utility.yul\":15435:15441   */\n      dup2\n        /* \"#utility.yul\":15429:15442   */\n      mload\n        /* \"#utility.yul\":15420:15442   */\n      swap1\n      pop\n        /* \"#utility.yul\":15451:15481   */\n      tag_388\n        /* \"#utility.yul\":15475:15480   */\n      dup2\n        /* \"#utility.yul\":15451:15481   */\n      tag_185\n      jump\t// in\n    tag_388:\n        /* \"#utility.yul\":15350:15487   */\n      swap3\n      swap2\n      pop\n      pop\n      jump\t// out\n        /* \"#utility.yul\":15493:15838   */\n    tag_90:\n        /* \"#utility.yul\":15560:15566   */\n      0x00\n        /* \"#utility.yul\":15609:15611   */\n      0x20\n        /* \"#utility.yul\":15597:15606   */\n      dup3\n        /* \"#utility.yul\":15588:15595   */\n      dup5\n        /* \"#utility.yul\":15584:15607   */\n      sub\n        /* \"#utility.yul\":15580:15612   */\n      slt\n        /* \"#utility.yul\":15577:15696   */\n      iszero\n      tag_390\n      jumpi\n        /* \"#utility.yul\":15615:15694   */\n      tag_391\n      tag_138\n      jump\t// in\n    tag_391:\n        /* \"#utility.yul\":15577:15696   */\n    tag_390:\n        /* \"#utility.yul\":15735:15736   */\n      0x00\n        /* \"#utility.yul\":15760:15821   */\n      tag_392\n        /* \"#utility.yul\":15813:15820   */\n      dup5\n        /* \"#utility.yul\":15804:15810   */\n      dup3\n        /* \"#utility.yul\":15793:15802   */\n      dup6\n        /* \"#utility.yul\":15789:15811   */\n      add\n        /* \"#utility.yul\":15760:15821   */\n      tag_186\n      jump\t// in\n    tag_392:\n        /* \"#utility.yul\":15750:15821   */\n      swap2\n      pop\n        /* \"#utility.yul\":15706:15831   */\n      pop\n        /* \"#utility.yul\":15493:15838   */\n      swap3\n      swap2\n      pop\n      pop\n      jump\t// out\n        /* \"#utility.yul\":15844:16004   */\n    tag_187:\n        /* \"#utility.yul\":15984:15996   */\n      0x4f6e6c79206f776e657200000000000000000000000000000000000000000000\n        /* \"#utility.yul\":15980:15981   */\n      0x00\n        /* \"#utility.yul\":15972:15978   */\n      dup3\n        /* \"#utility.yul\":15968:15982   */\n      add\n        /* \"#utility.yul\":15961:15997   */\n      mstore\n        /* \"#utility.yul\":15844:16004   */\n      pop\n      jump\t// out\n        /* \"#utility.yul\":16010:16376   */\n    tag_188:\n        /* \"#utility.yul\":16152:16155   */\n      0x00\n        /* \"#utility.yul\":16173:16240   */\n      tag_395\n        /* \"#utility.yul\":16237:16239   */\n      0x0a\n        /* \"#utility.yul\":16232:16235   */\n      dup4\n        /* \"#utility.yul\":16173:16240   */\n      tag_151\n      jump\t// in\n    tag_395:\n        /* \"#utility.yul\":16166:16240   */\n      swap2\n      pop\n        /* \"#utility.yul\":16249:16342   */\n      tag_396\n        /* \"#utility.yul\":16338:16341   */\n      dup3\n        /* \"#utility.yul\":16249:16342   */\n      tag_187\n      jump\t// in\n    tag_396:\n        /* \"#utility.yul\":16367:16369   */\n      0x20\n        /* \"#utility.yul\":16362:16365   */\n      dup3\n        /* \"#utility.yul\":16358:16370   */\n      add\n        /* \"#utility.yul\":16351:16370   */\n      swap1\n      pop\n        /* \"#utility.yul\":16010:16376   */\n      swap2\n      swap1\n      pop\n      jump\t// out\n        /* \"#utility.yul\":16382:16801   */\n    tag_94:\n        /* \"#utility.yul\":16548:16552   */\n      0x00\n        /* \"#utility.yul\":16586:16588   */\n      0x20\n        /* \"#utility.yul\":16575:16584   */\n      dup3\n        /* \"#utility.yul\":16571:16589   */\n      add\n        /* \"#utility.yul\":16563:16589   */\n      swap1\n      pop\n        /* \"#utility.yul\":16635:16644   */\n      dup2\n        /* \"#utility.yul\":16629:16633   */\n      dup2\n        /* \"#utility.yul\":16625:16645   */\n      sub\n        /* \"#utility.yul\":16621:16622   */\n      0x00\n        /* \"#utility.yul\":16610:16619   */\n      dup4\n        /* \"#utility.yul\":16606:16623   */\n      add\n        /* \"#utility.yul\":16599:16646   */\n      mstore\n        /* \"#utility.yul\":16663:16794   */\n      tag_398\n        /* \"#utility.yul\":16789:16793   */\n      dup2\n        /* \"#utility.yul\":16663:16794   */\n      tag_188\n      jump\t// in\n    tag_398:\n        /* \"#utility.yul\":16655:16794   */\n      swap1\n      pop\n        /* \"#utility.yul\":16382:16801   */\n      swap2\n      swap1\n      pop\n      jump\t// out\n        /* \"#utility.yul\":16807:17207   */\n    tag_114:\n        /* \"#utility.yul\":16962:16966   */\n      0x00\n        /* \"#utility.yul\":17000:17002   */\n      0x40\n        /* \"#utility.yul\":16989:16998   */\n      dup3\n        /* \"#utility.yul\":16985:17003   */\n      add\n        /* \"#utility.yul\":16977:17003   */\n      swap1\n      pop\n        /* \"#utility.yul\":17013:17101   */\n      tag_400\n        /* \"#utility.yul\":17098:17099   */\n      0x00\n        /* \"#utility.yul\":17087:17096   */\n      dup4\n        /* \"#utility.yul\":17083:17100   */\n      add\n        /* \"#utility.yul\":17074:17080   */\n      dup6\n        /* \"#utility.yul\":17013:17101   */\n      tag_160\n      jump\t// in\n    tag_400:\n        /* \"#utility.yul\":17111:17200   */\n      tag_401\n        /* \"#utility.yul\":17196:17198   */\n      0x20\n        /* \"#utility.yul\":17185:17194   */\n      dup4\n        /* \"#utility.yul\":17181:17199   */\n      add\n        /* \"#utility.yul\":17172:17178   */\n      dup5\n        /* \"#utility.yul\":17111:17200   */\n      tag_160\n      jump\t// in\n    tag_401:\n        /* \"#utility.yul\":16807:17207   */\n      swap4\n      swap3\n      pop\n      pop\n      pop\n      jump\t// out\n        /* \"#utility.yul\":17213:17385   */\n    tag_189:\n        /* \"#utility.yul\":17353:17377   */\n      0x7265717565737420646f6573206e6f7420657869737400000000000000000000\n        /* \"#utility.yul\":17349:17350   */\n      0x00\n        /* \"#utility.yul\":17341:17347   */\n      dup3\n        /* \"#utility.yul\":17337:17351   */\n      add\n        /* \"#utility.yul\":17330:17378   */\n      mstore\n        /* \"#utility.yul\":17213:17385   */\n      pop\n      jump\t// out\n        /* \"#utility.yul\":17391:17757   */\n    tag_190:\n        /* \"#utility.yul\":17533:17536   */\n      0x00\n        /* \"#utility.yul\":17554:17621   */\n      tag_404\n        /* \"#utility.yul\":17618:17620   */\n      0x16\n        /* \"#utility.yul\":17613:17616   */\n      dup4\n        /* \"#utility.yul\":17554:17621   */\n      tag_151\n      jump\t// in\n    tag_404:\n        /* \"#utility.yul\":17547:17621   */\n      swap2\n      pop\n        /* \"#utility.yul\":17630:17723   */\n      tag_405\n        /* \"#utility.yul\":17719:17722   */\n      dup3\n        /* \"#utility.yul\":17630:17723   */\n      tag_189\n      jump\t// in\n    tag_405:\n        /* \"#utility.yul\":17748:17750   */\n      0x20\n        /* \"#utility.yul\":17743:17746   */\n      dup3\n        /* \"#utility.yul\":17739:17751   */\n      add\n        /* \"#utility.yul\":17732:17751   */\n      swap1\n      pop\n        /* \"#utility.yul\":17391:17757   */\n      swap2\n      swap1\n      pop\n      jump\t// out\n        /* \"#utility.yul\":17763:18182   */\n    tag_118:\n        /* \"#utility.yul\":17929:17933   */\n      0x00\n        /* \"#utility.yul\":17967:17969   */\n      0x20\n        /* \"#utility.yul\":17956:17965   */\n      dup3\n        /* \"#utility.yul\":17952:17970   */\n      add\n        /* \"#utility.yul\":17944:17970   */\n      swap1\n      pop\n        /* \"#utility.yul\":18016:18025   */\n      dup2\n        /* \"#utility.yul\":18010:18014   */\n      dup2\n        /* \"#utility.yul\":18006:18026   */\n      sub\n        /* \"#utility.yul\":18002:18003   */\n      0x00\n        /* \"#utility.yul\":17991:18000   */\n      dup4\n        /* \"#utility.yul\":17987:18004   */\n      add\n        /* \"#utility.yul\":17980:18027   */\n      mstore\n        /* \"#utility.yul\":18044:18175   */\n      tag_407\n        /* \"#utility.yul\":18170:18174   */\n      dup2\n        /* \"#utility.yul\":18044:18175   */\n      tag_190\n      jump\t// in\n    tag_407:\n        /* \"#utility.yul\":18036:18175   */\n      swap1\n      pop\n        /* \"#utility.yul\":17763:18182   */\n      swap2\n      swap1\n      pop\n      jump\t// out\n        /* \"#utility.yul\":18188:18284   */\n    tag_191:\n        /* \"#utility.yul\":18246:18252   */\n      0x00\n        /* \"#utility.yul\":18274:18277   */\n      dup3\n        /* \"#utility.yul\":18264:18277   */\n      swap1\n      pop\n        /* \"#utility.yul\":18188:18284   */\n      swap3\n      swap2\n      pop\n      pop\n      jump\t// out\n        /* \"#utility.yul\":18290:18430   */\n    tag_192:\n        /* \"#utility.yul\":18338:18342   */\n      0x00\n        /* \"#utility.yul\":18361:18364   */\n      dup2\n        /* \"#utility.yul\":18353:18364   */\n      swap1\n      pop\n        /* \"#utility.yul\":18384:18387   */\n      dup2\n        /* \"#utility.yul\":18381:18382   */\n      0x00\n        /* \"#utility.yul\":18374:18388   */\n      mstore\n        /* \"#utility.yul\":18418:18422   */\n      0x20\n        /* \"#utility.yul\":18415:18416   */\n      0x00\n        /* \"#utility.yul\":18405:18423   */\n      keccak256\n        /* \"#utility.yul\":18397:18423   */\n      swap1\n      pop\n        /* \"#utility.yul\":18290:18430   */\n      swap2\n      swap1\n      pop\n      jump\t// out\n        /* \"#utility.yul\":18436:18529   */\n    tag_193:\n        /* \"#utility.yul\":18473:18479   */\n      0x00\n        /* \"#utility.yul\":18520:18522   */\n      0x20\n        /* \"#utility.yul\":18515:18517   */\n      0x1f\n        /* \"#utility.yul\":18508:18513   */\n      dup4\n        /* \"#utility.yul\":18504:18518   */\n      add\n        /* \"#utility.yul\":18500:18523   */\n      div\n        /* \"#utility.yul\":18490:18523   */\n      swap1\n      pop\n        /* \"#utility.yul\":18436:18529   */\n      swap2\n      swap1\n      pop\n      jump\t// out\n        /* \"#utility.yul\":18535:18642   */\n    tag_194:\n        /* \"#utility.yul\":18579:18587   */\n      0x00\n        /* \"#utility.yul\":18629:18634   */\n      dup3\n        /* \"#utility.yul\":18623:18627   */\n      dup3\n        /* \"#utility.yul\":18619:18635   */\n      shl\n        /* \"#utility.yul\":18598:18635   */\n      swap1\n      pop\n        /* \"#utility.yul\":18535:18642   */\n      swap3\n      swap2\n      pop\n      pop\n      jump\t// out\n        /* \"#utility.yul\":18648:19041   */\n    tag_195:\n        /* \"#utility.yul\":18717:18723   */\n      0x00\n        /* \"#utility.yul\":18767:18768   */\n      0x08\n        /* \"#utility.yul\":18755:18765   */\n      dup4\n        /* \"#utility.yul\":18751:18769   */\n      mul\n        /* \"#utility.yul\":18790:18887   */\n      tag_413\n        /* \"#utility.yul\":18820:18886   */\n      0xffffffffffffffffffffffffffffffffffffffffffffffffffffffffffffffff\n        /* \"#utility.yul\":18809:18818   */\n      dup3\n        /* \"#utility.yul\":18790:18887   */\n      tag_194\n      jump\t// in\n    tag_413:\n        /* \"#utility.yul\":18908:18947   */\n      tag_414\n        /* \"#utility.yul\":18938:18946   */\n      dup7\n        /* \"#utility.yul\":18927:18936   */\n      dup4\n        /* \"#utility.yul\":18908:18947   */\n      tag_194\n      jump\t// in\n    tag_414:\n        /* \"#utility.yul\":18896:18947   */\n      swap6\n      pop\n        /* \"#utility.yul\":18980:18984   */\n      dup1\n        /* \"#utility.yul\":18976:18985   */\n      not\n        /* \"#utility.yul\":18969:18974   */\n      dup5\n        /* \"#utility.yul\":18965:18986   */\n      and\n        /* \"#utility.yul\":18956:18986   */\n      swap4\n      pop\n        /* \"#utility.yul\":19029:19033   */\n      dup1\n        /* \"#utility.yul\":19019:19027   */\n      dup7\n        /* \"#utility.yul\":19015:19034   */\n      and\n        /* \"#utility.yul\":19008:19013   */\n      dup5\n        /* \"#utility.yul\":19005:19035   */\n      or\n        /* \"#utility.yul\":18995:19035   */\n      swap3\n      pop\n        /* \"#utility.yul\":18724:19041   */\n      pop\n      pop\n        /* \"#utility.yul\":18648:19041   */\n      swap4\n      swap3\n      pop\n      pop\n      pop\n      jump\t// out\n        /* \"#utility.yul\":19047:19189   */\n    tag_196:\n        /* \"#utility.yul\":19097:19106   */\n      0x00\n        /* \"#utility.yul\":19130:19183   */\n      tag_416\n        /* \"#utility.yul\":19148:19182   */\n      tag_417\n        /* \"#utility.yul\":19157:19181   */\n      tag_418\n        /* \"#utility.yul\":19175:19180   */\n      dup5\n        /* \"#utility.yul\":19157:19181   */\n      tag_140\n      jump\t// in\n    tag_418:\n        /* \"#utility.yul\":19148:19182   */\n      tag_156\n      jump\t// in\n    tag_417:\n        /* \"#utility.yul\":19130:19183   */\n      tag_140\n      jump\t// in\n    tag_416:\n        /* \"#utility.yul\":19117:19183   */\n      swap1\n      pop\n        /* \"#utility.yul\":19047:19189   */\n      swap2\n      swap1\n      pop\n      jump\t// out\n        /* \"#utility.yul\":19195:19270   */\n    tag_197:\n        /* \"#utility.yul\":19238:19241   */\n      0x00\n        /* \"#utility.yul\":19259:19264   */\n      dup2\n        /* \"#utility.yul\":19252:19264   */\n      swap1\n      pop\n        /* \"#utility.yul\":19195:19270   */\n      swap2\n      swap1\n      pop\n      jump\t// out\n        /* \"#utility.yul\":19276:19545   */\n    tag_198:\n        /* \"#utility.yul\":19386:19425   */\n      tag_421\n        /* \"#utility.yul\":19417:19424   */\n      dup4\n        /* \"#utility.yul\":19386:19425   */\n      tag_196\n      jump\t// in\n    tag_421:\n        /* \"#utility.yul\":19447:19538   */\n      tag_422\n        /* \"#utility.yul\":19496:19537   */\n      tag_423\n        /* \"#utility.yul\":19520:19536   */\n      dup3\n        /* \"#utility.yul\":19496:19537   */\n      tag_197\n      jump\t// in\n    tag_423:\n        /* \"#utility.yul\":19488:19494   */\n      dup5\n        /* \"#utility.yul\":19481:19485   */\n      dup5\n        /* \"#utility.yul\":19475:19486   */\n      sload\n        /* \"#utility.yul\":19447:19538   */\n      tag_195\n      jump\t// in\n    tag_422:\n        /* \"#utility.yul\":19441:19445   */\n      dup3\n        /* \"#utility.yul\":19434:19539   */\n      sstore\n        /* \"#utility.yul\":19352:19545   */\n      pop\n        /* \"#utility.yul\":19276:19545   */\n      pop\n      pop\n      pop\n      jump\t// out\n        /* \"#utility.yul\":19551:19624   */\n    tag_199:\n        /* \"#utility.yul\":19596:19599   */\n      0x00\n        /* \"#utility.yul\":19551:19624   */\n      swap1\n      jump\t// out\n        /* \"#utility.yul\":19630:19819   */\n    tag_200:\n        /* \"#utility.yul\":19707:19739   */\n      tag_426\n      tag_199\n      jump\t// in\n    tag_426:\n        /* \"#utility.yul\":19748:19813   */\n      tag_427\n        /* \"#utility.yul\":19806:19812   */\n      dup2\n        /* \"#utility.yul\":19798:19804   */\n      dup5\n        /* \"#utility.yul\":19792:19796   */\n      dup5\n        /* \"#utility.yul\":19748:19813   */\n      tag_198\n      jump\t// in\n    tag_427:\n        /* \"#utility.yul\":19683:19819   */\n      pop\n        /* \"#utility.yul\":19630:19819   */\n      pop\n      pop\n      jump\t// out\n        /* \"#utility.yul\":19825:20011   */\n    tag_201:\n        /* \"#utility.yul\":19885:20005   */\n    tag_429:\n        /* \"#utility.yul\":19902:19905   */\n      dup2\n        /* \"#utility.yul\":19895:19900   */\n      dup2\n        /* \"#utility.yul\":19892:19906   */\n      lt\n        /* \"#utility.yul\":19885:20005   */\n      iszero\n      tag_431\n      jumpi\n        /* \"#utility.yul\":19956:19995   */\n      tag_432\n        /* \"#utility.yul\":19993:19994   */\n      0x00\n        /* \"#utility.yul\":19986:19991   */\n      dup3\n        /* \"#utility.yul\":19956:19995   */\n      tag_200\n      jump\t// in\n    tag_432:\n        /* \"#utility.yul\":19929:19930   */\n      0x01\n        /* \"#utility.yul\":19922:19927   */\n      dup2\n        /* \"#utility.yul\":19918:19931   */\n      add\n        /* \"#utility.yul\":19909:19931   */\n      swap1\n      pop\n        /* \"#utility.yul\":19885:20005   */\n      jump(tag_429)\n    tag_431:\n        /* \"#utility.yul\":19825:20011   */\n      pop\n      pop\n      jump\t// out\n        /* \"#utility.yul\":20017:20558   */\n    tag_202:\n        /* \"#utility.yul\":20117:20119   */\n      0x1f\n        /* \"#utility.yul\":20112:20115   */\n      dup3\n        /* \"#utility.yul\":20109:20120   */\n      gt\n        /* \"#utility.yul\":20106:20551   */\n      iszero\n      tag_434\n      jumpi\n        /* \"#utility.yul\":20151:20188   */\n      tag_435\n        /* \"#utility.yul\":20182:20187   */\n      dup2\n        /* \"#utility.yul\":20151:20188   */\n      tag_192\n      jump\t// in\n    tag_435:\n        /* \"#utility.yul\":20234:20263   */\n      tag_436\n        /* \"#utility.yul\":20252:20262   */\n      dup5\n        /* \"#utility.yul\":20234:20263   */\n      tag_193\n      jump\t// in\n    tag_436:\n        /* \"#utility.yul\":20224:20232   */\n      dup2\n        /* \"#utility.yul\":20220:20264   */\n      add\n        /* \"#utility.yul\":20417:20419   */\n      0x20\n        /* \"#utility.yul\":20405:20415   */\n      dup6\n        /* \"#utility.yul\":20402:20420   */\n      lt\n        /* \"#utility.yul\":20399:20448   */\n      iszero\n      tag_437\n      jumpi\n        /* \"#utility.yul\":20438:20446   */\n      dup2\n        /* \"#utility.yul\":20423:20446   */\n      swap1\n      pop\n        /* \"#utility.yul\":20399:20448   */\n    tag_437:\n        /* \"#utility.yul\":20461:20541   */\n      tag_438\n        /* \"#utility.yul\":20517:20539   */\n      tag_439\n        /* \"#utility.yul\":20535:20538   */\n      dup6\n        /* \"#utility.yul\":20517:20539   */\n      tag_193\n      jump\t// in\n    tag_439:\n        /* \"#utility.yul\":20507:20515   */\n      dup4\n        /* \"#utility.yul\":20503:20540   */\n      add\n        /* \"#utility.yul\":20490:20501   */\n      dup3\n        /* \"#utility.yul\":20461:20541   */\n      tag_201\n      jump\t// in\n    tag_438:\n        /* \"#utility.yul\":20121:20551   */\n      pop\n      pop\n        /* \"#utility.yul\":20106:20551   */\n    tag_434:\n        /* \"#utility.yul\":20017:20558   */\n      pop\n      pop\n      pop\n      jump\t// out\n        /* \"#utility.yul\":20564:20681   */\n    tag_203:\n        /* \"#utility.yul\":20618:20626   */\n      0x00\n        /* \"#utility.yul\":20668:20673   */\n      dup3\n        /* \"#utility.yul\":20662:20666   */\n      dup3\n        /* \"#utility.yul\":20658:20674   */\n      shr\n        /* \"#utility.yul\":20637:20674   */\n      swap1\n      pop\n        /* \"#utility.yul\":20564:20681   */\n      swap3\n      swap2\n      pop\n      pop\n      jump\t// out\n        /* \"#utility.yul\":20687:20856   */\n    tag_204:\n        /* \"#utility.yul\":20731:20737   */\n      0x00\n        /* \"#utility.yul\":20764:20815   */\n      tag_442\n        /* \"#utility.yul\":20812:20813   */\n      0x00\n        /* \"#utility.yul\":20808:20814   */\n      not\n        /* \"#utility.yul\":20800:20805   */\n      dup5\n        /* \"#utility.yul\":20797:20798   */\n      0x08\n        /* \"#utility.yul\":20793:20806   */\n      mul\n        /* \"#utility.yul\":20764:20815   */\n      tag_203\n      jump\t// in\n    tag_442:\n        /* \"#utility.yul\":20760:20816   */\n      not\n        /* \"#utility.yul\":20845:20849   */\n      dup1\n        /* \"#utility.yul\":20839:20843   */\n      dup4\n        /* \"#utility.yul\":20835:20850   */\n      and\n        /* \"#utility.yul\":20825:20850   */\n      swap2\n      pop\n        /* \"#utility.yul\":20738:20856   */\n      pop\n        /* \"#utility.yul\":20687:20856   */\n      swap3\n      swap2\n      pop\n      pop\n      jump\t// out\n        /* \"#utility.yul\":20861:21156   */\n    tag_205:\n        /* \"#utility.yul\":20937:20941   */\n      0x00\n        /* \"#utility.yul\":21083:21112   */\n      tag_444\n        /* \"#utility.yul\":21108:21111   */\n      dup4\n        /* \"#utility.yul\":21102:21106   */\n      dup4\n        /* \"#utility.yul\":21083:21112   */\n      tag_204\n      jump\t// in\n    tag_444:\n        /* \"#utility.yul\":21075:21112   */\n      swap2\n      pop\n        /* \"#utility.yul\":21145:21148   */\n      dup3\n        /* \"#utility.yul\":21142:21143   */\n      0x02\n        /* \"#utility.yul\":21138:21149   */\n      mul\n        /* \"#utility.yul\":21132:21136   */\n      dup3\n        /* \"#utility.yul\":21129:21150   */\n      or\n        /* \"#utility.yul\":21121:21150   */\n      swap1\n      pop\n        /* \"#utility.yul\":20861:21156   */\n      swap3\n      swap2\n      pop\n      pop\n      jump\t// out\n        /* \"#utility.yul\":21161:22559   */\n    tag_120:\n        /* \"#utility.yul\":21283:21326   */\n      tag_446\n        /* \"#utility.yul\":21322:21325   */\n      dup4\n        /* \"#utility.yul\":21317:21320   */\n      dup4\n        /* \"#utility.yul\":21283:21326   */\n      tag_191\n      jump\t// in\n    tag_446:\n        /* \"#utility.yul\":21391:21409   */\n      0xffffffffffffffff\n        /* \"#utility.yul\":21383:21389   */\n      dup2\n        /* \"#utility.yul\":21380:21410   */\n      gt\n        /* \"#utility.yul\":21377:21433   */\n      iszero\n      tag_447\n      jumpi\n        /* \"#utility.yul\":21413:21431   */\n      tag_448\n      tag_171\n      jump\t// in\n    tag_448:\n        /* \"#utility.yul\":21377:21433   */\n    tag_447:\n        /* \"#utility.yul\":21457:21495   */\n      tag_449\n        /* \"#utility.yul\":21489:21493   */\n      dup3\n        /* \"#utility.yul\":21483:21494   */\n      sload\n        /* \"#utility.yul\":21457:21495   */\n      tag_80\n      jump\t// in\n    tag_449:\n        /* \"#utility.yul\":21542:21608   */\n      tag_450\n        /* \"#utility.yul\":21601:21607   */\n      dup3\n        /* \"#utility.yul\":21593:21599   */\n      dup3\n        /* \"#utility.yul\":21587:21591   */\n      dup6\n        /* \"#utility.yul\":21542:21608   */\n      tag_202\n      jump\t// in\n    tag_450:\n        /* \"#utility.yul\":21635:21636   */\n      0x00\n        /* \"#utility.yul\":21664:21666   */\n      0x1f\n        /* \"#utility.yul\":21656:21662   */\n      dup4\n        /* \"#utility.yul\":21653:21667   */\n      gt\n        /* \"#utility.yul\":21681:21682   */\n      0x01\n        /* \"#utility.yul\":21676:22307   */\n      dup2\n      eq\n      tag_452\n      jumpi\n        /* \"#utility.yul\":22351:22352   */\n      0x00\n        /* \"#utility.yul\":22368:22374   */\n      dup5\n        /* \"#utility.yul\":22365:22449   */\n      iszero\n      tag_453\n      jumpi\n        /* \"#utility.yul\":22424:22433   */\n      dup3\n        /* \"#utility.yul\":22419:22422   */\n      dup8\n        /* \"#utility.yul\":22415:22434   */\n      add\n        /* \"#utility.yul\":22402:22435   */\n      calldataload\n        /* \"#utility.yul\":22393:22435   */\n      swap1\n      pop\n        /* \"#utility.yul\":22365:22449   */\n    tag_453:\n        /* \"#utility.yul\":22475:22542   */\n      tag_454\n        /* \"#utility.yul\":22535:22541   */\n      dup6\n        /* \"#utility.yul\":22528:22533   */\n      dup3\n        /* \"#utility.yul\":22475:22542   */\n      tag_205\n      jump\t// in\n    tag_454:\n        /* \"#utility.yul\":22469:22473   */\n      dup7\n        /* \"#utility.yul\":22462:22543   */\n      sstore\n        /* \"#utility.yul\":22324:22553   */\n      pop\n        /* \"#utility.yul\":21646:22553   */\n      jump(tag_451)\n        /* \"#utility.yul\":21676:22307   */\n    tag_452:\n        /* \"#utility.yul\":21728:21732   */\n      0x1f\n        /* \"#utility.yul\":21724:21733   */\n      not\n        /* \"#utility.yul\":21716:21722   */\n      dup5\n        /* \"#utility.yul\":21712:21734   */\n      and\n        /* \"#utility.yul\":21762:21798   */\n      tag_455\n        /* \"#utility.yul\":21793:21797   */\n      dup7\n        /* \"#utility.yul\":21762:21798   */\n      tag_192\n      jump\t// in\n    tag_455:\n        /* \"#utility.yul\":21820:21821   */\n      0x00\n        /* \"#utility.yul\":21834:22049   */\n    tag_456:\n        /* \"#utility.yul\":21848:21855   */\n      dup3\n        /* \"#utility.yul\":21845:21846   */\n      dup2\n        /* \"#utility.yul\":21842:21856   */\n      lt\n        /* \"#utility.yul\":21834:22049   */\n      iszero\n      tag_458\n      jumpi\n        /* \"#utility.yul\":21934:21943   */\n      dup5\n        /* \"#utility.yul\":21929:21932   */\n      dup10\n        /* \"#utility.yul\":21925:21944   */\n      add\n        /* \"#utility.yul\":21912:21945   */\n      calldataload\n        /* \"#utility.yul\":21904:21910   */\n      dup3\n        /* \"#utility.yul\":21897:21946   */\n      sstore\n        /* \"#utility.yul\":21985:21986   */\n      0x01\n        /* \"#utility.yul\":21977:21983   */\n      dup3\n        /* \"#utility.yul\":21973:21987   */\n      add\n        /* \"#utility.yul\":21963:21987   */\n      swap2\n      pop\n        /* \"#utility.yul\":22032:22034   */\n      0x20\n        /* \"#utility.yul\":22021:22030   */\n      dup6\n        /* \"#utility.yul\":22017:22035   */\n      add\n        /* \"#utility.yul\":22004:22035   */\n      swap5\n      pop\n        /* \"#utility.yul\":21871:21875   */\n      0x20\n        /* \"#utility.yul\":21868:21869   */\n      dup2\n        /* \"#utility.yul\":21864:21876   */\n      add\n        /* \"#utility.yul\":21859:21876   */\n      swap1\n      pop\n        /* \"#utility.yul\":21834:22049   */\n      jump(tag_456)\n    tag_458:\n        /* \"#utility.yul\":22077:22083   */\n      dup7\n        /* \"#utility.yul\":22068:22075   */\n      dup4\n        /* \"#utility.yul\":22065:22084   */\n      lt\n        /* \"#utility.yul\":22062:22248   */\n      iszero\n      tag_459\n      jumpi\n        /* \"#utility.yul\":22142:22151   */\n      dup5\n        /* \"#utility.yul\":22137:22140   */\n      dup10\n        /* \"#utility.yul\":22133:22152   */\n      add\n        /* \"#utility.yul\":22120:22153   */\n      calldataload\n        /* \"#utility.yul\":22185:22233   */\n      tag_460\n        /* \"#utility.yul\":22227:22231   */\n      0x1f\n        /* \"#utility.yul\":22219:22225   */\n      dup10\n        /* \"#utility.yul\":22215:22232   */\n      and\n        /* \"#utility.yul\":22204:22213   */\n      dup3\n        /* \"#utility.yul\":22185:22233   */\n      tag_204\n      jump\t// in\n    tag_460:\n        /* \"#utility.yul\":22177:22183   */\n      dup4\n        /* \"#utility.yul\":22170:22234   */\n      sstore\n        /* \"#utility.yul\":22085:22248   */\n      pop\n        /* \"#utility.yul\":22062:22248   */\n    tag_459:\n        /* \"#utility.yul\":22294:22295   */\n      0x01\n        /* \"#utility.yul\":22290:22291   */\n      0x02\n        /* \"#utility.yul\":22282:22288   */\n      dup9\n        /* \"#utility.yul\":22278:22292   */\n      mul\n        /* \"#utility.yul\":22274:22296   */\n      add\n        /* \"#utility.yul\":22268:22272   */\n      dup9\n        /* \"#utility.yul\":22261:22297   */\n      sstore\n        /* \"#utility.yul\":21683:22307   */\n      pop\n      pop\n      pop\n        /* \"#utility.yul\":21646:22553   */\n    tag_451:\n      pop\n        /* \"#utility.yul\":21258:22559   */\n      pop\n      pop\n      pop\n        /* \"#utility.yul\":21161:22559   */\n      pop\n      pop\n      pop\n      jump\t// out\n        /* \"#utility.yul\":22565:22710   */\n    tag_206:\n        /* \"#utility.yul\":22618:22622   */\n      0x00\n        /* \"#utility.yul\":22641:22644   */\n      dup2\n        /* \"#utility.yul\":22633:22644   */\n      swap1\n      pop\n        /* \"#utility.yul\":22664:22667   */\n      dup2\n        /* \"#utility.yul\":22661:22662   */\n      0x00\n        /* \"#utility.yul\":22654:22668   */\n      mstore\n        /* \"#utility.yul\":22698:22702   */\n      0x20\n        /* \"#utility.yul\":22695:22696   */\n      0x00\n        /* \"#utility.yul\":22685:22703   */\n      keccak256\n        /* \"#utility.yul\":22677:22703   */\n      swap1\n      pop\n        /* \"#utility.yul\":22565:22710   */\n      swap2\n      swap1\n      pop\n      jump\t// out\n        /* \"#utility.yul\":22740:23622   */\n    tag_207:\n        /* \"#utility.yul\":22847:22850   */\n      0x00\n        /* \"#utility.yul\":22884:22889   */\n      dup2\n        /* \"#utility.yul\":22878:22890   */\n      sload\n        /* \"#utility.yul\":22913:22949   */\n      tag_463\n        /* \"#utility.yul\":22939:22948   */\n      dup2\n        /* \"#utility.yul\":22913:22949   */\n      tag_80\n      jump\t// in\n    tag_463:\n        /* \"#utility.yul\":22965:23054   */\n      tag_464\n        /* \"#utility.yul\":23047:23053   */\n      dup2\n        /* \"#utility.yul\":23042:23045   */\n      dup7\n        /* \"#utility.yul\":22965:23054   */\n      tag_182\n      jump\t// in\n    tag_464:\n        /* \"#utility.yul\":22958:23054   */\n      swap5\n      pop\n        /* \"#utility.yul\":23085:23086   */\n      0x01\n        /* \"#utility.yul\":23074:23083   */\n      dup3\n        /* \"#utility.yul\":23070:23087   */\n      and\n        /* \"#utility.yul\":23101:23102   */\n      0x00\n        /* \"#utility.yul\":23096:23262   */\n      dup2\n      eq\n      tag_466\n      jumpi\n        /* \"#utility.yul\":23276:23277   */\n      0x01\n        /* \"#utility.yul\":23271:23616   */\n      dup2\n      eq\n      tag_467\n      jumpi\n        /* \"#utility.yul\":23063:23616   */\n      jump(tag_465)\n        /* \"#utility.yul\":23096:23262   */\n    tag_466:\n        /* \"#utility.yul\":23180:23184   */\n      0xff\n        /* \"#utility.yul\":23176:23185   */\n      not\n        /* \"#utility.yul\":23165:23174   */\n      dup4\n        /* \"#utility.yul\":23161:23186   */\n      and\n        /* \"#utility.yul\":23156:23159   */\n      dup7\n        /* \"#utility.yul\":23149:23187   */\n      mstore\n        /* \"#utility.yul\":23242:23248   */\n      dup2\n        /* \"#utility.yul\":23235:23249   */\n      iszero\n        /* \"#utility.yul\":23228:23250   */\n      iszero\n        /* \"#utility.yul\":23220:23226   */\n      dup3\n        /* \"#utility.yul\":23216:23251   */\n      mul\n        /* \"#utility.yul\":23211:23214   */\n      dup7\n        /* \"#utility.yul\":23207:23252   */\n      add\n        /* \"#utility.yul\":23200:23252   */\n      swap4\n      pop\n        /* \"#utility.yul\":23096:23262   */\n      jump(tag_465)\n        /* \"#utility.yul\":23271:23616   */\n    tag_467:\n        /* \"#utility.yul\":23338:23380   */\n      tag_468\n        /* \"#utility.yul\":23374:23379   */\n      dup6\n        /* \"#utility.yul\":23338:23380   */\n      tag_206\n      jump\t// in\n    tag_468:\n        /* \"#utility.yul\":23402:23403   */\n      0x00\n        /* \"#utility.yul\":23416:23570   */\n    tag_469:\n        /* \"#utility.yul\":23430:23436   */\n      dup4\n        /* \"#utility.yul\":23427:23428   */\n      dup2\n        /* \"#utility.yul\":23424:23437   */\n      lt\n        /* \"#utility.yul\":23416:23570   */\n      iszero\n      tag_471\n      jumpi\n        /* \"#utility.yul\":23504:23511   */\n      dup2\n        /* \"#utility.yul\":23498:23512   */\n      sload\n        /* \"#utility.yul\":23494:23495   */\n      dup2\n        /* \"#utility.yul\":23489:23492   */\n      dup10\n        /* \"#utility.yul\":23485:23496   */\n      add\n        /* \"#utility.yul\":23478:23513   */\n      mstore\n        /* \"#utility.yul\":23554:23555   */\n      0x01\n        /* \"#utility.yul\":23545:23552   */\n      dup3\n        /* \"#utility.yul\":23541:23556   */\n      add\n        /* \"#utility.yul\":23530:23556   */\n      swap2\n      pop\n        /* \"#utility.yul\":23452:23456   */\n      0x20\n        /* \"#utility.yul\":23449:23450   */\n      dup2\n        /* \"#utility.yul\":23445:23457   */\n      add\n        /* \"#utility.yul\":23440:23457   */\n      swap1\n      pop\n        /* \"#utility.yul\":23416:23570   */\n      jump(tag_469)\n    tag_471:\n        /* \"#utility.yul\":23599:23605   */\n      dup4\n        /* \"#utility.yul\":23594:23597   */\n      dup9\n        /* \"#utility.yul\":23590:23606   */\n      add\n        /* \"#utility.yul\":23583:23606   */\n      swap6\n      pop\n        /* \"#utility.yul\":23278:23616   */\n      pop\n      pop\n        /* \"#utility.yul\":23063:23616   */\n    tag_465:\n      pop\n        /* \"#utility.yul\":22851:23622   */\n      pop\n      pop\n        /* \"#utility.yul\":22740:23622   */\n      swap3\n      swap2\n      pop\n      pop\n      jump\t// out\n        /* \"#utility.yul\":23628:23905   */\n    tag_122:\n        /* \"#utility.yul\":23761:23764   */\n      0x00\n        /* \"#utility.yul\":23783:23879   */\n      tag_473\n        /* \"#utility.yul\":23875:23878   */\n      dup3\n        /* \"#utility.yul\":23866:23872   */\n      dup5\n        /* \"#utility.yul\":23783:23879   */\n      tag_207\n      jump\t// in\n    tag_473:\n        /* \"#utility.yul\":23776:23879   */\n      swap2\n      pop\n        /* \"#utility.yul\":23896:23899   */\n      dup2\n        /* \"#utility.yul\":23889:23899   */\n      swap1\n      pop\n        /* \"#utility.yul\":23628:23905   */\n      swap3\n      swap2\n      pop\n      pop\n      jump\t// out\n        /* \"#utility.yul\":23911:24008   */\n    tag_208:\n        /* \"#utility.yul\":23970:23976   */\n      0x00\n        /* \"#utility.yul\":23998:24001   */\n      dup3\n        /* \"#utility.yul\":23988:24001   */\n      swap1\n      pop\n        /* \"#utility.yul\":23911:24008   */\n      swap3\n      swap2\n      pop\n      pop\n      jump\t// out\n        /* \"#utility.yul\":24014:24155   */\n    tag_209:\n        /* \"#utility.yul\":24063:24067   */\n      0x00\n        /* \"#utility.yul\":24086:24089   */\n      dup2\n        /* \"#utility.yul\":24078:24089   */\n      swap1\n      pop\n        /* \"#utility.yul\":24109:24112   */\n      dup2\n        /* \"#utility.yul\":24106:24107   */\n      0x00\n        /* \"#utility.yul\":24099:24113   */\n      mstore\n        /* \"#utility.yul\":24143:24147   */\n      0x20\n        /* \"#utility.yul\":24140:24141   */\n      0x00\n        /* \"#utility.yul\":24130:24148   */\n      keccak256\n        /* \"#utility.yul\":24122:24148   */\n      swap1\n      pop\n        /* \"#utility.yul\":24014:24155   */\n      swap2\n      swap1\n      pop\n      jump\t// out\n        /* \"#utility.yul\":24161:24704   */\n    tag_210:\n        /* \"#utility.yul\":24262:24264   */\n      0x1f\n        /* \"#utility.yul\":24257:24260   */\n      dup3\n        /* \"#utility.yul\":24254:24265   */\n      gt\n        /* \"#utility.yul\":24251:24697   */\n      iszero\n      tag_477\n      jumpi\n        /* \"#utility.yul\":24296:24334   */\n      tag_478\n        /* \"#utility.yul\":24328:24333   */\n      dup2\n        /* \"#utility.yul\":24296:24334   */\n      tag_209\n      jump\t// in\n    tag_478:\n        /* \"#utility.yul\":24380:24409   */\n      tag_479\n        /* \"#utility.yul\":24398:24408   */\n      dup5\n        /* \"#utility.yul\":24380:24409   */\n      tag_193\n      jump\t// in\n    tag_479:\n        /* \"#utility.yul\":24370:24378   */\n      dup2\n        /* \"#utility.yul\":24366:24410   */\n      add\n        /* \"#utility.yul\":24563:24565   */\n      0x20\n        /* \"#utility.yul\":24551:24561   */\n      dup6\n        /* \"#utility.yul\":24548:24566   */\n      lt\n        /* \"#utility.yul\":24545:24594   */\n      iszero\n      tag_480\n      jumpi\n        /* \"#utility.yul\":24584:24592   */\n      dup2\n        /* \"#utility.yul\":24569:24592   */\n      swap1\n      pop\n        /* \"#utility.yul\":24545:24594   */\n    tag_480:\n        /* \"#utility.yul\":24607:24687   */\n      tag_481\n        /* \"#utility.yul\":24663:24685   */\n      tag_482\n        /* \"#utility.yul\":24681:24684   */\n      dup6\n        /* \"#utility.yul\":24663:24685   */\n      tag_193\n      jump\t// in\n    tag_482:\n        /* \"#utility.yul\":24653:24661   */\n      dup4\n        /* \"#utility.yul\":24649:24686   */\n      add\n        /* \"#utility.yul\":24636:24647   */\n      dup3\n        /* \"#utility.yul\":24607:24687   */\n      tag_201\n      jump\t// in\n    tag_481:\n        /* \"#utility.yul\":24266:24697   */\n      pop\n      pop\n        /* \"#utility.yul\":24251:24697   */\n    tag_477:\n        /* \"#utility.yul\":24161:24704   */\n      pop\n      pop\n      pop\n      jump\t// out\n        /* \"#utility.yul\":24710:26113   */\n    tag_124:\n        /* \"#utility.yul\":24834:24878   */\n      tag_484\n        /* \"#utility.yul\":24874:24877   */\n      dup4\n        /* \"#utility.yul\":24869:24872   */\n      dup4\n        /* \"#utility.yul\":24834:24878   */\n      tag_208\n      jump\t// in\n    tag_484:\n        /* \"#utility.yul\":24943:24961   */\n      0xffffffffffffffff\n        /* \"#utility.yul\":24935:24941   */\n      dup2\n        /* \"#utility.yul\":24932:24962   */\n      gt\n        /* \"#utility.yul\":24929:24985   */\n      iszero\n      tag_485\n      jumpi\n        /* \"#utility.yul\":24965:24983   */\n      tag_486\n      tag_171\n      jump\t// in\n    tag_486:\n        /* \"#utility.yul\":24929:24985   */\n    tag_485:\n        /* \"#utility.yul\":25009:25047   */\n      tag_487\n        /* \"#utility.yul\":25041:25045   */\n      dup3\n        /* \"#utility.yul\":25035:25046   */\n      sload\n        /* \"#utility.yul\":25009:25047   */\n      tag_80\n      jump\t// in\n    tag_487:\n        /* \"#utility.yul\":25094:25161   */\n      tag_488\n        /* \"#utility.yul\":25154:25160   */\n      dup3\n        /* \"#utility.yul\":25146:25152   */\n      dup3\n        /* \"#utility.yul\":25140:25144   */\n      dup6\n        /* \"#utility.yul\":25094:25161   */\n      tag_210\n      jump\t// in\n    tag_488:\n        /* \"#utility.yul\":25188:25189   */\n      0x00\n        /* \"#utility.yul\":25217:25219   */\n      0x1f\n        /* \"#utility.yul\":25209:25215   */\n      dup4\n        /* \"#utility.yul\":25206:25220   */\n      gt\n        /* \"#utility.yul\":25234:25235   */\n      0x01\n        /* \"#utility.yul\":25229:25861   */\n      dup2\n      eq\n      tag_490\n      jumpi\n        /* \"#utility.yul\":25905:25906   */\n      0x00\n        /* \"#utility.yul\":25922:25928   */\n      dup5\n        /* \"#utility.yul\":25919:26003   */\n      iszero\n      tag_491\n      jumpi\n        /* \"#utility.yul\":25978:25987   */\n      dup3\n        /* \"#utility.yul\":25973:25976   */\n      dup8\n        /* \"#utility.yul\":25969:25988   */\n      add\n        /* \"#utility.yul\":25956:25989   */\n      calldataload\n        /* \"#utility.yul\":25947:25989   */\n      swap1\n      pop\n        /* \"#utility.yul\":25919:26003   */\n    tag_491:\n        /* \"#utility.yul\":26029:26096   */\n      tag_492\n        /* \"#utility.yul\":26089:26095   */\n      dup6\n        /* \"#utility.yul\":26082:26087   */\n      dup3\n        /* \"#utility.yul\":26029:26096   */\n      tag_205\n      jump\t// in\n    tag_492:\n        /* \"#utility.yul\":26023:26027   */\n      dup7\n        /* \"#utility.yul\":26016:26097   */\n      sstore\n        /* \"#utility.yul\":25878:26107   */\n      pop\n        /* \"#utility.yul\":25199:26107   */\n      jump(tag_489)\n        /* \"#utility.yul\":25229:25861   */\n    tag_490:\n        /* \"#utility.yul\":25281:25285   */\n      0x1f\n        /* \"#utility.yul\":25277:25286   */\n      not\n        /* \"#utility.yul\":25269:25275   */\n      dup5\n        /* \"#utility.yul\":25265:25287   */\n      and\n        /* \"#utility.yul\":25315:25352   */\n      tag_493\n        /* \"#utility.yul\":25347:25351   */\n      dup7\n        /* \"#utility.yul\":25315:25352   */\n      tag_209\n      jump\t// in\n    tag_493:\n        /* \"#utility.yul\":25374:25375   */\n      0x00\n        /* \"#utility.yul\":25388:25603   */\n    tag_494:\n        /* \"#utility.yul\":25402:25409   */\n      dup3\n        /* \"#utility.yul\":25399:25400   */\n      dup2\n        /* \"#utility.yul\":25396:25410   */\n      lt\n        /* \"#utility.yul\":25388:25603   */\n      iszero\n      tag_496\n      jumpi\n        /* \"#utility.yul\":25488:25497   */\n      dup5\n        /* \"#utility.yul\":25483:25486   */\n      dup10\n        /* \"#utility.yul\":25479:25498   */\n      add\n        /* \"#utility.yul\":25466:25499   */\n      calldataload\n        /* \"#utility.yul\":25458:25464   */\n      dup3\n        /* \"#utility.yul\":25451:25500   */\n      sstore\n        /* \"#utility.yul\":25539:25540   */\n      0x01\n        /* \"#utility.yul\":25531:25537   */\n      dup3\n        /* \"#utility.yul\":25527:25541   */\n      add\n        /* \"#utility.yul\":25517:25541   */\n      swap2\n      pop\n        /* \"#utility.yul\":25586:25588   */\n      0x20\n        /* \"#utility.yul\":25575:25584   */\n      dup6\n        /* \"#utility.yul\":25571:25589   */\n      add\n        /* \"#utility.yul\":25558:25589   */\n      swap5\n      pop\n        /* \"#utility.yul\":25425:25429   */\n      0x20\n        /* \"#utility.yul\":25422:25423   */\n      dup2\n        /* \"#utility.yul\":25418:25430   */\n      add\n        /* \"#utility.yul\":25413:25430   */\n      swap1\n      pop\n        /* \"#utility.yul\":25388:25603   */\n      jump(tag_494)\n    tag_496:\n        /* \"#utility.yul\":25631:25637   */\n      dup7\n        /* \"#utility.yul\":25622:25629   */\n      dup4\n        /* \"#utility.yul\":25619:25638   */\n      lt\n        /* \"#utility.yul\":25616:25802   */\n      iszero\n      tag_497\n      jumpi\n        /* \"#utility.yul\":25696:25705   */\n      dup5\n        /* \"#utility.yul\":25691:25694   */\n      dup10\n        /* \"#utility.yul\":25687:25706   */\n      add\n        /* \"#utility.yul\":25674:25707   */\n      calldataload\n        /* \"#utility.yul\":25739:25787   */\n      tag_498\n        /* \"#utility.yul\":25781:25785   */\n      0x1f\n        /* \"#utility.yul\":25773:25779   */\n      dup10\n        /* \"#utility.yul\":25769:25786   */\n      and\n        /* \"#utility.yul\":25758:25767   */\n      dup3\n        /* \"#utility.yul\":25739:25787   */\n      tag_204\n      jump\t// in\n    tag_498:\n        /* \"#utility.yul\":25731:25737   */\n      dup4\n        /* \"#utility.yul\":25724:25788   */\n      sstore\n        /* \"#utility.yul\":25639:25802   */\n      pop\n        /* \"#utility.yul\":25616:25802   */\n    tag_497:\n        /* \"#utility.yul\":25848:25849   */\n      0x01\n        /* \"#utility.yul\":25844:25845   */\n      0x02\n        /* \"#utility.yul\":25836:25842   */\n      dup9\n        /* \"#utility.yul\":25832:25846   */\n      mul\n        /* \"#utility.yul\":25828:25850   */\n      add\n        /* \"#utility.yul\":25822:25826   */\n      dup9\n        /* \"#utility.yul\":25815:25851   */\n      sstore\n        /* \"#utility.yul\":25236:25861   */\n      pop\n      pop\n      pop\n        /* \"#utility.yul\":25199:26107   */\n    tag_489:\n      pop\n        /* \"#utility.yul\":24809:26113   */\n      pop\n      pop\n      pop\n        /* \"#utility.yul\":24710:26113   */\n      pop\n      pop\n      pop\n      jump\t// out\n        /* \"#utility.yul\":26143:26982   */\n    tag_211:\n        /* \"#utility.yul\":26232:26235   */\n      0x00\n        /* \"#utility.yul\":26269:26274   */\n      dup2\n        /* \"#utility.yul\":26263:26275   */\n      sload\n        /* \"#utility.yul\":26298:26334   */\n      tag_500\n        /* \"#utility.yul\":26324:26333   */\n      dup2\n        /* \"#utility.yul\":26298:26334   */\n      tag_80\n      jump\t// in\n    tag_500:\n        /* \"#utility.yul\":26350:26421   */\n      tag_501\n        /* \"#utility.yul\":26414:26420   */\n      dup2\n        /* \"#utility.yul\":26409:26412   */\n      dup7\n        /* \"#utility.yul\":26350:26421   */\n      tag_151\n      jump\t// in\n    tag_501:\n        /* \"#utility.yul\":26343:26421   */\n      swap5\n      pop\n        /* \"#utility.yul\":26452:26453   */\n      0x01\n        /* \"#utility.yul\":26441:26450   */\n      dup3\n        /* \"#utility.yul\":26437:26454   */\n      and\n        /* \"#utility.yul\":26468:26469   */\n      0x00\n        /* \"#utility.yul\":26463:26627   */\n      dup2\n      eq\n      tag_503\n      jumpi\n        /* \"#utility.yul\":26641:26642   */\n      0x01\n        /* \"#utility.yul\":26636:26976   */\n      dup2\n      eq\n      tag_504\n      jumpi\n        /* \"#utility.yul\":26430:26976   */\n      jump(tag_502)\n        /* \"#utility.yul\":26463:26627   */\n    tag_503:\n        /* \"#utility.yul\":26547:26551   */\n      0xff\n        /* \"#utility.yul\":26543:26552   */\n      not\n        /* \"#utility.yul\":26532:26541   */\n      dup4\n        /* \"#utility.yul\":26528:26553   */\n      and\n        /* \"#utility.yul\":26523:26526   */\n      dup7\n        /* \"#utility.yul\":26516:26554   */\n      mstore\n        /* \"#utility.yul\":26607:26613   */\n      dup2\n        /* \"#utility.yul\":26600:26614   */\n      iszero\n        /* \"#utility.yul\":26593:26615   */\n      iszero\n        /* \"#utility.yul\":26587:26591   */\n      0x20\n        /* \"#utility.yul\":26583:26616   */\n      mul\n        /* \"#utility.yul\":26578:26581   */\n      dup7\n        /* \"#utility.yul\":26574:26617   */\n      add\n        /* \"#utility.yul\":26567:26617   */\n      swap4\n      pop\n        /* \"#utility.yul\":26463:26627   */\n      jump(tag_502)\n        /* \"#utility.yul\":26636:26976   */\n    tag_504:\n        /* \"#utility.yul\":26703:26745   */\n      tag_505\n        /* \"#utility.yul\":26739:26744   */\n      dup6\n        /* \"#utility.yul\":26703:26745   */\n      tag_206\n      jump\t// in\n    tag_505:\n        /* \"#utility.yul\":26767:26768   */\n      0x00\n        /* \"#utility.yul\":26781:26935   */\n    tag_506:\n        /* \"#utility.yul\":26795:26801   */\n      dup4\n        /* \"#utility.yul\":26792:26793   */\n      dup2\n        /* \"#utility.yul\":26789:26802   */\n      lt\n        /* \"#utility.yul\":26781:26935   */\n      iszero\n      tag_508\n      jumpi\n        /* \"#utility.yul\":26869:26876   */\n      dup2\n        /* \"#utility.yul\":26863:26877   */\n      sload\n        /* \"#utility.yul\":26859:26860   */\n      dup2\n        /* \"#utility.yul\":26854:26857   */\n      dup10\n        /* \"#utility.yul\":26850:26861   */\n      add\n        /* \"#utility.yul\":26843:26878   */\n      mstore\n        /* \"#utility.yul\":26919:26920   */\n      0x01\n        /* \"#utility.yul\":26910:26917   */\n      dup3\n        /* \"#utility.yul\":26906:26921   */\n      add\n        /* \"#utility.yul\":26895:26921   */\n      swap2\n      pop\n        /* \"#utility.yul\":26817:26821   */\n      0x20\n        /* \"#utility.yul\":26814:26815   */\n      dup2\n        /* \"#utility.yul\":26810:26822   */\n      add\n        /* \"#utility.yul\":26805:26822   */\n      swap1\n      pop\n        /* \"#utility.yul\":26781:26935   */\n      jump(tag_506)\n    tag_508:\n        /* \"#utility.yul\":26964:26965   */\n      dup1\n        /* \"#utility.yul\":26959:26962   */\n      dup9\n        /* \"#utility.yul\":26955:26966   */\n      add\n        /* \"#utility.yul\":26948:26966   */\n      swap6\n      pop\n        /* \"#utility.yul\":26643:26976   */\n      pop\n      pop\n        /* \"#utility.yul\":26430:26976   */\n    tag_502:\n      pop\n        /* \"#utility.yul\":26236:26982   */\n      pop\n      pop\n        /* \"#utility.yul\":26143:26982   */\n      swap3\n      swap2\n      pop\n      pop\n      jump\t// out\n        /* \"#utility.yul\":27012:27329   */\n    tag_212:\n        /* \"#utility.yul\":27110:27113   */\n      0x00\n        /* \"#utility.yul\":27131:27202   */\n      tag_510\n        /* \"#utility.yul\":27195:27201   */\n      dup4\n        /* \"#utility.yul\":27190:27193   */\n      dup6\n        /* \"#utility.yul\":27131:27202   */\n      tag_151\n      jump\t// in\n    tag_510:\n        /* \"#utility.yul\":27124:27202   */\n      swap4\n      pop\n        /* \"#utility.yul\":27212:27268   */\n      tag_511\n        /* \"#utility.yul\":27261:27267   */\n      dup4\n        /* \"#utility.yul\":27256:27259   */\n      dup6\n        /* \"#utility.yul\":27249:27254   */\n      dup5\n        /* \"#utility.yul\":27212:27268   */\n      tag_175\n      jump\t// in\n    tag_511:\n        /* \"#utility.yul\":27293:27322   */\n      tag_512\n        /* \"#utility.yul\":27315:27321   */\n      dup4\n        /* \"#utility.yul\":27293:27322   */\n      tag_153\n      jump\t// in\n    tag_512:\n        /* \"#utility.yul\":27288:27291   */\n      dup5\n        /* \"#utility.yul\":27284:27323   */\n      add\n        /* \"#utility.yul\":27277:27323   */\n      swap1\n      pop\n        /* \"#utility.yul\":27012:27329   */\n      swap4\n      swap3\n      pop\n      pop\n      pop\n      jump\t// out\n        /* \"#utility.yul\":27357:27671   */\n    tag_213:\n        /* \"#utility.yul\":27453:27456   */\n      0x00\n        /* \"#utility.yul\":27474:27544   */\n      tag_514\n        /* \"#utility.yul\":27537:27543   */\n      dup4\n        /* \"#utility.yul\":27532:27535   */\n      dup6\n        /* \"#utility.yul\":27474:27544   */\n      tag_168\n      jump\t// in\n    tag_514:\n        /* \"#utility.yul\":27467:27544   */\n      swap4\n      pop\n        /* \"#utility.yul\":27554:27610   */\n      tag_515\n        /* \"#utility.yul\":27603:27609   */\n      dup4\n        /* \"#utility.yul\":27598:27601   */\n      dup6\n        /* \"#utility.yul\":27591:27596   */\n      dup5\n        /* \"#utility.yul\":27554:27610   */\n      tag_175\n      jump\t// in\n    tag_515:\n        /* \"#utility.yul\":27635:27664   */\n      tag_516\n        /* \"#utility.yul\":27657:27663   */\n      dup4\n        /* \"#utility.yul\":27635:27664   */\n      tag_153\n      jump\t// in\n    tag_516:\n        /* \"#utility.yul\":27630:27633   */\n      dup5\n        /* \"#utility.yul\":27626:27665   */\n      add\n        /* \"#utility.yul\":27619:27665   */\n      swap1\n      pop\n        /* \"#utility.yul\":27357:27671   */\n      swap4\n      swap3\n      pop\n      pop\n      pop\n      jump\t// out\n        /* \"#utility.yul\":27677:28652   */\n    tag_126:\n        /* \"#utility.yul\":27961:27965   */\n      0x00\n        /* \"#utility.yul\":27999:28002   */\n      0xa0\n        /* \"#utility.yul\":27988:27997   */\n      dup3\n        /* \"#utility.yul\":27984:28003   */\n      add\n        /* \"#utility.yul\":27976:28003   */\n      swap1\n      pop\n        /* \"#utility.yul\":28013:28084   */\n      tag_518\n        /* \"#utility.yul\":28081:28082   */\n      0x00\n        /* \"#utility.yul\":28070:28079   */\n      dup4\n        /* \"#utility.yul\":28066:28083   */\n      add\n        /* \"#utility.yul\":28057:28063   */\n      dup11\n        /* \"#utility.yul\":28013:28084   */\n      tag_143\n      jump\t// in\n    tag_518:\n        /* \"#utility.yul\":28094:28166   */\n      tag_519\n        /* \"#utility.yul\":28162:28164   */\n      0x20\n        /* \"#utility.yul\":28151:28160   */\n      dup4\n        /* \"#utility.yul\":28147:28165   */\n      add\n        /* \"#utility.yul\":28138:28144   */\n      dup10\n        /* \"#utility.yul\":28094:28166   */\n      tag_143\n      jump\t// in\n    tag_519:\n        /* \"#utility.yul\":28213:28222   */\n      dup2\n        /* \"#utility.yul\":28207:28211   */\n      dup2\n        /* \"#utility.yul\":28203:28223   */\n      sub\n        /* \"#utility.yul\":28198:28200   */\n      0x40\n        /* \"#utility.yul\":28187:28196   */\n      dup4\n        /* \"#utility.yul\":28183:28201   */\n      add\n        /* \"#utility.yul\":28176:28224   */\n      mstore\n        /* \"#utility.yul\":28241:28320   */\n      tag_520\n        /* \"#utility.yul\":28315:28319   */\n      dup2\n        /* \"#utility.yul\":28306:28312   */\n      dup9\n        /* \"#utility.yul\":28241:28320   */\n      tag_211\n      jump\t// in\n    tag_520:\n        /* \"#utility.yul\":28233:28320   */\n      swap1\n      pop\n        /* \"#utility.yul\":28367:28376   */\n      dup2\n        /* \"#utility.yul\":28361:28365   */\n      dup2\n        /* \"#utility.yul\":28357:28377   */\n      sub\n        /* \"#utility.yul\":28352:28354   */\n      0x60\n        /* \"#utility.yul\":28341:28350   */\n      dup4\n        /* \"#utility.yul\":28337:28355   */\n      add\n        /* \"#utility.yul\":28330:28378   */\n      mstore\n        /* \"#utility.yul\":28395:28483   */\n      tag_521\n        /* \"#utility.yul\":28478:28482   */\n      dup2\n        /* \"#utility.yul\":28469:28475   */\n      dup7\n        /* \"#utility.yul\":28461:28467   */\n      dup9\n        /* \"#utility.yul\":28395:28483   */\n      tag_212\n      jump\t// in\n    tag_521:\n        /* \"#utility.yul\":28387:28483   */\n      swap1\n      pop\n        /* \"#utility.yul\":28531:28540   */\n      dup2\n        /* \"#utility.yul\":28525:28529   */\n      dup2\n        /* \"#utility.yul\":28521:28541   */\n      sub\n        /* \"#utility.yul\":28515:28518   */\n      0x80\n        /* \"#utility.yul\":28504:28513   */\n      dup4\n        /* \"#utility.yul\":28500:28519   */\n      add\n        /* \"#utility.yul\":28493:28542   */\n      mstore\n        /* \"#utility.yul\":28559:28645   */\n      tag_522\n        /* \"#utility.yul\":28640:28644   */\n      dup2\n        /* \"#utility.yul\":28631:28637   */\n      dup5\n        /* \"#utility.yul\":28623:28629   */\n      dup7\n        /* \"#utility.yul\":28559:28645   */\n      tag_213\n      jump\t// in\n    tag_522:\n        /* \"#utility.yul\":28551:28645   */\n      swap1\n      pop\n        /* \"#utility.yul\":27677:28652   */\n      swap9\n      swap8\n      pop\n      pop\n      pop\n      pop\n      pop\n      pop\n      pop\n      pop\n      jump\t// out\n        /* \"#utility.yul\":28658:29492   */\n    tag_129:\n        /* \"#utility.yul\":28897:28901   */\n      0x00\n        /* \"#utility.yul\":28935:28938   */\n      0xa0\n        /* \"#utility.yul\":28924:28933   */\n      dup3\n        /* \"#utility.yul\":28920:28939   */\n      add\n        /* \"#utility.yul\":28912:28939   */\n      swap1\n      pop\n        /* \"#utility.yul\":28949:29020   */\n      tag_524\n        /* \"#utility.yul\":29017:29018   */\n      0x00\n        /* \"#utility.yul\":29006:29015   */\n      dup4\n        /* \"#utility.yul\":29002:29019   */\n      add\n        /* \"#utility.yul\":28993:28999   */\n      dup9\n        /* \"#utility.yul\":28949:29020   */\n      tag_143\n      jump\t// in\n    tag_524:\n        /* \"#utility.yul\":29067:29076   */\n      dup2\n        /* \"#utility.yul\":29061:29065   */\n      dup2\n        /* \"#utility.yul\":29057:29077   */\n      sub\n        /* \"#utility.yul\":29052:29054   */\n      0x20\n        /* \"#utility.yul\":29041:29050   */\n      dup4\n        /* \"#utility.yul\":29037:29055   */\n      add\n        /* \"#utility.yul\":29030:29078   */\n      mstore\n        /* \"#utility.yul\":29095:29171   */\n      tag_525\n        /* \"#utility.yul\":29166:29170   */\n      dup2\n        /* \"#utility.yul\":29157:29163   */\n      dup8\n        /* \"#utility.yul\":29095:29171   */\n      tag_169\n      jump\t// in\n    tag_525:\n        /* \"#utility.yul\":29087:29171   */\n      swap1\n      pop\n        /* \"#utility.yul\":29181:29253   */\n      tag_526\n        /* \"#utility.yul\":29249:29251   */\n      0x40\n        /* \"#utility.yul\":29238:29247   */\n      dup4\n        /* \"#utility.yul\":29234:29252   */\n      add\n        /* \"#utility.yul\":29225:29231   */\n      dup7\n        /* \"#utility.yul\":29181:29253   */\n      tag_166\n      jump\t// in\n    tag_526:\n        /* \"#utility.yul\":29263:29333   */\n      tag_527\n        /* \"#utility.yul\":29329:29331   */\n      0x60\n        /* \"#utility.yul\":29318:29327   */\n      dup4\n        /* \"#utility.yul\":29314:29332   */\n      add\n        /* \"#utility.yul\":29305:29311   */\n      dup6\n        /* \"#utility.yul\":29263:29333   */\n      tag_145\n      jump\t// in\n    tag_527:\n        /* \"#utility.yul\":29381:29390   */\n      dup2\n        /* \"#utility.yul\":29375:29379   */\n      dup2\n        /* \"#utility.yul\":29371:29391   */\n      sub\n        /* \"#utility.yul\":29365:29368   */\n      0x80\n        /* \"#utility.yul\":29354:29363   */\n      dup4\n        /* \"#utility.yul\":29350:29369   */\n      add\n        /* \"#utility.yul\":29343:29392   */\n      mstore\n        /* \"#utility.yul\":29409:29485   */\n      tag_528\n        /* \"#utility.yul\":29480:29484   */\n      dup2\n        /* \"#utility.yul\":29471:29477   */\n      dup5\n        /* \"#utility.yul\":29409:29485   */\n      tag_169\n      jump\t// in\n    tag_528:\n        /* \"#utility.yul\":29401:29485   */\n      swap1\n      pop\n        /* \"#utility.yul\":28658:29492   */\n      swap7\n      swap6\n      pop\n      pop\n      pop\n      pop\n      pop\n      pop\n      jump\t// out\n        /* \"#utility.yul\":29498:30888   */\n    tag_134:\n        /* \"#utility.yul\":29613:29649   */\n      tag_530\n        /* \"#utility.yul\":29645:29648   */\n      dup3\n        /* \"#utility.yul\":29613:29649   */\n      tag_167\n      jump\t// in\n    tag_530:\n        /* \"#utility.yul\":29714:29732   */\n      0xffffffffffffffff\n        /* \"#utility.yul\":29706:29712   */\n      dup2\n        /* \"#utility.yul\":29703:29733   */\n      gt\n        /* \"#utility.yul\":29700:29756   */\n      iszero\n      tag_531\n      jumpi\n        /* \"#utility.yul\":29736:29754   */\n      tag_532\n      tag_171\n      jump\t// in\n    tag_532:\n        /* \"#utility.yul\":29700:29756   */\n    tag_531:\n        /* \"#utility.yul\":29780:29818   */\n      tag_533\n        /* \"#utility.yul\":29812:29816   */\n      dup3\n        /* \"#utility.yul\":29806:29817   */\n      sload\n        /* \"#utility.yul\":29780:29818   */\n      tag_80\n      jump\t// in\n    tag_533:\n        /* \"#utility.yul\":29865:29931   */\n      tag_534\n        /* \"#utility.yul\":29924:29930   */\n      dup3\n        /* \"#utility.yul\":29916:29922   */\n      dup3\n        /* \"#utility.yul\":29910:29914   */\n      dup6\n        /* \"#utility.yul\":29865:29931   */\n      tag_202\n      jump\t// in\n    tag_534:\n        /* \"#utility.yul\":29958:29959   */\n      0x00\n        /* \"#utility.yul\":29982:29986   */\n      0x20\n        /* \"#utility.yul\":29969:29986   */\n      swap1\n      pop\n        /* \"#utility.yul\":30014:30016   */\n      0x1f\n        /* \"#utility.yul\":30006:30012   */\n      dup4\n        /* \"#utility.yul\":30003:30017   */\n      gt\n        /* \"#utility.yul\":30031:30032   */\n      0x01\n        /* \"#utility.yul\":30026:30643   */\n      dup2\n      eq\n      tag_536\n      jumpi\n        /* \"#utility.yul\":30687:30688   */\n      0x00\n        /* \"#utility.yul\":30704:30710   */\n      dup5\n        /* \"#utility.yul\":30701:30778   */\n      iszero\n      tag_537\n      jumpi\n        /* \"#utility.yul\":30753:30762   */\n      dup3\n        /* \"#utility.yul\":30748:30751   */\n      dup8\n        /* \"#utility.yul\":30744:30763   */\n      add\n        /* \"#utility.yul\":30738:30764   */\n      mload\n        /* \"#utility.yul\":30729:30764   */\n      swap1\n      pop\n        /* \"#utility.yul\":30701:30778   */\n    tag_537:\n        /* \"#utility.yul\":30804:30871   */\n      tag_538\n        /* \"#utility.yul\":30864:30870   */\n      dup6\n        /* \"#utility.yul\":30857:30862   */\n      dup3\n        /* \"#utility.yul\":30804:30871   */\n      tag_205\n      jump\t// in\n    tag_538:\n        /* \"#utility.yul\":30798:30802   */\n      dup7\n        /* \"#utility.yul\":30791:30872   */\n      sstore\n        /* \"#utility.yul\":30660:30882   */\n      pop\n        /* \"#utility.yul\":29996:30882   */\n      jump(tag_535)\n        /* \"#utility.yul\":30026:30643   */\n    tag_536:\n        /* \"#utility.yul\":30078:30082   */\n      0x1f\n        /* \"#utility.yul\":30074:30083   */\n      not\n        /* \"#utility.yul\":30066:30072   */\n      dup5\n        /* \"#utility.yul\":30062:30084   */\n      and\n        /* \"#utility.yul\":30112:30148   */\n      tag_539\n        /* \"#utility.yul\":30143:30147   */\n      dup7\n        /* \"#utility.yul\":30112:30148   */\n      tag_192\n      jump\t// in\n    tag_539:\n        /* \"#utility.yul\":30170:30171   */\n      0x00\n        /* \"#utility.yul\":30184:30392   */\n    tag_540:\n        /* \"#utility.yul\":30198:30205   */\n      dup3\n        /* \"#utility.yul\":30195:30196   */\n      dup2\n        /* \"#utility.yul\":30192:30206   */\n      lt\n        /* \"#utility.yul\":30184:30392   */\n      iszero\n      tag_542\n      jumpi\n        /* \"#utility.yul\":30277:30286   */\n      dup5\n        /* \"#utility.yul\":30272:30275   */\n      dup10\n        /* \"#utility.yul\":30268:30287   */\n      add\n        /* \"#utility.yul\":30262:30288   */\n      mload\n        /* \"#utility.yul\":30254:30260   */\n      dup3\n        /* \"#utility.yul\":30247:30289   */\n      sstore\n        /* \"#utility.yul\":30328:30329   */\n      0x01\n        /* \"#utility.yul\":30320:30326   */\n      dup3\n        /* \"#utility.yul\":30316:30330   */\n      add\n        /* \"#utility.yul\":30306:30330   */\n      swap2\n      pop\n        /* \"#utility.yul\":30375:30377   */\n      0x20\n        /* \"#utility.yul\":30364:30373   */\n      dup6\n        /* \"#utility.yul\":30360:30378   */\n      add\n        /* \"#utility.yul\":30347:30378   */\n      swap5\n      pop\n        /* \"#utility.yul\":30221:30225   */\n      0x20\n        /* \"#utility.yul\":30218:30219   */\n      dup2\n        /* \"#utility.yul\":30214:30226   */\n      add\n        /* \"#utility.yul\":30209:30226   */\n      swap1\n      pop\n        /* \"#utility.yul\":30184:30392   */\n      jump(tag_540)\n    tag_542:\n        /* \"#utility.yul\":30420:30426   */\n      dup7\n        /* \"#utility.yul\":30411:30418   */\n      dup4\n        /* \"#utility.yul\":30408:30427   */\n      lt\n        /* \"#utility.yul\":30405:30584   */\n      iszero\n      tag_543\n      jumpi\n        /* \"#utility.yul\":30478:30487   */\n      dup5\n        /* \"#utility.yul\":30473:30476   */\n      dup10\n        /* \"#utility.yul\":30469:30488   */\n      add\n        /* \"#utility.yul\":30463:30489   */\n      mload\n        /* \"#utility.yul\":30521:30569   */\n      tag_544\n        /* \"#utility.yul\":30563:30567   */\n      0x1f\n        /* \"#utility.yul\":30555:30561   */\n      dup10\n        /* \"#utility.yul\":30551:30568   */\n      and\n        /* \"#utility.yul\":30540:30549   */\n      dup3\n        /* \"#utility.yul\":30521:30569   */\n      tag_204\n      jump\t// in\n    tag_544:\n        /* \"#utility.yul\":30513:30519   */\n      dup4\n        /* \"#utility.yul\":30506:30570   */\n      sstore\n        /* \"#utility.yul\":30428:30584   */\n      pop\n        /* \"#utility.yul\":30405:30584   */\n    tag_543:\n        /* \"#utility.yul\":30630:30631   */\n      0x01\n        /* \"#utility.yul\":30626:30627   */\n      0x02\n        /* \"#utility.yul\":30618:30624   */\n      dup9\n        /* \"#utility.yul\":30614:30628   */\n      mul\n        /* \"#utility.yul\":30610:30632   */\n      add\n        /* \"#utility.yul\":30604:30608   */\n      dup9\n        /* \"#utility.yul\":30597:30633   */\n      sstore\n        /* \"#utility.yul\":30033:30643   */\n      pop\n      pop\n      pop\n        /* \"#utility.yul\":29996:30882   */\n    tag_535:\n      pop\n        /* \"#utility.yul\":29588:30888   */\n      pop\n      pop\n      pop\n        /* \"#utility.yul\":29498:30888   */\n      pop\n      pop\n      jump\t// out\n        /* \"#utility.yul\":30894:31558   */\n    tag_136:\n        /* \"#utility.yul\":31101:31105   */\n      0x00\n        /* \"#utility.yul\":31139:31142   */\n      0x80\n        /* \"#utility.yul\":31128:31137   */\n      dup3\n        /* \"#utility.yul\":31124:31143   */\n      add\n        /* \"#utility.yul\":31116:31143   */\n      swap1\n      pop\n        /* \"#utility.yul\":31153:31224   */\n      tag_546\n        /* \"#utility.yul\":31221:31222   */\n      0x00\n        /* \"#utility.yul\":31210:31219   */\n      dup4\n        /* \"#utility.yul\":31206:31223   */\n      add\n        /* \"#utility.yul\":31197:31203   */\n      dup9\n        /* \"#utility.yul\":31153:31224   */\n      tag_143\n      jump\t// in\n    tag_546:\n        /* \"#utility.yul\":31234:31306   */\n      tag_547\n        /* \"#utility.yul\":31302:31304   */\n      0x20\n        /* \"#utility.yul\":31291:31300   */\n      dup4\n        /* \"#utility.yul\":31287:31305   */\n      add\n        /* \"#utility.yul\":31278:31284   */\n      dup8\n        /* \"#utility.yul\":31234:31306   */\n      tag_166\n      jump\t// in\n    tag_547:\n        /* \"#utility.yul\":31316:31388   */\n      tag_548\n        /* \"#utility.yul\":31384:31386   */\n      0x40\n        /* \"#utility.yul\":31373:31382   */\n      dup4\n        /* \"#utility.yul\":31369:31387   */\n      add\n        /* \"#utility.yul\":31360:31366   */\n      dup7\n        /* \"#utility.yul\":31316:31388   */\n      tag_143\n      jump\t// in\n    tag_548:\n        /* \"#utility.yul\":31435:31444   */\n      dup2\n        /* \"#utility.yul\":31429:31433   */\n      dup2\n        /* \"#utility.yul\":31425:31445   */\n      sub\n        /* \"#utility.yul\":31420:31422   */\n      0x60\n        /* \"#utility.yul\":31409:31418   */\n      dup4\n        /* \"#utility.yul\":31405:31423   */\n      add\n        /* \"#utility.yul\":31398:31446   */\n      mstore\n        /* \"#utility.yul\":31463:31551   */\n      tag_549\n        /* \"#utility.yul\":31546:31550   */\n      dup2\n        /* \"#utility.yul\":31537:31543   */\n      dup5\n        /* \"#utility.yul\":31529:31535   */\n      dup7\n        /* \"#utility.yul\":31463:31551   */\n      tag_212\n      jump\t// in\n    tag_549:\n        /* \"#utility.yul\":31455:31551   */\n      swap1\n      pop\n        /* \"#utility.yul\":30894:31558   */\n      swap7\n      swap6\n      pop\n      pop\n      pop\n      pop\n      pop\n      pop\n      jump\t// out\n\n    auxdata: 0xa26469706673582212205355b31445fec0061e5dba0568b4b52b099472b2ba7df7cef9342b80b64ad2f164736f6c634300081a0033\n}\n",
				"bytecode": {
					"linkReferences": {},
					"object": "60a060405234801561000f575f80fd5b50604051611def380380611def83398181016040528101906100319190610191565b808073ffffffffffffffffffffffffffffffffffffffff1660808173ffffffffffffffffffffffffffffffffffffffff168152505050335f806101000a81548173ffffffffffffffffffffffffffffffffffffffff021916908373ffffffffffffffffffffffffffffffffffffffff1602179055506207a12060025f603281526020019081526020015f205f6101000a81548167ffffffffffffffff021916908367ffffffffffffffff160217905550624c4b4060025f600b81526020019081526020015f205f6101000a81548167ffffffffffffffff021916908367ffffffffffffffff160217905550506101bc565b5f80fd5b5f73ffffffffffffffffffffffffffffffffffffffff82169050919050565b5f61014f82610126565b9050919050565b5f61016082610145565b9050919050565b61017081610156565b811461017a575f80fd5b50565b5f8151905061018b81610167565b92915050565b5f602082840312156101a6576101a5610122565b5b5f6101b38482850161017d565b91505092915050565b608051611bf86101f75f395f81816102980152818161044101528181610466015281816107e6015281816108390152610a450152611bf85ff3fe608060405260043610610090575f3560e01c8063813d1e1511610058578063813d1e15146101ae57806381d12c58146101d65780638cbc52d914610215578063b034781414610251578063fac5d7e11461027957610090565b8063127e8e4d1461009457806320f38718146100d05780632c6296b71461010c57806331b221cd1461014857806333727c4d14610172575b5f80fd5b34801561009f575f80fd5b506100ba60048036038101906100b59190610c09565b610295565b6040516100c79190610c43565b60405180910390f35b3480156100db575f80fd5b506100f660048036038101906100f19190610c09565b61035a565b6040516101039190610c7e565b60405180910390f35b348015610117575f80fd5b50610132600480360381019061012d9190610cf8565b61037e565b60405161013f9190610dc5565b60405180910390f35b348015610153575f80fd5b5061015c61043f565b6040516101699190610e5f565b60405180910390f35b34801561017d575f80fd5b5061019860048036038101906101939190610c09565b610463565b6040516101a59190610e92565b60405180910390f35b3480156101b9575f80fd5b506101d460048036038101906101cf9190610ed5565b610503565b005b3480156101e1575f80fd5b506101fc60048036038101906101f79190610c09565b6105cb565b60405161020c9493929190610f85565b60405180910390f35b348015610220575f80fd5b5061023b600480360381019061023691906110fe565b610722565b6040516102489190610dc5565b60405180910390f35b34801561025c575f80fd5b50610277600480360381019061027291906111ad565b6107e0565b005b610293600480360381019061028e9190610cf8565b6109e5565b005b5f7f000000000000000000000000000000000000000000000000000000000000000073ffffffffffffffffffffffffffffffffffffffff1662e1d8d08360025f8681526020019081526020015f205f9054906101000a900467ffffffffffffffff166040518363ffffffff1660e01b815260040161031492919061126e565b602060405180830381865afa15801561032f573d5f803e3d5ffd5b505050506040513d601f19601f8201168201806040525081019061035391906112a9565b9050919050565b6002602052805f5260405f205f915054906101000a900467ffffffffffffffff1681565b606060035f8581526020019081526020015f2083836040516103a1929190611302565b908152602001604051809103902080546103ba90611347565b80601f01602080910402602001604051908101604052809291908181526020018280546103e690611347565b80156104315780601f1061040857610100808354040283529160200191610431565b820191905f5260205f20905b81548152906001019060200180831161041457829003601f168201915b505050505090509392505050565b7f000000000000000000000000000000000000000000000000000000000000000081565b5f7f000000000000000000000000000000000000000000000000000000000000000073ffffffffffffffffffffffffffffffffffffffff166333727c4d836040518263ffffffff1660e01b81526004016104bd9190610c43565b602060405180830381865afa1580156104d8573d5f803e3d5ffd5b505050506040513d601f19601f820116820180604052508101906104fc91906113a1565b9050919050565b5f8054906101000a900473ffffffffffffffffffffffffffffffffffffffff1673ffffffffffffffffffffffffffffffffffffffff163373ffffffffffffffffffffffffffffffffffffffff1614610590576040517f08c379a000000000000000000000000000000000000000000000000000000000815260040161058790611416565b60405180910390fd5b8060025f8481526020019081526020015f205f6101000a81548167ffffffffffffffff021916908367ffffffffffffffff1602179055505050565b6001602052805f5260405f205f91509050805f015f9054906101000a900473ffffffffffffffffffffffffffffffffffffffff169080600101549080600201805461061590611347565b80601f016020809104026020016040519081016040528092919081815260200182805461064190611347565b801561068c5780601f106106635761010080835404028352916020019161068c565b820191905f5260205f20905b81548152906001019060200180831161066f57829003601f168201915b5050505050908060030180546106a190611347565b80601f01602080910402602001604051908101604052809291908181526020018280546106cd90611347565b80156107185780601f106106ef57610100808354040283529160200191610718565b820191905f5260205f20905b8154815290600101906020018083116106fb57829003601f168201915b5050505050905084565b6003602052815f5260405f20818051602081018201805184825260208301602085012081835280955050505050505f9150915050805461076190611347565b80601f016020809104026020016040519081016040528092919081815260200182805461078d90611347565b80156107d85780601f106107af576101008083540402835291602001916107d8565b820191905f5260205f20905b8154815290600101906020018083116107bb57829003601f168201915b505050505081565b5f3390507f000000000000000000000000000000000000000000000000000000000000000073ffffffffffffffffffffffffffffffffffffffff168173ffffffffffffffffffffffffffffffffffffffff1614610896577f0000000000000000000000000000000000000000000000000000000000000000816040517f865c066e00000000000000000000000000000000000000000000000000000000815260040161088d929190611434565b60405180910390fd5b5f60015f8881526020019081526020015f2090505f73ffffffffffffffffffffffffffffffffffffffff16815f015f9054906101000a900473ffffffffffffffffffffffffffffffffffffffff1673ffffffffffffffffffffffffffffffffffffffff160361093a576040517f08c379a0000000000000000000000000000000000000000000000000000000008152600401610931906114a5565b60405180910390fd5b858582600301918261094d929190611661565b50858560035f846001015481526020019081526020015f208360020160405161097691906117c0565b90815260200160405180910390209182610991929190611838565b507faf2b2381ddcb18a2b18a7826186fd216acdd9c852a8c7a9a49e7eab127f96ccf87826001015483600201898989896040516109d497969594939291906119de565b60405180910390a150505050505050565b5f82828080601f0160208091040260200160405190810160405280939291908181526020018383808284375f81840152601f19601f8201169050808301925050505050505090505f60405180602001604052805f81525090505f3090505f7f000000000000000000000000000000000000000000000000000000000000000073ffffffffffffffffffffffffffffffffffffffff16635b9538063489878660025f8e81526020019081526020015f205f9054906101000a900467ffffffffffffffff16896040518763ffffffff1660e01b8152600401610ac9959493929190611a48565b60206040518083038185885af1158015610ae5573d5f803e3d5ffd5b50505050506040513d601f19601f82011682018060405250810190610b0a91906112a9565b90505f60015f8381526020019081526020015f20905084816002019081610b319190611aa7565b5033815f015f6101000a81548173ffffffffffffffffffffffffffffffffffffffff021916908373ffffffffffffffffffffffffffffffffffffffff1602179055508781600101819055507fa0faead83d70148ae18b694377f9bef079251342ab90e14af0f9ef68b891269f82338a8a8a604051610bb3959493929190611b76565b60405180910390a15050505050505050565b5f604051905090565b5f80fd5b5f80fd5b5f819050919050565b610be881610bd6565b8114610bf2575f80fd5b50565b5f81359050610c0381610bdf565b92915050565b5f60208284031215610c1e57610c1d610bce565b5b5f610c2b84828501610bf5565b91505092915050565b610c3d81610bd6565b82525050565b5f602082019050610c565f830184610c34565b92915050565b5f67ffffffffffffffff82169050919050565b610c7881610c5c565b82525050565b5f602082019050610c915f830184610c6f565b92915050565b5f80fd5b5f80fd5b5f80fd5b5f8083601f840112610cb857610cb7610c97565b5b8235905067ffffffffffffffff811115610cd557610cd4610c9b565b5b602083019150836001820283011115610cf157610cf0610c9f565b5b9250929050565b5f805f60408486031215610d0f57610d0e610bce565b5b5f610d1c86828701610bf5565b935050602084013567ffffffffffffffff811115610d3d57610d3c610bd2565b5b610d4986828701610ca3565b92509250509250925092565b5f81519050919050565b5f82825260208201905092915050565b8281835e5f83830152505050565b5f601f19601f8301169050919050565b5f610d9782610d55565b610da18185610d5f565b9350610db1818560208601610d6f565b610dba81610d7d565b840191505092915050565b5f6020820190508181035f830152610ddd8184610d8d565b905092915050565b5f73ffffffffffffffffffffffffffffffffffffffff82169050919050565b5f819050919050565b5f610e27610e22610e1d84610de5565b610e04565b610de5565b9050919050565b5f610e3882610e0d565b9050919050565b5f610e4982610e2e565b9050919050565b610e5981610e3f565b82525050565b5f602082019050610e725f830184610e50565b92915050565b5f8115159050919050565b610e8c81610e78565b82525050565b5f602082019050610ea55f830184610e83565b92915050565b610eb481610c5c565b8114610ebe575f80fd5b50565b5f81359050610ecf81610eab565b92915050565b5f8060408385031215610eeb57610eea610bce565b5b5f610ef885828601610bf5565b9250506020610f0985828601610ec1565b9150509250929050565b5f610f1d82610de5565b9050919050565b610f2d81610f13565b82525050565b5f81519050919050565b5f82825260208201905092915050565b5f610f5782610f33565b610f618185610f3d565b9350610f71818560208601610d6f565b610f7a81610d7d565b840191505092915050565b5f608082019050610f985f830187610f24565b610fa56020830186610c34565b8181036040830152610fb78185610f4d565b90508181036060830152610fcb8184610f4d565b905095945050505050565b5f80fd5b7f4e487b71000000000000000000000000000000000000000000000000000000005f52604160045260245ffd5b61101082610d7d565b810181811067ffffffffffffffff8211171561102f5761102e610fda565b5b80604052505050565b5f611041610bc5565b905061104d8282611007565b919050565b5f67ffffffffffffffff82111561106c5761106b610fda565b5b61107582610d7d565b9050602081019050919050565b828183375f83830152505050565b5f6110a261109d84611052565b611038565b9050828152602081018484840111156110be576110bd610fd6565b5b6110c9848285611082565b509392505050565b5f82601f8301126110e5576110e4610c97565b5b81356110f5848260208601611090565b91505092915050565b5f806040838503121561111457611113610bce565b5b5f61112185828601610bf5565b925050602083013567ffffffffffffffff81111561114257611141610bd2565b5b61114e858286016110d1565b9150509250929050565b5f8083601f84011261116d5761116c610c97565b5b8235905067ffffffffffffffff81111561118a57611189610c9b565b5b6020830191508360018202830111156111a6576111a5610c9f565b5b9250929050565b5f805f805f606086880312156111c6576111c5610bce565b5b5f6111d388828901610bf5565b955050602086013567ffffffffffffffff8111156111f4576111f3610bd2565b5b61120088828901611158565b9450945050604086013567ffffffffffffffff81111561122357611222610bd2565b5b61122f88828901611158565b92509250509295509295909350565b5f61125861125361124e84610c5c565b610e04565b610bd6565b9050919050565b6112688161123e565b82525050565b5f6040820190506112815f830185610c34565b61128e602083018461125f565b9392505050565b5f815190506112a381610bdf565b92915050565b5f602082840312156112be576112bd610bce565b5b5f6112cb84828501611295565b91505092915050565b5f81905092915050565b5f6112e983856112d4565b93506112f6838584611082565b82840190509392505050565b5f61130e8284866112de565b91508190509392505050565b7f4e487b71000000000000000000000000000000000000000000000000000000005f52602260045260245ffd5b5f600282049050600182168061135e57607f821691505b6020821081036113715761137061131a565b5b50919050565b61138081610e78565b811461138a575f80fd5b50565b5f8151905061139b81611377565b92915050565b5f602082840312156113b6576113b5610bce565b5b5f6113c38482850161138d565b91505092915050565b7f4f6e6c79206f776e6572000000000000000000000000000000000000000000005f82015250565b5f611400600a83610d5f565b915061140b826113cc565b602082019050919050565b5f6020820190508181035f83015261142d816113f4565b9050919050565b5f6040820190506114475f830185610e50565b6114546020830184610e50565b9392505050565b7f7265717565737420646f6573206e6f74206578697374000000000000000000005f82015250565b5f61148f601683610d5f565b915061149a8261145b565b602082019050919050565b5f6020820190508181035f8301526114bc81611483565b9050919050565b5f82905092915050565b5f819050815f5260205f209050919050565b5f6020601f8301049050919050565b5f82821b905092915050565b5f600883026115297fffffffffffffffffffffffffffffffffffffffffffffffffffffffffffffffff826114ee565b61153386836114ee565b95508019841693508086168417925050509392505050565b5f61156561156061155b84610bd6565b610e04565b610bd6565b9050919050565b5f819050919050565b61157e8361154b565b61159261158a8261156c565b8484546114fa565b825550505050565b5f90565b6115a661159a565b6115b1818484611575565b505050565b5b818110156115d4576115c95f8261159e565b6001810190506115b7565b5050565b601f821115611619576115ea816114cd565b6115f3846114df565b81016020851015611602578190505b61161661160e856114df565b8301826115b6565b50505b505050565b5f82821c905092915050565b5f6116395f198460080261161e565b1980831691505092915050565b5f611651838361162a565b9150826002028217905092915050565b61166b83836114c3565b67ffffffffffffffff81111561168457611683610fda565b5b61168e8254611347565b6116998282856115d8565b5f601f8311600181146116c6575f84156116b4578287013590505b6116be8582611646565b865550611725565b601f1984166116d4866114cd565b5f5b828110156116fb578489013582556001820191506020850194506020810190506116d6565b868310156117185784890135611714601f89168261162a565b8355505b6001600288020188555050505b50505050505050565b5f819050815f5260205f209050919050565b5f815461174c81611347565b61175681866112d4565b9450600182165f81146117705760018114611785576117b7565b60ff19831686528115158202860193506117b7565b61178e8561172e565b5f5b838110156117af57815481890152600182019150602081019050611790565b838801955050505b50505092915050565b5f6117cb8284611740565b915081905092915050565b5f82905092915050565b5f819050815f5260205f209050919050565b601f82111561183357611804816117e0565b61180d846114df565b8101602085101561181c578190505b611830611828856114df565b8301826115b6565b50505b505050565b61184283836117d6565b67ffffffffffffffff81111561185b5761185a610fda565b5b6118658254611347565b6118708282856117f2565b5f601f83116001811461189d575f841561188b578287013590505b6118958582611646565b8655506118fc565b601f1984166118ab866117e0565b5f5b828110156118d2578489013582556001820191506020850194506020810190506118ad565b868310156118ef57848901356118eb601f89168261162a565b8355505b6001600288020188555050505b50505050505050565b5f815461191181611347565b61191b8186610d5f565b9450600182165f8114611935576001811461194b5761197d565b60ff19831686528115156020028601935061197d565b6119548561172e565b5f5b8381101561197557815481890152600182019150602081019050611956565b808801955050505b50505092915050565b5f6119918385610d5f565b935061199e838584611082565b6119a783610d7d565b840190509392505050565b5f6119bd8385610f3d565b93506119ca838584611082565b6119d383610d7d565b840190509392505050565b5f60a0820190506119f15f83018a610c34565b6119fe6020830189610c34565b8181036040830152611a108188611905565b90508181036060830152611a25818688611986565b90508181036080830152611a3a8184866119b2565b905098975050505050505050565b5f60a082019050611a5b5f830188610c34565b8181036020830152611a6d8187610f4d565b9050611a7c6040830186610f24565b611a896060830185610c6f565b8181036080830152611a9b8184610f4d565b90509695505050505050565b611ab082610f33565b67ffffffffffffffff811115611ac957611ac8610fda565b5b611ad38254611347565b611ade8282856115d8565b5f60209050601f831160018114611b0f575f8415611afd578287015190505b611b078582611646565b865550611b6e565b601f198416611b1d866114cd565b5f5b82811015611b4457848901518255600182019150602085019450602081019050611b1f565b86831015611b615784890151611b5d601f89168261162a565b8355505b6001600288020188555050505b505050505050565b5f608082019050611b895f830188610c34565b611b966020830187610f24565b611ba36040830186610c34565b8181036060830152611bb6818486611986565b9050969550505050505056fea26469706673582212205355b31445fec0061e5dba0568b4b52b099472b2ba7df7cef9342b80b64ad2f164736f6c634300081a0033",
					"opcodes": "PUSH1 0xA0 PUSH1 0x40 MSTORE CALLVALUE DUP1 ISZERO PUSH2 0xF JUMPI PUSH0 DUP1 REVERT JUMPDEST POP PUSH1 0x40 MLOAD PUSH2 0x1DEF CODESIZE SUB DUP1 PUSH2 0x1DEF DUP4 CODECOPY DUP2 DUP2 ADD PUSH1 0x40 MSTORE DUP2 ADD SWAP1 PUSH2 0x31 SWAP2 SWAP1 PUSH2 0x191 JUMP JUMPDEST DUP1 DUP1 PUSH20 0xFFFFFFFFFFFFFFFFFFFFFFFFFFFFFFFFFFFFFFFF AND PUSH1 0x80 DUP2 PUSH20 0xFFFFFFFFFFFFFFFFFFFFFFFFFFFFFFFFFFFFFFFF AND DUP2 MSTORE POP POP POP CALLER PUSH0 DUP1 PUSH2 0x100 EXP DUP2 SLOAD DUP2 PUSH20 0xFFFFFFFFFFFFFFFFFFFFFFFFFFFFFFFFFFFFFFFF MUL NOT AND SWAP1 DUP4 PUSH20 0xFFFFFFFFFFFFFFFFFFFFFFFFFFFFFFFFFFFFFFFF AND MUL OR SWAP1 SSTORE POP PUSH3 0x7A120 PUSH1 0x2 PUSH0 PUSH1 0x32 DUP2 MSTORE PUSH1 0x20 ADD SWAP1 DUP2 MSTORE PUSH1 0x20 ADD PUSH0 KECCAK256 PUSH0 PUSH2 0x100 EXP DUP2 SLOAD DUP2 PUSH8 0xFFFFFFFFFFFFFFFF MUL NOT AND SWAP1 DUP4 PUSH8 0xFFFFFFFFFFFFFFFF AND MUL OR SWAP1 SSTORE POP PUSH3 0x4C4B40 PUSH1 0x2 PUSH0 PUSH1 0xB DUP2 MSTORE PUSH1 0x20 ADD SWAP1 DUP2 MSTORE PUSH1 0x20 ADD PUSH0 KECCAK256 PUSH0 PUSH2 0x100 EXP DUP2 SLOAD DUP2 PUSH8 0xFFFFFFFFFFFFFFFF MUL NOT AND SWAP1 DUP4 PUSH8 0xFFFFFFFFFFFFFFFF AND MUL OR SWAP1 SSTORE POP POP PUSH2 0x1BC JUMP JUMPDEST PUSH0 DUP1 REVERT JUMPDEST PUSH0 PUSH20 0xFFFFFFFFFFFFFFFFFFFFFFFFFFFFFFFFFFFFFFFF DUP3 AND SWAP1 POP SWAP2 SWAP1 POP JUMP JUMPDEST PUSH0 PUSH2 0x14F DUP3 PUSH2 0x126 JUMP JUMPDEST SWAP1 POP SWAP2 SWAP1 POP JUMP JUMPDEST PUSH0 PUSH2 0x160 DUP3 PUSH2 0x145 JUMP JUMPDEST SWAP1 POP SWAP2 SWAP1 POP JUMP JUMPDEST PUSH2 0x170 DUP2 PUSH2 0x156 JUMP JUMPDEST DUP2 EQ PUSH2 0x17A JUMPI PUSH0 DUP1 REVERT JUMPDEST POP JUMP JUMPDEST PUSH0 DUP2 MLOAD SWAP1 POP PUSH2 0x18B DUP2 PUSH2 0x167 JUMP JUMPDEST SWAP3 SWAP2 POP POP JUMP JUMPDEST PUSH0 PUSH1 0x20 DUP3 DUP5 SUB SLT ISZERO PUSH2 0x1A6 JUMPI PUSH2 0x1A5 PUSH2 0x122 JUMP JUMPDEST JUMPDEST PUSH0 PUSH2 0x1B3 DUP5 DUP3 DUP6 ADD PUSH2 0x17D JUMP JUMPDEST SWAP2 POP POP SWAP3 SWAP2 POP POP JUMP JUMPDEST PUSH1 0x80 MLOAD PUSH2 0x1BF8 PUSH2 0x1F7 PUSH0 CODECOPY PUSH0 DUP2 DUP2 PUSH2 0x298 ADD MSTORE DUP2 DUP2 PUSH2 0x441 ADD MSTORE DUP2 DUP2 PUSH2 0x466 ADD MSTORE DUP2 DUP2 PUSH2 0x7E6 ADD MSTORE DUP2 DUP2 PUSH2 0x839 ADD MSTORE PUSH2 0xA45 ADD MSTORE PUSH2 0x1BF8 PUSH0 RETURN INVALID PUSH1 0x80 PUSH1 0x40 MSTORE PUSH1 0x4 CALLDATASIZE LT PUSH2 0x90 JUMPI PUSH0 CALLDATALOAD PUSH1 0xE0 SHR DUP1 PUSH4 0x813D1E15 GT PUSH2 0x58 JUMPI DUP1 PUSH4 0x813D1E15 EQ PUSH2 0x1AE JUMPI DUP1 PUSH4 0x81D12C58 EQ PUSH2 0x1D6 JUMPI DUP1 PUSH4 0x8CBC52D9 EQ PUSH2 0x215 JUMPI DUP1 PUSH4 0xB0347814 EQ PUSH2 0x251 JUMPI DUP1 PUSH4 0xFAC5D7E1 EQ PUSH2 0x279 JUMPI PUSH2 0x90 JUMP JUMPDEST DUP1 PUSH4 0x127E8E4D EQ PUSH2 0x94 JUMPI DUP1 PUSH4 0x20F38718 EQ PUSH2 0xD0 JUMPI DUP1 PUSH4 0x2C6296B7 EQ PUSH2 0x10C JUMPI DUP1 PUSH4 0x31B221CD EQ PUSH2 0x148 JUMPI DUP1 PUSH4 0x33727C4D EQ PUSH2 0x172 JUMPI JUMPDEST PUSH0 DUP1 REVERT JUMPDEST CALLVALUE DUP1 ISZERO PUSH2 0x9F JUMPI PUSH0 DUP1 REVERT JUMPDEST POP PUSH2 0xBA PUSH1 0x4 DUP1 CALLDATASIZE SUB DUP2 ADD SWAP1 PUSH2 0xB5 SWAP2 SWAP1 PUSH2 0xC09 JUMP JUMPDEST PUSH2 0x295 JUMP JUMPDEST PUSH1 0x40 MLOAD PUSH2 0xC7 SWAP2 SWAP1 PUSH2 0xC43 JUMP JUMPDEST PUSH1 0x40 MLOAD DUP1 SWAP2 SUB SWAP1 RETURN JUMPDEST CALLVALUE DUP1 ISZERO PUSH2 0xDB JUMPI PUSH0 DUP1 REVERT JUMPDEST POP PUSH2 0xF6 PUSH1 0x4 DUP1 CALLDATASIZE SUB DUP2 ADD SWAP1 PUSH2 0xF1 SWAP2 SWAP1 PUSH2 0xC09 JUMP JUMPDEST PUSH2 0x35A JUMP JUMPDEST PUSH1 0x40 MLOAD PUSH2 0x103 SWAP2 SWAP1 PUSH2 0xC7E JUMP JUMPDEST PUSH1 0x40 MLOAD DUP1 SWAP2 SUB SWAP1 RETURN JUMPDEST CALLVALUE DUP1 ISZERO PUSH2 0x117 JUMPI PUSH0 DUP1 REVERT JUMPDEST POP PUSH2 0x132 PUSH1 0x4 DUP1 CALLDATASIZE SUB DUP2 ADD SWAP1 PUSH2 0x12D SWAP2 SWAP1 PUSH2 0xCF8 JUMP JUMPDEST PUSH2 0x37E JUMP JUMPDEST PUSH1 0x40 MLOAD PUSH2 0x13F SWAP2 SWAP1 PUSH2 0xDC5 JUMP JUMPDEST PUSH1 0x40 MLOAD DUP1 SWAP2 SUB SWAP1 RETURN JUMPDEST CALLVALUE DUP1 ISZERO PUSH2 0x153 JUMPI PUSH0 DUP1 REVERT JUMPDEST POP PUSH2 0x15C PUSH2 0x43F JUMP JUMPDEST PUSH1 0x40 MLOAD PUSH2 0x169 SWAP2 SWAP1 PUSH2 0xE5F JUMP JUMPDEST PUSH1 0x40 MLOAD DUP1 SWAP2 SUB SWAP1 RETURN JUMPDEST CALLVALUE DUP1 ISZERO PUSH2 0x17D JUMPI PUSH0 DUP1 REVERT JUMPDEST POP PUSH2 0x198 PUSH1 0x4 DUP1 CALLDATASIZE SUB DUP2 ADD SWAP1 PUSH2 0x193 SWAP2 SWAP1 PUSH2 0xC09 JUMP JUMPDEST PUSH2 0x463 JUMP JUMPDEST PUSH1 0x40 MLOAD PUSH2 0x1A5 SWAP2 SWAP1 PUSH2 0xE92 JUMP JUMPDEST PUSH1 0x40 MLOAD DUP1 SWAP2 SUB SWAP1 RETURN JUMPDEST CALLVALUE DUP1 ISZERO PUSH2 0x1B9 JUMPI PUSH0 DUP1 REVERT JUMPDEST POP PUSH2 0x1D4 PUSH1 0x4 DUP1 CALLDATASIZE SUB DUP2 ADD SWAP1 PUSH2 0x1CF SWAP2 SWAP1 PUSH2 0xED5 JUMP JUMPDEST PUSH2 0x503 JUMP JUMPDEST STOP JUMPDEST CALLVALUE DUP1 ISZERO PUSH2 0x1E1 JUMPI PUSH0 DUP1 REVERT JUMPDEST POP PUSH2 0x1FC PUSH1 0x4 DUP1 CALLDATASIZE SUB DUP2 ADD SWAP1 PUSH2 0x1F7 SWAP2 SWAP1 PUSH2 0xC09 JUMP JUMPDEST PUSH2 0x5CB JUMP JUMPDEST PUSH1 0x40 MLOAD PUSH2 0x20C SWAP5 SWAP4 SWAP3 SWAP2 SWAP1 PUSH2 0xF85 JUMP JUMPDEST PUSH1 0x40 MLOAD DUP1 SWAP2 SUB SWAP1 RETURN JUMPDEST CALLVALUE DUP1 ISZERO PUSH2 0x220 JUMPI PUSH0 DUP1 REVERT JUMPDEST POP PUSH2 0x23B PUSH1 0x4 DUP1 CALLDATASIZE SUB DUP2 ADD SWAP1 PUSH2 0x236 SWAP2 SWAP1 PUSH2 0x10FE JUMP JUMPDEST PUSH2 0x722 JUMP JUMPDEST PUSH1 0x40 MLOAD PUSH2 0x248 SWAP2 SWAP1 PUSH2 0xDC5 JUMP JUMPDEST PUSH1 0x40 MLOAD DUP1 SWAP2 SUB SWAP1 RETURN JUMPDEST CALLVALUE DUP1 ISZERO PUSH2 0x25C JUMPI PUSH0 DUP1 REVERT JUMPDEST POP PUSH2 0x277 PUSH1 0x4 DUP1 CALLDATASIZE SUB DUP2 ADD SWAP1 PUSH2 0x272 SWAP2 SWAP1 PUSH2 0x11AD JUMP JUMPDEST PUSH2 0x7E0 JUMP JUMPDEST STOP JUMPDEST PUSH2 0x293 PUSH1 0x4 DUP1 CALLDATASIZE SUB DUP2 ADD SWAP1 PUSH2 0x28E SWAP2 SWAP1 PUSH2 0xCF8 JUMP JUMPDEST PUSH2 0x9E5 JUMP JUMPDEST STOP JUMPDEST PUSH0 PUSH32 0x0 PUSH20 0xFFFFFFFFFFFFFFFFFFFFFFFFFFFFFFFFFFFFFFFF AND PUSH3 0xE1D8D0 DUP4 PUSH1 0x2 PUSH0 DUP7 DUP2 MSTORE PUSH1 0x20 ADD SWAP1 DUP2 MSTORE PUSH1 0x20 ADD PUSH0 KECCAK256 PUSH0 SWAP1 SLOAD SWAP1 PUSH2 0x100 EXP SWAP1 DIV PUSH8 0xFFFFFFFFFFFFFFFF AND PUSH1 0x40 MLOAD DUP4 PUSH4 0xFFFFFFFF AND PUSH1 0xE0 SHL DUP2 MSTORE PUSH1 0x4 ADD PUSH2 0x314 SWAP3 SWAP2 SWAP1 PUSH2 0x126E JUMP JUMPDEST PUSH1 0x20 PUSH1 0x40 MLOAD DUP1 DUP4 SUB DUP2 DUP7 GAS STATICCALL ISZERO DUP1 ISZERO PUSH2 0x32F JUMPI RETURNDATASIZE PUSH0 DUP1 RETURNDATACOPY RETURNDATASIZE PUSH0 REVERT JUMPDEST POP POP POP POP PUSH1 0x40 MLOAD RETURNDATASIZE PUSH1 0x1F NOT PUSH1 0x1F DUP3 ADD AND DUP3 ADD DUP1 PUSH1 0x40 MSTORE POP DUP2 ADD SWAP1 PUSH2 0x353 SWAP2 SWAP1 PUSH2 0x12A9 JUMP JUMPDEST SWAP1 POP SWAP2 SWAP1 POP JUMP JUMPDEST PUSH1 0x2 PUSH1 0x20 MSTORE DUP1 PUSH0 MSTORE PUSH1 0x40 PUSH0 KECCAK256 PUSH0 SWAP2 POP SLOAD SWAP1 PUSH2 0x100 EXP SWAP1 DIV PUSH8 0xFFFFFFFFFFFFFFFF AND DUP2 JUMP JUMPDEST PUSH1 0x60 PUSH1 0x3 PUSH0 DUP6 DUP2 MSTORE PUSH1 0x20 ADD SWAP1 DUP2 MSTORE PUSH1 0x20 ADD PUSH0 KECCAK256 DUP4 DUP4 PUSH1 0x40 MLOAD PUSH2 0x3A1 SWAP3 SWAP2 SWAP1 PUSH2 0x1302 JUMP JUMPDEST SWAP1 DUP2 MSTORE PUSH1 0x20 ADD PUSH1 0x40 MLOAD DUP1 SWAP2 SUB SWAP1 KECCAK256 DUP1 SLOAD PUSH2 0x3BA SWAP1 PUSH2 0x1347 JUMP JUMPDEST DUP1 PUSH1 0x1F ADD PUSH1 0x20 DUP1 SWAP2 DIV MUL PUSH1 0x20 ADD PUSH1 0x40 MLOAD SWAP1 DUP2 ADD PUSH1 0x40 MSTORE DUP1 SWAP3 SWAP2 SWAP1 DUP2 DUP2 MSTORE PUSH1 0x20 ADD DUP3 DUP1 SLOAD PUSH2 0x3E6 SWAP1 PUSH2 0x1347 JUMP JUMPDEST DUP1 ISZERO PUSH2 0x431 JUMPI DUP1 PUSH1 0x1F LT PUSH2 0x408 JUMPI PUSH2 0x100 DUP1 DUP4 SLOAD DIV MUL DUP4 MSTORE SWAP2 PUSH1 0x20 ADD SWAP2 PUSH2 0x431 JUMP JUMPDEST DUP3 ADD SWAP2 SWAP1 PUSH0 MSTORE PUSH1 0x20 PUSH0 KECCAK256 SWAP1 JUMPDEST DUP2 SLOAD DUP2 MSTORE SWAP1 PUSH1 0x1 ADD SWAP1 PUSH1 0x20 ADD DUP1 DUP4 GT PUSH2 0x414 JUMPI DUP3 SWAP1 SUB PUSH1 0x1F AND DUP3 ADD SWAP2 JUMPDEST POP POP POP POP POP SWAP1 POP SWAP4 SWAP3 POP POP POP JUMP JUMPDEST PUSH32 0x0 DUP2 JUMP JUMPDEST PUSH0 PUSH32 0x0 PUSH20 0xFFFFFFFFFFFFFFFFFFFFFFFFFFFFFFFFFFFFFFFF AND PUSH4 0x33727C4D DUP4 PUSH1 0x40 MLOAD DUP3 PUSH4 0xFFFFFFFF AND PUSH1 0xE0 SHL DUP2 MSTORE PUSH1 0x4 ADD PUSH2 0x4BD SWAP2 SWAP1 PUSH2 0xC43 JUMP JUMPDEST PUSH1 0x20 PUSH1 0x40 MLOAD DUP1 DUP4 SUB DUP2 DUP7 GAS STATICCALL ISZERO DUP1 ISZERO PUSH2 0x4D8 JUMPI RETURNDATASIZE PUSH0 DUP1 RETURNDATACOPY RETURNDATASIZE PUSH0 REVERT JUMPDEST POP POP POP POP PUSH1 0x40 MLOAD RETURNDATASIZE PUSH1 0x1F NOT PUSH1 0x1F DUP3 ADD AND DUP3 ADD DUP1 PUSH1 0x40 MSTORE POP DUP2 ADD SWAP1 PUSH2 0x4FC SWAP2 SWAP1 PUSH2 0x13A1 JUMP JUMPDEST SWAP1 POP SWAP2 SWAP1 POP JUMP JUMPDEST PUSH0 DUP1 SLOAD SWAP1 PUSH2 0x100 EXP SWAP1 DIV PUSH20 0xFFFFFFFFFFFFFFFFFFFFFFFFFFFFFFFFFFFFFFFF AND PUSH20 0xFFFFFFFFFFFFFFFFFFFFFFFFFFFFFFFFFFFFFFFF AND CALLER PUSH20 0xFFFFFFFFFFFFFFFFFFFFFFFFFFFFFFFFFFFFFFFF AND EQ PUSH2 0x590 JUMPI PUSH1 0x40 MLOAD PUSH32 0x8C379A000000000000000000000000000000000000000000000000000000000 DUP2 MSTORE PUSH1 0x4 ADD PUSH2 0x587 SWAP1 PUSH2 0x1416 JUMP JUMPDEST PUSH1 0x40 MLOAD DUP1 SWAP2 SUB SWAP1 REVERT JUMPDEST DUP1 PUSH1 0x2 PUSH0 DUP5 DUP2 MSTORE PUSH1 0x20 ADD SWAP1 DUP2 MSTORE PUSH1 0x20 ADD PUSH0 KECCAK256 PUSH0 PUSH2 0x100 EXP DUP2 SLOAD DUP2 PUSH8 0xFFFFFFFFFFFFFFFF MUL NOT AND SWAP1 DUP4 PUSH8 0xFFFFFFFFFFFFFFFF AND MUL OR SWAP1 SSTORE POP POP POP JUMP JUMPDEST PUSH1 0x1 PUSH1 0x20 MSTORE DUP1 PUSH0 MSTORE PUSH1 0x40 PUSH0 KECCAK256 PUSH0 SWAP2 POP SWAP1 POP DUP1 PUSH0 ADD PUSH0 SWAP1 SLOAD SWAP1 PUSH2 0x100 EXP SWAP1 DIV PUSH20 0xFFFFFFFFFFFFFFFFFFFFFFFFFFFFFFFFFFFFFFFF AND SWAP1 DUP1 PUSH1 0x1 ADD SLOAD SWAP1 DUP1 PUSH1 0x2 ADD DUP1 SLOAD PUSH2 0x615 SWAP1 PUSH2 0x1347 JUMP JUMPDEST DUP1 PUSH1 0x1F ADD PUSH1 0x20 DUP1 SWAP2 DIV MUL PUSH1 0x20 ADD PUSH1 0x40 MLOAD SWAP1 DUP2 ADD PUSH1 0x40 MSTORE DUP1 SWAP3 SWAP2 SWAP1 DUP2 DUP2 MSTORE PUSH1 0x20 ADD DUP3 DUP1 SLOAD PUSH2 0x641 SWAP1 PUSH2 0x1347 JUMP JUMPDEST DUP1 ISZERO PUSH2 0x68C JUMPI DUP1 PUSH1 0x1F LT PUSH2 0x663 JUMPI PUSH2 0x100 DUP1 DUP4 SLOAD DIV MUL DUP4 MSTORE SWAP2 PUSH1 0x20 ADD SWAP2 PUSH2 0x68C JUMP JUMPDEST DUP3 ADD SWAP2 SWAP1 PUSH0 MSTORE PUSH1 0x20 PUSH0 KECCAK256 SWAP1 JUMPDEST DUP2 SLOAD DUP2 MSTORE SWAP1 PUSH1 0x1 ADD SWAP1 PUSH1 0x20 ADD DUP1 DUP4 GT PUSH2 0x66F JUMPI DUP3 SWAP1 SUB PUSH1 0x1F AND DUP3 ADD SWAP2 JUMPDEST POP POP POP POP POP SWAP1 DUP1 PUSH1 0x3 ADD DUP1 SLOAD PUSH2 0x6A1 SWAP1 PUSH2 0x1347 JUMP JUMPDEST DUP1 PUSH1 0x1F ADD PUSH1 0x20 DUP1 SWAP2 DIV MUL PUSH1 0x20 ADD PUSH1 0x40 MLOAD SWAP1 DUP2 ADD PUSH1 0x40 MSTORE DUP1 SWAP3 SWAP2 SWAP1 DUP2 DUP2 MSTORE PUSH1 0x20 ADD DUP3 DUP1 SLOAD PUSH2 0x6CD SWAP1 PUSH2 0x1347 JUMP JUMPDEST DUP1 ISZERO PUSH2 0x718 JUMPI DUP1 PUSH1 0x1F LT PUSH2 0x6EF JUMPI PUSH2 0x100 DUP1 DUP4 SLOAD DIV MUL DUP4 MSTORE SWAP2 PUSH1 0x20 ADD SWAP2 PUSH2 0x718 JUMP JUMPDEST DUP3 ADD SWAP2 SWAP1 PUSH0 MSTORE PUSH1 0x20 PUSH0 KECCAK256 SWAP1 JUMPDEST DUP2 SLOAD DUP2 MSTORE SWAP1 PUSH1 0x1 ADD SWAP1 PUSH1 0x20 ADD DUP1 DUP4 GT PUSH2 0x6FB JUMPI DUP3 SWAP1 SUB PUSH1 0x1F AND DUP3 ADD SWAP2 JUMPDEST POP POP POP POP POP SWAP1 POP DUP5 JUMP JUMPDEST PUSH1 0x3 PUSH1 0x20 MSTORE DUP2 PUSH0 MSTORE PUSH1 0x40 PUSH0 KECCAK256 DUP2 DUP1 MLOAD PUSH1 0x20 DUP2 ADD DUP3 ADD DUP1 MLOAD DUP5 DUP3 MSTORE PUSH1 0x20 DUP4 ADD PUSH1 0x20 DUP6 ADD KECCAK256 DUP2 DUP4 MSTORE DUP1 SWAP6 POP POP POP POP POP POP PUSH0 SWAP2 POP SWAP2 POP POP DUP1 SLOAD PUSH2 0x761 SWAP1 PUSH2 0x1347 JUMP JUMPDEST DUP1 PUSH1 0x1F ADD PUSH1 0x20 DUP1 SWAP2 DIV MUL PUSH1 0x20 ADD PUSH1 0x40 MLOAD SWAP1 DUP2 ADD PUSH1 0x40 MSTORE DUP1 SWAP3 SWAP2 SWAP1 DUP2 DUP2 MSTORE PUSH1 0x20 ADD DUP3 DUP1 SLOAD PUSH2 0x78D SWAP1 PUSH2 0x1347 JUMP JUMPDEST DUP1 ISZERO PUSH2 0x7D8 JUMPI DUP1 PUSH1 0x1F LT PUSH2 0x7AF JUMPI PUSH2 0x100 DUP1 DUP4 SLOAD DIV MUL DUP4 MSTORE SWAP2 PUSH1 0x20 ADD SWAP2 PUSH2 0x7D8 JUMP JUMPDEST DUP3 ADD SWAP2 SWAP1 PUSH0 MSTORE PUSH1 0x20 PUSH0 KECCAK256 SWAP1 JUMPDEST DUP2 SLOAD DUP2 MSTORE SWAP1 PUSH1 0x1 ADD SWAP1 PUSH1 0x20 ADD DUP1 DUP4 GT PUSH2 0x7BB JUMPI DUP3 SWAP1 SUB PUSH1 0x1F AND DUP3 ADD SWAP2 JUMPDEST POP POP POP POP POP DUP2 JUMP JUMPDEST PUSH0 CALLER SWAP1 POP PUSH32 0x0 PUSH20 0xFFFFFFFFFFFFFFFFFFFFFFFFFFFFFFFFFFFFFFFF AND DUP2 PUSH20 0xFFFFFFFFFFFFFFFFFFFFFFFFFFFFFFFFFFFFFFFF AND EQ PUSH2 0x896 JUMPI PUSH32 0x0 DUP2 PUSH1 0x40 MLOAD PUSH32 0x865C066E00000000000000000000000000000000000000000000000000000000 DUP2 MSTORE PUSH1 0x4 ADD PUSH2 0x88D SWAP3 SWAP2 SWAP1 PUSH2 0x1434 JUMP JUMPDEST PUSH1 0x40 MLOAD DUP1 SWAP2 SUB SWAP1 REVERT JUMPDEST PUSH0 PUSH1 0x1 PUSH0 DUP9 DUP2 MSTORE PUSH1 0x20 ADD SWAP1 DUP2 MSTORE PUSH1 0x20 ADD PUSH0 KECCAK256 SWAP1 POP PUSH0 PUSH20 0xFFFFFFFFFFFFFFFFFFFFFFFFFFFFFFFFFFFFFFFF AND DUP2 PUSH0 ADD PUSH0 SWAP1 SLOAD SWAP1 PUSH2 0x100 EXP SWAP1 DIV PUSH20 0xFFFFFFFFFFFFFFFFFFFFFFFFFFFFFFFFFFFFFFFF AND PUSH20 0xFFFFFFFFFFFFFFFFFFFFFFFFFFFFFFFFFFFFFFFF AND SUB PUSH2 0x93A JUMPI PUSH1 0x40 MLOAD PUSH32 0x8C379A000000000000000000000000000000000000000000000000000000000 DUP2 MSTORE PUSH1 0x4 ADD PUSH2 0x931 SWAP1 PUSH2 0x14A5 JUMP JUMPDEST PUSH1 0x40 MLOAD DUP1 SWAP2 SUB SWAP1 REVERT JUMPDEST DUP6 DUP6 DUP3 PUSH1 0x3 ADD SWAP2 DUP3 PUSH2 0x94D SWAP3 SWAP2 SWAP1 PUSH2 0x1661 JUMP JUMPDEST POP DUP6 DUP6 PUSH1 0x3 PUSH0 DUP5 PUSH1 0x1 ADD SLOAD DUP2 MSTORE PUSH1 0x20 ADD SWAP1 DUP2 MSTORE PUSH1 0x20 ADD PUSH0 KECCAK256 DUP4 PUSH1 0x2 ADD PUSH1 0x40 MLOAD PUSH2 0x976 SWAP2 SWAP1 PUSH2 0x17C0 JUMP JUMPDEST SWAP1 DUP2 MSTORE PUSH1 0x20 ADD PUSH1 0x40 MLOAD DUP1 SWAP2 SUB SWAP1 KECCAK256 SWAP2 DUP3 PUSH2 0x991 SWAP3 SWAP2 SWAP1 PUSH2 0x1838 JUMP JUMPDEST POP PUSH32 0xAF2B2381DDCB18A2B18A7826186FD216ACDD9C852A8C7A9A49E7EAB127F96CCF DUP8 DUP3 PUSH1 0x1 ADD SLOAD DUP4 PUSH1 0x2 ADD DUP10 DUP10 DUP10 DUP10 PUSH1 0x40 MLOAD PUSH2 0x9D4 SWAP8 SWAP7 SWAP6 SWAP5 SWAP4 SWAP3 SWAP2 SWAP1 PUSH2 0x19DE JUMP JUMPDEST PUSH1 0x40 MLOAD DUP1 SWAP2 SUB SWAP1 LOG1 POP POP POP POP POP POP POP JUMP JUMPDEST PUSH0 DUP3 DUP3 DUP1 DUP1 PUSH1 0x1F ADD PUSH1 0x20 DUP1 SWAP2 DIV MUL PUSH1 0x20 ADD PUSH1 0x40 MLOAD SWAP1 DUP2 ADD PUSH1 0x40 MSTORE DUP1 SWAP4 SWAP3 SWAP2 SWAP1 DUP2 DUP2 MSTORE PUSH1 0x20 ADD DUP4 DUP4 DUP1 DUP3 DUP5 CALLDATACOPY PUSH0 DUP2 DUP5 ADD MSTORE PUSH1 0x1F NOT PUSH1 0x1F DUP3 ADD AND SWAP1 POP DUP1 DUP4 ADD SWAP3 POP POP POP POP POP POP POP SWAP1 POP PUSH0 PUSH1 0x40 MLOAD DUP1 PUSH1 0x20 ADD PUSH1 0x40 MSTORE DUP1 PUSH0 DUP2 MSTORE POP SWAP1 POP PUSH0 ADDRESS SWAP1 POP PUSH0 PUSH32 0x0 PUSH20 0xFFFFFFFFFFFFFFFFFFFFFFFFFFFFFFFFFFFFFFFF AND PUSH4 0x5B953806 CALLVALUE DUP10 DUP8 DUP7 PUSH1 0x2 PUSH0 DUP15 DUP2 MSTORE PUSH1 0x20 ADD SWAP1 DUP2 MSTORE PUSH1 0x20 ADD PUSH0 KECCAK256 PUSH0 SWAP1 SLOAD SWAP1 PUSH2 0x100 EXP SWAP1 DIV PUSH8 0xFFFFFFFFFFFFFFFF AND DUP10 PUSH1 0x40 MLOAD DUP8 PUSH4 0xFFFFFFFF AND PUSH1 0xE0 SHL DUP2 MSTORE PUSH1 0x4 ADD PUSH2 0xAC9 SWAP6 SWAP5 SWAP4 SWAP3 SWAP2 SWAP1 PUSH2 0x1A48 JUMP JUMPDEST PUSH1 0x20 PUSH1 0x40 MLOAD DUP1 DUP4 SUB DUP2 DUP6 DUP9 GAS CALL ISZERO DUP1 ISZERO PUSH2 0xAE5 JUMPI RETURNDATASIZE PUSH0 DUP1 RETURNDATACOPY RETURNDATASIZE PUSH0 REVERT JUMPDEST POP POP POP POP POP PUSH1 0x40 MLOAD RETURNDATASIZE PUSH1 0x1F NOT PUSH1 0x1F DUP3 ADD AND DUP3 ADD DUP1 PUSH1 0x40 MSTORE POP DUP2 ADD SWAP1 PUSH2 0xB0A SWAP2 SWAP1 PUSH2 0x12A9 JUMP JUMPDEST SWAP1 POP PUSH0 PUSH1 0x1 PUSH0 DUP4 DUP2 MSTORE PUSH1 0x20 ADD SWAP1 DUP2 MSTORE PUSH1 0x20 ADD PUSH0 KECCAK256 SWAP1 POP DUP5 DUP2 PUSH1 0x2 ADD SWAP1 DUP2 PUSH2 0xB31 SWAP2 SWAP1 PUSH2 0x1AA7 JUMP JUMPDEST POP CALLER DUP2 PUSH0 ADD PUSH0 PUSH2 0x100 EXP DUP2 SLOAD DUP2 PUSH20 0xFFFFFFFFFFFFFFFFFFFFFFFFFFFFFFFFFFFFFFFF MUL NOT AND SWAP1 DUP4 PUSH20 0xFFFFFFFFFFFFFFFFFFFFFFFFFFFFFFFFFFFFFFFF AND MUL OR SWAP1 SSTORE POP DUP8 DUP2 PUSH1 0x1 ADD DUP2 SWAP1 SSTORE POP PUSH32 0xA0FAEAD83D70148AE18B694377F9BEF079251342AB90E14AF0F9EF68B891269F DUP3 CALLER DUP11 DUP11 DUP11 PUSH1 0x40 MLOAD PUSH2 0xBB3 SWAP6 SWAP5 SWAP4 SWAP3 SWAP2 SWAP1 PUSH2 0x1B76 JUMP JUMPDEST PUSH1 0x40 MLOAD DUP1 SWAP2 SUB SWAP1 LOG1 POP POP POP POP POP POP POP POP JUMP JUMPDEST PUSH0 PUSH1 0x40 MLOAD SWAP1 POP SWAP1 JUMP JUMPDEST PUSH0 DUP1 REVERT JUMPDEST PUSH0 DUP1 REVERT JUMPDEST PUSH0 DUP2 SWAP1 POP SWAP2 SWAP1 POP JUMP JUMPDEST PUSH2 0xBE8 DUP2 PUSH2 0xBD6 JUMP JUMPDEST DUP2 EQ PUSH2 0xBF2 JUMPI PUSH0 DUP1 REVERT JUMPDEST POP JUMP JUMPDEST PUSH0 DUP2 CALLDATALOAD SWAP1 POP PUSH2 0xC03 DUP2 PUSH2 0xBDF JUMP JUMPDEST SWAP3 SWAP2 POP POP JUMP JUMPDEST PUSH0 PUSH1 0x20 DUP3 DUP5 SUB SLT ISZERO PUSH2 0xC1E JUMPI PUSH2 0xC1D PUSH2 0xBCE JUMP JUMPDEST JUMPDEST PUSH0 PUSH2 0xC2B DUP5 DUP3 DUP6 ADD PUSH2 0xBF5 JUMP JUMPDEST SWAP2 POP POP SWAP3 SWAP2 POP POP JUMP JUMPDEST PUSH2 0xC3D DUP2 PUSH2 0xBD6 JUMP JUMPDEST DUP3 MSTORE POP POP JUMP JUMPDEST PUSH0 PUSH1 0x20 DUP3 ADD SWAP1 POP PUSH2 0xC56 PUSH0 DUP4 ADD DUP5 PUSH2 0xC34 JUMP JUMPDEST SWAP3 SWAP2 POP POP JUMP JUMPDEST PUSH0 PUSH8 0xFFFFFFFFFFFFFFFF DUP3 AND SWAP1 POP SWAP2 SWAP1 POP JUMP JUMPDEST PUSH2 0xC78 DUP2 PUSH2 0xC5C JUMP JUMPDEST DUP3 MSTORE POP POP JUMP JUMPDEST PUSH0 PUSH1 0x20 DUP3 ADD SWAP1 POP PUSH2 0xC91 PUSH0 DUP4 ADD DUP5 PUSH2 0xC6F JUMP JUMPDEST SWAP3 SWAP2 POP POP JUMP JUMPDEST PUSH0 DUP1 REVERT JUMPDEST PUSH0 DUP1 REVERT JUMPDEST PUSH0 DUP1 REVERT JUMPDEST PUSH0 DUP1 DUP4 PUSH1 0x1F DUP5 ADD SLT PUSH2 0xCB8 JUMPI PUSH2 0xCB7 PUSH2 0xC97 JUMP JUMPDEST JUMPDEST DUP3 CALLDATALOAD SWAP1 POP PUSH8 0xFFFFFFFFFFFFFFFF DUP2 GT ISZERO PUSH2 0xCD5 JUMPI PUSH2 0xCD4 PUSH2 0xC9B JUMP JUMPDEST JUMPDEST PUSH1 0x20 DUP4 ADD SWAP2 POP DUP4 PUSH1 0x1 DUP3 MUL DUP4 ADD GT ISZERO PUSH2 0xCF1 JUMPI PUSH2 0xCF0 PUSH2 0xC9F JUMP JUMPDEST JUMPDEST SWAP3 POP SWAP3 SWAP1 POP JUMP JUMPDEST PUSH0 DUP1 PUSH0 PUSH1 0x40 DUP5 DUP7 SUB SLT ISZERO PUSH2 0xD0F JUMPI PUSH2 0xD0E PUSH2 0xBCE JUMP JUMPDEST JUMPDEST PUSH0 PUSH2 0xD1C DUP7 DUP3 DUP8 ADD PUSH2 0xBF5 JUMP JUMPDEST SWAP4 POP POP PUSH1 0x20 DUP5 ADD CALLDATALOAD PUSH8 0xFFFFFFFFFFFFFFFF DUP2 GT ISZERO PUSH2 0xD3D JUMPI PUSH2 0xD3C PUSH2 0xBD2 JUMP JUMPDEST JUMPDEST PUSH2 0xD49 DUP7 DUP3 DUP8 ADD PUSH2 0xCA3 JUMP JUMPDEST SWAP3 POP SWAP3 POP POP SWAP3 POP SWAP3 POP SWAP3 JUMP JUMPDEST PUSH0 DUP2 MLOAD SWAP1 POP SWAP2 SWAP1 POP JUMP JUMPDEST PUSH0 DUP3 DUP3 MSTORE PUSH1 0x20 DUP3 ADD SWAP1 POP SWAP3 SWAP2 POP POP JUMP JUMPDEST DUP3 DUP2 DUP4 MCOPY PUSH0 DUP4 DUP4 ADD MSTORE POP POP POP JUMP JUMPDEST PUSH0 PUSH1 0x1F NOT PUSH1 0x1F DUP4 ADD AND SWAP1 POP SWAP2 SWAP1 POP JUMP JUMPDEST PUSH0 PUSH2 0xD97 DUP3 PUSH2 0xD55 JUMP JUMPDEST PUSH2 0xDA1 DUP2 DUP6 PUSH2 0xD5F JUMP JUMPDEST SWAP4 POP PUSH2 0xDB1 DUP2 DUP6 PUSH1 0x20 DUP7 ADD PUSH2 0xD6F JUMP JUMPDEST PUSH2 0xDBA DUP2 PUSH2 0xD7D JUMP JUMPDEST DUP5 ADD SWAP2 POP POP SWAP3 SWAP2 POP POP JUMP JUMPDEST PUSH0 PUSH1 0x20 DUP3 ADD SWAP1 POP DUP2 DUP2 SUB PUSH0 DUP4 ADD MSTORE PUSH2 0xDDD DUP2 DUP5 PUSH2 0xD8D JUMP JUMPDEST SWAP1 POP SWAP3 SWAP2 POP POP JUMP JUMPDEST PUSH0 PUSH20 0xFFFFFFFFFFFFFFFFFFFFFFFFFFFFFFFFFFFFFFFF DUP3 AND SWAP1 POP SWAP2 SWAP1 POP JUMP JUMPDEST PUSH0 DUP2 SWAP1 POP SWAP2 SWAP1 POP JUMP JUMPDEST PUSH0 PUSH2 0xE27 PUSH2 0xE22 PUSH2 0xE1D DUP5 PUSH2 0xDE5 JUMP JUMPDEST PUSH2 0xE04 JUMP JUMPDEST PUSH2 0xDE5 JUMP JUMPDEST SWAP1 POP SWAP2 SWAP1 POP JUMP JUMPDEST PUSH0 PUSH2 0xE38 DUP3 PUSH2 0xE0D JUMP JUMPDEST SWAP1 POP SWAP2 SWAP1 POP JUMP JUMPDEST PUSH0 PUSH2 0xE49 DUP3 PUSH2 0xE2E JUMP JUMPDEST SWAP1 POP SWAP2 SWAP1 POP JUMP JUMPDEST PUSH2 0xE59 DUP2 PUSH2 0xE3F JUMP JUMPDEST DUP3 MSTORE POP POP JUMP JUMPDEST PUSH0 PUSH1 0x20 DUP3 ADD SWAP1 POP PUSH2 0xE72 PUSH0 DUP4 ADD DUP5 PUSH2 0xE50 JUMP JUMPDEST SWAP3 SWAP2 POP POP JUMP JUMPDEST PUSH0 DUP2 ISZERO ISZERO SWAP1 POP SWAP2 SWAP1 POP JUMP JUMPDEST PUSH2 0xE8C DUP2 PUSH2 0xE78 JUMP JUMPDEST DUP3 MSTORE POP POP JUMP JUMPDEST PUSH0 PUSH1 0x20 DUP3 ADD SWAP1 POP PUSH2 0xEA5 PUSH0 DUP4 ADD DUP5 PUSH2 0xE83 JUMP JUMPDEST SWAP3 SWAP2 POP POP JUMP JUMPDEST PUSH2 0xEB4 DUP2 PUSH2 0xC5C JUMP JUMPDEST DUP2 EQ PUSH2 0xEBE JUMPI PUSH0 DUP1 REVERT JUMPDEST POP JUMP JUMPDEST PUSH0 DUP2 CALLDATALOAD SWAP1 POP PUSH2 0xECF DUP2 PUSH2 0xEAB JUMP JUMPDEST SWAP3 SWAP2 POP POP JUMP JUMPDEST PUSH0 DUP1 PUSH1 0x40 DUP4 DUP6 SUB SLT ISZERO PUSH2 0xEEB JUMPI PUSH2 0xEEA PUSH2 0xBCE JUMP JUMPDEST JUMPDEST PUSH0 PUSH2 0xEF8 DUP6 DUP3 DUP7 ADD PUSH2 0xBF5 JUMP JUMPDEST SWAP3 POP POP PUSH1 0x20 PUSH2 0xF09 DUP6 DUP3 DUP7 ADD PUSH2 0xEC1 JUMP JUMPDEST SWAP2 POP POP SWAP3 POP SWAP3 SWAP1 POP JUMP JUMPDEST PUSH0 PUSH2 0xF1D DUP3 PUSH2 0xDE5 JUMP JUMPDEST SWAP1 POP SWAP2 SWAP1 POP JUMP JUMPDEST PUSH2 0xF2D DUP2 PUSH2 0xF13 JUMP JUMPDEST DUP3 MSTORE POP POP JUMP JUMPDEST PUSH0 DUP2 MLOAD SWAP1 POP SWAP2 SWAP1 POP JUMP JUMPDEST PUSH0 DUP3 DUP3 MSTORE PUSH1 0x20 DUP3 ADD SWAP1 POP SWAP3 SWAP2 POP POP JUMP JUMPDEST PUSH0 PUSH2 0xF57 DUP3 PUSH2 0xF33 JUMP JUMPDEST PUSH2 0xF61 DUP2 DUP6 PUSH2 0xF3D JUMP JUMPDEST SWAP4 POP PUSH2 0xF71 DUP2 DUP6 PUSH1 0x20 DUP7 ADD PUSH2 0xD6F JUMP JUMPDEST PUSH2 0xF7A DUP2 PUSH2 0xD7D JUMP JUMPDEST DUP5 ADD SWAP2 POP POP SWAP3 SWAP2 POP POP JUMP JUMPDEST PUSH0 PUSH1 0x80 DUP3 ADD SWAP1 POP PUSH2 0xF98 PUSH0 DUP4 ADD DUP8 PUSH2 0xF24 JUMP JUMPDEST PUSH2 0xFA5 PUSH1 0x20 DUP4 ADD DUP7 PUSH2 0xC34 JUMP JUMPDEST DUP2 DUP2 SUB PUSH1 0x40 DUP4 ADD MSTORE PUSH2 0xFB7 DUP2 DUP6 PUSH2 0xF4D JUMP JUMPDEST SWAP1 POP DUP2 DUP2 SUB PUSH1 0x60 DUP4 ADD MSTORE PUSH2 0xFCB DUP2 DUP5 PUSH2 0xF4D JUMP JUMPDEST SWAP1 POP SWAP6 SWAP5 POP POP POP POP POP JUMP JUMPDEST PUSH0 DUP1 REVERT JUMPDEST PUSH32 0x4E487B7100000000000000000000000000000000000000000000000000000000 PUSH0 MSTORE PUSH1 0x41 PUSH1 0x4 MSTORE PUSH1 0x24 PUSH0 REVERT JUMPDEST PUSH2 0x1010 DUP3 PUSH2 0xD7D JUMP JUMPDEST DUP2 ADD DUP2 DUP2 LT PUSH8 0xFFFFFFFFFFFFFFFF DUP3 GT OR ISZERO PUSH2 0x102F JUMPI PUSH2 0x102E PUSH2 0xFDA JUMP JUMPDEST JUMPDEST DUP1 PUSH1 0x40 MSTORE POP POP POP JUMP JUMPDEST PUSH0 PUSH2 0x1041 PUSH2 0xBC5 JUMP JUMPDEST SWAP1 POP PUSH2 0x104D DUP3 DUP3 PUSH2 0x1007 JUMP JUMPDEST SWAP2 SWAP1 POP JUMP JUMPDEST PUSH0 PUSH8 0xFFFFFFFFFFFFFFFF DUP3 GT ISZERO PUSH2 0x106C JUMPI PUSH2 0x106B PUSH2 0xFDA JUMP JUMPDEST JUMPDEST PUSH2 0x1075 DUP3 PUSH2 0xD7D JUMP JUMPDEST SWAP1 POP PUSH1 0x20 DUP2 ADD SWAP1 POP SWAP2 SWAP1 POP JUMP JUMPDEST DUP3 DUP2 DUP4 CALLDATACOPY PUSH0 DUP4 DUP4 ADD MSTORE POP POP POP JUMP JUMPDEST PUSH0 PUSH2 0x10A2 PUSH2 0x109D DUP5 PUSH2 0x1052 JUMP JUMPDEST PUSH2 0x1038 JUMP JUMPDEST SWAP1 POP DUP3 DUP2 MSTORE PUSH1 0x20 DUP2 ADD DUP5 DUP5 DUP5 ADD GT ISZERO PUSH2 0x10BE JUMPI PUSH2 0x10BD PUSH2 0xFD6 JUMP JUMPDEST JUMPDEST PUSH2 0x10C9 DUP5 DUP3 DUP6 PUSH2 0x1082 JUMP JUMPDEST POP SWAP4 SWAP3 POP POP POP JUMP JUMPDEST PUSH0 DUP3 PUSH1 0x1F DUP4 ADD SLT PUSH2 0x10E5 JUMPI PUSH2 0x10E4 PUSH2 0xC97 JUMP JUMPDEST JUMPDEST DUP2 CALLDATALOAD PUSH2 0x10F5 DUP5 DUP3 PUSH1 0x20 DUP7 ADD PUSH2 0x1090 JUMP JUMPDEST SWAP2 POP POP SWAP3 SWAP2 POP POP JUMP JUMPDEST PUSH0 DUP1 PUSH1 0x40 DUP4 DUP6 SUB SLT ISZERO PUSH2 0x1114 JUMPI PUSH2 0x1113 PUSH2 0xBCE JUMP JUMPDEST JUMPDEST PUSH0 PUSH2 0x1121 DUP6 DUP3 DUP7 ADD PUSH2 0xBF5 JUMP JUMPDEST SWAP3 POP POP PUSH1 0x20 DUP4 ADD CALLDATALOAD PUSH8 0xFFFFFFFFFFFFFFFF DUP2 GT ISZERO PUSH2 0x1142 JUMPI PUSH2 0x1141 PUSH2 0xBD2 JUMP JUMPDEST JUMPDEST PUSH2 0x114E DUP6 DUP3 DUP7 ADD PUSH2 0x10D1 JUMP JUMPDEST SWAP2 POP POP SWAP3 POP SWAP3 SWAP1 POP JUMP JUMPDEST PUSH0 DUP1 DUP4 PUSH1 0x1F DUP5 ADD SLT PUSH2 0x116D JUMPI PUSH2 0x116C PUSH2 0xC97 JUMP JUMPDEST JUMPDEST DUP3 CALLDATALOAD SWAP1 POP PUSH8 0xFFFFFFFFFFFFFFFF DUP2 GT ISZERO PUSH2 0x118A JUMPI PUSH2 0x1189 PUSH2 0xC9B JUMP JUMPDEST JUMPDEST PUSH1 0x20 DUP4 ADD SWAP2 POP DUP4 PUSH1 0x1 DUP3 MUL DUP4 ADD GT ISZERO PUSH2 0x11A6 JUMPI PUSH2 0x11A5 PUSH2 0xC9F JUMP JUMPDEST JUMPDEST SWAP3 POP SWAP3 SWAP1 POP JUMP JUMPDEST PUSH0 DUP1 PUSH0 DUP1 PUSH0 PUSH1 0x60 DUP7 DUP9 SUB SLT ISZERO PUSH2 0x11C6 JUMPI PUSH2 0x11C5 PUSH2 0xBCE JUMP JUMPDEST JUMPDEST PUSH0 PUSH2 0x11D3 DUP9 DUP3 DUP10 ADD PUSH2 0xBF5 JUMP JUMPDEST SWAP6 POP POP PUSH1 0x20 DUP7 ADD CALLDATALOAD PUSH8 0xFFFFFFFFFFFFFFFF DUP2 GT ISZERO PUSH2 0x11F4 JUMPI PUSH2 0x11F3 PUSH2 0xBD2 JUMP JUMPDEST JUMPDEST PUSH2 0x1200 DUP9 DUP3 DUP10 ADD PUSH2 0x1158 JUMP JUMPDEST SWAP5 POP SWAP5 POP POP PUSH1 0x40 DUP7 ADD CALLDATALOAD PUSH8 0xFFFFFFFFFFFFFFFF DUP2 GT ISZERO PUSH2 0x1223 JUMPI PUSH2 0x1222 PUSH2 0xBD2 JUMP JUMPDEST JUMPDEST PUSH2 0x122F DUP9 DUP3 DUP10 ADD PUSH2 0x1158 JUMP JUMPDEST SWAP3 POP SWAP3 POP POP SWAP3 SWAP6 POP SWAP3 SWAP6 SWAP1 SWAP4 POP JUMP JUMPDEST PUSH0 PUSH2 0x1258 PUSH2 0x1253 PUSH2 0x124E DUP5 PUSH2 0xC5C JUMP JUMPDEST PUSH2 0xE04 JUMP JUMPDEST PUSH2 0xBD6 JUMP JUMPDEST SWAP1 POP SWAP2 SWAP1 POP JUMP JUMPDEST PUSH2 0x1268 DUP2 PUSH2 0x123E JUMP JUMPDEST DUP3 MSTORE POP POP JUMP JUMPDEST PUSH0 PUSH1 0x40 DUP3 ADD SWAP1 POP PUSH2 0x1281 PUSH0 DUP4 ADD DUP6 PUSH2 0xC34 JUMP JUMPDEST PUSH2 0x128E PUSH1 0x20 DUP4 ADD DUP5 PUSH2 0x125F JUMP JUMPDEST SWAP4 SWAP3 POP POP POP JUMP JUMPDEST PUSH0 DUP2 MLOAD SWAP1 POP PUSH2 0x12A3 DUP2 PUSH2 0xBDF JUMP JUMPDEST SWAP3 SWAP2 POP POP JUMP JUMPDEST PUSH0 PUSH1 0x20 DUP3 DUP5 SUB SLT ISZERO PUSH2 0x12BE JUMPI PUSH2 0x12BD PUSH2 0xBCE JUMP JUMPDEST JUMPDEST PUSH0 PUSH2 0x12CB DUP5 DUP3 DUP6 ADD PUSH2 0x1295 JUMP JUMPDEST SWAP2 POP POP SWAP3 SWAP2 POP POP JUMP JUMPDEST PUSH0 DUP2 SWAP1 POP SWAP3 SWAP2 POP POP JUMP JUMPDEST PUSH0 PUSH2 0x12E9 DUP4 DUP6 PUSH2 0x12D4 JUMP JUMPDEST SWAP4 POP PUSH2 0x12F6 DUP4 DUP6 DUP5 PUSH2 0x1082 JUMP JUMPDEST DUP3 DUP5 ADD SWAP1 POP SWAP4 SWAP3 POP POP POP JUMP JUMPDEST PUSH0 PUSH2 0x130E DUP3 DUP5 DUP7 PUSH2 0x12DE JUMP JUMPDEST SWAP2 POP DUP2 SWAP1 POP SWAP4 SWAP3 POP POP POP JUMP JUMPDEST PUSH32 0x4E487B7100000000000000000000000000000000000000000000000000000000 PUSH0 MSTORE PUSH1 0x22 PUSH1 0x4 MSTORE PUSH1 0x24 PUSH0 REVERT JUMPDEST PUSH0 PUSH1 0x2 DUP3 DIV SWAP1 POP PUSH1 0x1 DUP3 AND DUP1 PUSH2 0x135E JUMPI PUSH1 0x7F DUP3 AND SWAP2 POP JUMPDEST PUSH1 0x20 DUP3 LT DUP2 SUB PUSH2 0x1371 JUMPI PUSH2 0x1370 PUSH2 0x131A JUMP JUMPDEST JUMPDEST POP SWAP2 SWAP1 POP JUMP JUMPDEST PUSH2 0x1380 DUP2 PUSH2 0xE78 JUMP JUMPDEST DUP2 EQ PUSH2 0x138A JUMPI PUSH0 DUP1 REVERT JUMPDEST POP JUMP JUMPDEST PUSH0 DUP2 MLOAD SWAP1 POP PUSH2 0x139B DUP2 PUSH2 0x1377 JUMP JUMPDEST SWAP3 SWAP2 POP POP JUMP JUMPDEST PUSH0 PUSH1 0x20 DUP3 DUP5 SUB SLT ISZERO PUSH2 0x13B6 JUMPI PUSH2 0x13B5 PUSH2 0xBCE JUMP JUMPDEST JUMPDEST PUSH0 PUSH2 0x13C3 DUP5 DUP3 DUP6 ADD PUSH2 0x138D JUMP JUMPDEST SWAP2 POP POP SWAP3 SWAP2 POP POP JUMP JUMPDEST PUSH32 0x4F6E6C79206F776E657200000000000000000000000000000000000000000000 PUSH0 DUP3 ADD MSTORE POP JUMP JUMPDEST PUSH0 PUSH2 0x1400 PUSH1 0xA DUP4 PUSH2 0xD5F JUMP JUMPDEST SWAP2 POP PUSH2 0x140B DUP3 PUSH2 0x13CC JUMP JUMPDEST PUSH1 0x20 DUP3 ADD SWAP1 POP SWAP2 SWAP1 POP JUMP JUMPDEST PUSH0 PUSH1 0x20 DUP3 ADD SWAP1 POP DUP2 DUP2 SUB PUSH0 DUP4 ADD MSTORE PUSH2 0x142D DUP2 PUSH2 0x13F4 JUMP JUMPDEST SWAP1 POP SWAP2 SWAP1 POP JUMP JUMPDEST PUSH0 PUSH1 0x40 DUP3 ADD SWAP1 POP PUSH2 0x1447 PUSH0 DUP4 ADD DUP6 PUSH2 0xE50 JUMP JUMPDEST PUSH2 0x1454 PUSH1 0x20 DUP4 ADD DUP5 PUSH2 0xE50 JUMP JUMPDEST SWAP4 SWAP3 POP POP POP JUMP JUMPDEST PUSH32 0x7265717565737420646F6573206E6F7420657869737400000000000000000000 PUSH0 DUP3 ADD MSTORE POP JUMP JUMPDEST PUSH0 PUSH2 0x148F PUSH1 0x16 DUP4 PUSH2 0xD5F JUMP JUMPDEST SWAP2 POP PUSH2 0x149A DUP3 PUSH2 0x145B JUMP JUMPDEST PUSH1 0x20 DUP3 ADD SWAP1 POP SWAP2 SWAP1 POP JUMP JUMPDEST PUSH0 PUSH1 0x20 DUP3 ADD SWAP1 POP DUP2 DUP2 SUB PUSH0 DUP4 ADD MSTORE PUSH2 0x14BC DUP2 PUSH2 0x1483 JUMP JUMPDEST SWAP1 POP SWAP2 SWAP1 POP JUMP JUMPDEST PUSH0 DUP3 SWAP1 POP SWAP3 SWAP2 POP POP JUMP JUMPDEST PUSH0 DUP2 SWAP1 POP DUP2 PUSH0 MSTORE PUSH1 0x20 PUSH0 KECCAK256 SWAP1 POP SWAP2 SWAP1 POP JUMP JUMPDEST PUSH0 PUSH1 0x20 PUSH1 0x1F DUP4 ADD DIV SWAP1 POP SWAP2 SWAP1 POP JUMP JUMPDEST PUSH0 DUP3 DUP3 SHL SWAP1 POP SWAP3 SWAP2 POP POP JUMP JUMPDEST PUSH0 PUSH1 0x8 DUP4 MUL PUSH2 0x1529 PUSH32 0xFFFFFFFFFFFFFFFFFFFFFFFFFFFFFFFFFFFFFFFFFFFFFFFFFFFFFFFFFFFFFFFF DUP3 PUSH2 0x14EE JUMP JUMPDEST PUSH2 0x1533 DUP7 DUP4 PUSH2 0x14EE JUMP JUMPDEST SWAP6 POP DUP1 NOT DUP5 AND SWAP4 POP DUP1 DUP7 AND DUP5 OR SWAP3 POP POP POP SWAP4 SWAP3 POP POP POP JUMP JUMPDEST PUSH0 PUSH2 0x1565 PUSH2 0x1560 PUSH2 0x155B DUP5 PUSH2 0xBD6 JUMP JUMPDEST PUSH2 0xE04 JUMP JUMPDEST PUSH2 0xBD6 JUMP JUMPDEST SWAP1 POP SWAP2 SWAP1 POP JUMP JUMPDEST PUSH0 DUP2 SWAP1 POP SWAP2 SWAP1 POP JUMP JUMPDEST PUSH2 0x157E DUP4 PUSH2 0x154B JUMP JUMPDEST PUSH2 0x1592 PUSH2 0x158A DUP3 PUSH2 0x156C JUMP JUMPDEST DUP5 DUP5 SLOAD PUSH2 0x14FA JUMP JUMPDEST DUP3 SSTORE POP POP POP POP JUMP JUMPDEST PUSH0 SWAP1 JUMP JUMPDEST PUSH2 0x15A6 PUSH2 0x159A JUMP JUMPDEST PUSH2 0x15B1 DUP2 DUP5 DUP5 PUSH2 0x1575 JUMP JUMPDEST POP POP POP JUMP JUMPDEST JUMPDEST DUP2 DUP2 LT ISZERO PUSH2 0x15D4 JUMPI PUSH2 0x15C9 PUSH0 DUP3 PUSH2 0x159E JUMP JUMPDEST PUSH1 0x1 DUP2 ADD SWAP1 POP PUSH2 0x15B7 JUMP JUMPDEST POP POP JUMP JUMPDEST PUSH1 0x1F DUP3 GT ISZERO PUSH2 0x1619 JUMPI PUSH2 0x15EA DUP2 PUSH2 0x14CD JUMP JUMPDEST PUSH2 0x15F3 DUP5 PUSH2 0x14DF JUMP JUMPDEST DUP2 ADD PUSH1 0x20 DUP6 LT ISZERO PUSH2 0x1602 JUMPI DUP2 SWAP1 POP JUMPDEST PUSH2 0x1616 PUSH2 0x160E DUP6 PUSH2 0x14DF JUMP JUMPDEST DUP4 ADD DUP3 PUSH2 0x15B6 JUMP JUMPDEST POP POP JUMPDEST POP POP POP JUMP JUMPDEST PUSH0 DUP3 DUP3 SHR SWAP1 POP SWAP3 SWAP2 POP POP JUMP JUMPDEST PUSH0 PUSH2 0x1639 PUSH0 NOT DUP5 PUSH1 0x8 MUL PUSH2 0x161E JUMP JUMPDEST NOT DUP1 DUP4 AND SWAP2 POP POP SWAP3 SWAP2 POP POP JUMP JUMPDEST PUSH0 PUSH2 0x1651 DUP4 DUP4 PUSH2 0x162A JUMP JUMPDEST SWAP2 POP DUP3 PUSH1 0x2 MUL DUP3 OR SWAP1 POP SWAP3 SWAP2 POP POP JUMP JUMPDEST PUSH2 0x166B DUP4 DUP4 PUSH2 0x14C3 JUMP JUMPDEST PUSH8 0xFFFFFFFFFFFFFFFF DUP2 GT ISZERO PUSH2 0x1684 JUMPI PUSH2 0x1683 PUSH2 0xFDA JUMP JUMPDEST JUMPDEST PUSH2 0x168E DUP3 SLOAD PUSH2 0x1347 JUMP JUMPDEST PUSH2 0x1699 DUP3 DUP3 DUP6 PUSH2 0x15D8 JUMP JUMPDEST PUSH0 PUSH1 0x1F DUP4 GT PUSH1 0x1 DUP2 EQ PUSH2 0x16C6 JUMPI PUSH0 DUP5 ISZERO PUSH2 0x16B4 JUMPI DUP3 DUP8 ADD CALLDATALOAD SWAP1 POP JUMPDEST PUSH2 0x16BE DUP6 DUP3 PUSH2 0x1646 JUMP JUMPDEST DUP7 SSTORE POP PUSH2 0x1725 JUMP JUMPDEST PUSH1 0x1F NOT DUP5 AND PUSH2 0x16D4 DUP7 PUSH2 0x14CD JUMP JUMPDEST PUSH0 JUMPDEST DUP3 DUP2 LT ISZERO PUSH2 0x16FB JUMPI DUP5 DUP10 ADD CALLDATALOAD DUP3 SSTORE PUSH1 0x1 DUP3 ADD SWAP2 POP PUSH1 0x20 DUP6 ADD SWAP5 POP PUSH1 0x20 DUP2 ADD SWAP1 POP PUSH2 0x16D6 JUMP JUMPDEST DUP7 DUP4 LT ISZERO PUSH2 0x1718 JUMPI DUP5 DUP10 ADD CALLDATALOAD PUSH2 0x1714 PUSH1 0x1F DUP10 AND DUP3 PUSH2 0x162A JUMP JUMPDEST DUP4 SSTORE POP JUMPDEST PUSH1 0x1 PUSH1 0x2 DUP9 MUL ADD DUP9 SSTORE POP POP POP JUMPDEST POP POP POP POP POP POP POP JUMP JUMPDEST PUSH0 DUP2 SWAP1 POP DUP2 PUSH0 MSTORE PUSH1 0x20 PUSH0 KECCAK256 SWAP1 POP SWAP2 SWAP1 POP JUMP JUMPDEST PUSH0 DUP2 SLOAD PUSH2 0x174C DUP2 PUSH2 0x1347 JUMP JUMPDEST PUSH2 0x1756 DUP2 DUP7 PUSH2 0x12D4 JUMP JUMPDEST SWAP5 POP PUSH1 0x1 DUP3 AND PUSH0 DUP2 EQ PUSH2 0x1770 JUMPI PUSH1 0x1 DUP2 EQ PUSH2 0x1785 JUMPI PUSH2 0x17B7 JUMP JUMPDEST PUSH1 0xFF NOT DUP4 AND DUP7 MSTORE DUP2 ISZERO ISZERO DUP3 MUL DUP7 ADD SWAP4 POP PUSH2 0x17B7 JUMP JUMPDEST PUSH2 0x178E DUP6 PUSH2 0x172E JUMP JUMPDEST PUSH0 JUMPDEST DUP4 DUP2 LT ISZERO PUSH2 0x17AF JUMPI DUP2 SLOAD DUP2 DUP10 ADD MSTORE PUSH1 0x1 DUP3 ADD SWAP2 POP PUSH1 0x20 DUP2 ADD SWAP1 POP PUSH2 0x1790 JUMP JUMPDEST DUP4 DUP9 ADD SWAP6 POP POP POP JUMPDEST POP POP POP SWAP3 SWAP2 POP POP JUMP JUMPDEST PUSH0 PUSH2 0x17CB DUP3 DUP5 PUSH2 0x1740 JUMP JUMPDEST SWAP2 POP DUP2 SWAP1 POP SWAP3 SWAP2 POP POP JUMP JUMPDEST PUSH0 DUP3 SWAP1 POP SWAP3 SWAP2 POP POP JUMP JUMPDEST PUSH0 DUP2 SWAP1 POP DUP2 PUSH0 MSTORE PUSH1 0x20 PUSH0 KECCAK256 SWAP1 POP SWAP2 SWAP1 POP JUMP JUMPDEST PUSH1 0x1F DUP3 GT ISZERO PUSH2 0x1833 JUMPI PUSH2 0x1804 DUP2 PUSH2 0x17E0 JUMP JUMPDEST PUSH2 0x180D DUP5 PUSH2 0x14DF JUMP JUMPDEST DUP2 ADD PUSH1 0x20 DUP6 LT ISZERO PUSH2 0x181C JUMPI DUP2 SWAP1 POP JUMPDEST PUSH2 0x1830 PUSH2 0x1828 DUP6 PUSH2 0x14DF JUMP JUMPDEST DUP4 ADD DUP3 PUSH2 0x15B6 JUMP JUMPDEST POP POP JUMPDEST POP POP POP JUMP JUMPDEST PUSH2 0x1842 DUP4 DUP4 PUSH2 0x17D6 JUMP JUMPDEST PUSH8 0xFFFFFFFFFFFFFFFF DUP2 GT ISZERO PUSH2 0x185B JUMPI PUSH2 0x185A PUSH2 0xFDA JUMP JUMPDEST JUMPDEST PUSH2 0x1865 DUP3 SLOAD PUSH2 0x1347 JUMP JUMPDEST PUSH2 0x1870 DUP3 DUP3 DUP6 PUSH2 0x17F2 JUMP JUMPDEST PUSH0 PUSH1 0x1F DUP4 GT PUSH1 0x1 DUP2 EQ PUSH2 0x189D JUMPI PUSH0 DUP5 ISZERO PUSH2 0x188B JUMPI DUP3 DUP8 ADD CALLDATALOAD SWAP1 POP JUMPDEST PUSH2 0x1895 DUP6 DUP3 PUSH2 0x1646 JUMP JUMPDEST DUP7 SSTORE POP PUSH2 0x18FC JUMP JUMPDEST PUSH1 0x1F NOT DUP5 AND PUSH2 0x18AB DUP7 PUSH2 0x17E0 JUMP JUMPDEST PUSH0 JUMPDEST DUP3 DUP2 LT ISZERO PUSH2 0x18D2 JUMPI DUP5 DUP10 ADD CALLDATALOAD DUP3 SSTORE PUSH1 0x1 DUP3 ADD SWAP2 POP PUSH1 0x20 DUP6 ADD SWAP5 POP PUSH1 0x20 DUP2 ADD SWAP1 POP PUSH2 0x18AD JUMP JUMPDEST DUP7 DUP4 LT ISZERO PUSH2 0x18EF JUMPI DUP5 DUP10 ADD CALLDATALOAD PUSH2 0x18EB PUSH1 0x1F DUP10 AND DUP3 PUSH2 0x162A JUMP JUMPDEST DUP4 SSTORE POP JUMPDEST PUSH1 0x1 PUSH1 0x2 DUP9 MUL ADD DUP9 SSTORE POP POP POP JUMPDEST POP POP POP POP POP POP POP JUMP JUMPDEST PUSH0 DUP2 SLOAD PUSH2 0x1911 DUP2 PUSH2 0x1347 JUMP JUMPDEST PUSH2 0x191B DUP2 DUP7 PUSH2 0xD5F JUMP JUMPDEST SWAP5 POP PUSH1 0x1 DUP3 AND PUSH0 DUP2 EQ PUSH2 0x1935 JUMPI PUSH1 0x1 DUP2 EQ PUSH2 0x194B JUMPI PUSH2 0x197D JUMP JUMPDEST PUSH1 0xFF NOT DUP4 AND DUP7 MSTORE DUP2 ISZERO ISZERO PUSH1 0x20 MUL DUP7 ADD SWAP4 POP PUSH2 0x197D JUMP JUMPDEST PUSH2 0x1954 DUP6 PUSH2 0x172E JUMP JUMPDEST PUSH0 JUMPDEST DUP4 DUP2 LT ISZERO PUSH2 0x1975 JUMPI DUP2 SLOAD DUP2 DUP10 ADD MSTORE PUSH1 0x1 DUP3 ADD SWAP2 POP PUSH1 0x20 DUP2 ADD SWAP1 POP PUSH2 0x1956 JUMP JUMPDEST DUP1 DUP9 ADD SWAP6 POP POP POP JUMPDEST POP POP POP SWAP3 SWAP2 POP POP JUMP JUMPDEST PUSH0 PUSH2 0x1991 DUP4 DUP6 PUSH2 0xD5F JUMP JUMPDEST SWAP4 POP PUSH2 0x199E DUP4 DUP6 DUP5 PUSH2 0x1082 JUMP JUMPDEST PUSH2 0x19A7 DUP4 PUSH2 0xD7D JUMP JUMPDEST DUP5 ADD SWAP1 POP SWAP4 SWAP3 POP POP POP JUMP JUMPDEST PUSH0 PUSH2 0x19BD DUP4 DUP6 PUSH2 0xF3D JUMP JUMPDEST SWAP4 POP PUSH2 0x19CA DUP4 DUP6 DUP5 PUSH2 0x1082 JUMP JUMPDEST PUSH2 0x19D3 DUP4 PUSH2 0xD7D JUMP JUMPDEST DUP5 ADD SWAP1 POP SWAP4 SWAP3 POP POP POP JUMP JUMPDEST PUSH0 PUSH1 0xA0 DUP3 ADD SWAP1 POP PUSH2 0x19F1 PUSH0 DUP4 ADD DUP11 PUSH2 0xC34 JUMP JUMPDEST PUSH2 0x19FE PUSH1 0x20 DUP4 ADD DUP10 PUSH2 0xC34 JUMP JUMPDEST DUP2 DUP2 SUB PUSH1 0x40 DUP4 ADD MSTORE PUSH2 0x1A10 DUP2 DUP9 PUSH2 0x1905 JUMP JUMPDEST SWAP1 POP DUP2 DUP2 SUB PUSH1 0x60 DUP4 ADD MSTORE PUSH2 0x1A25 DUP2 DUP7 DUP9 PUSH2 0x1986 JUMP JUMPDEST SWAP1 POP DUP2 DUP2 SUB PUSH1 0x80 DUP4 ADD MSTORE PUSH2 0x1A3A DUP2 DUP5 DUP7 PUSH2 0x19B2 JUMP JUMPDEST SWAP1 POP SWAP9 SWAP8 POP POP POP POP POP POP POP POP JUMP JUMPDEST PUSH0 PUSH1 0xA0 DUP3 ADD SWAP1 POP PUSH2 0x1A5B PUSH0 DUP4 ADD DUP9 PUSH2 0xC34 JUMP JUMPDEST DUP2 DUP2 SUB PUSH1 0x20 DUP4 ADD MSTORE PUSH2 0x1A6D DUP2 DUP8 PUSH2 0xF4D JUMP JUMPDEST SWAP1 POP PUSH2 0x1A7C PUSH1 0x40 DUP4 ADD DUP7 PUSH2 0xF24 JUMP JUMPDEST PUSH2 0x1A89 PUSH1 0x60 DUP4 ADD DUP6 PUSH2 0xC6F JUMP JUMPDEST DUP2 DUP2 SUB PUSH1 0x80 DUP4 ADD MSTORE PUSH2 0x1A9B DUP2 DUP5 PUSH2 0xF4D JUMP JUMPDEST SWAP1 POP SWAP7 SWAP6 POP POP POP POP POP POP JUMP JUMPDEST PUSH2 0x1AB0 DUP3 PUSH2 0xF33 JUMP JUMPDEST PUSH8 0xFFFFFFFFFFFFFFFF DUP2 GT ISZERO PUSH2 0x1AC9 JUMPI PUSH2 0x1AC8 PUSH2 0xFDA JUMP JUMPDEST JUMPDEST PUSH2 0x1AD3 DUP3 SLOAD PUSH2 0x1347 JUMP JUMPDEST PUSH2 0x1ADE DUP3 DUP3 DUP6 PUSH2 0x15D8 JUMP JUMPDEST PUSH0 PUSH1 0x20 SWAP1 POP PUSH1 0x1F DUP4 GT PUSH1 0x1 DUP2 EQ PUSH2 0x1B0F JUMPI PUSH0 DUP5 ISZERO PUSH2 0x1AFD JUMPI DUP3 DUP8 ADD MLOAD SWAP1 POP JUMPDEST PUSH2 0x1B07 DUP6 DUP3 PUSH2 0x1646 JUMP JUMPDEST DUP7 SSTORE POP PUSH2 0x1B6E JUMP JUMPDEST PUSH1 0x1F NOT DUP5 AND PUSH2 0x1B1D DUP7 PUSH2 0x14CD JUMP JUMPDEST PUSH0 JUMPDEST DUP3 DUP2 LT ISZERO PUSH2 0x1B44 JUMPI DUP5 DUP10 ADD MLOAD DUP3 SSTORE PUSH1 0x1 DUP3 ADD SWAP2 POP PUSH1 0x20 DUP6 ADD SWAP5 POP PUSH1 0x20 DUP2 ADD SWAP1 POP PUSH2 0x1B1F JUMP JUMPDEST DUP7 DUP4 LT ISZERO PUSH2 0x1B61 JUMPI DUP5 DUP10 ADD MLOAD PUSH2 0x1B5D PUSH1 0x1F DUP10 AND DUP3 PUSH2 0x162A JUMP JUMPDEST DUP4 SSTORE POP JUMPDEST PUSH1 0x1 PUSH1 0x2 DUP9 MUL ADD DUP9 SSTORE POP POP POP JUMPDEST POP POP POP POP POP POP JUMP JUMPDEST PUSH0 PUSH1 0x80 DUP3 ADD SWAP1 POP PUSH2 0x1B89 PUSH0 DUP4 ADD DUP9 PUSH2 0xC34 JUMP JUMPDEST PUSH2 0x1B96 PUSH1 0x20 DUP4 ADD DUP8 PUSH2 0xF24 JUMP JUMPDEST PUSH2 0x1BA3 PUSH1 0x40 DUP4 ADD DUP7 PUSH2 0xC34 JUMP JUMPDEST DUP2 DUP2 SUB PUSH1 0x60 DUP4 ADD MSTORE PUSH2 0x1BB6 DUP2 DUP5 DUP7 PUSH2 0x1986 JUMP JUMPDEST SWAP1 POP SWAP7 SWAP6 POP POP POP POP POP POP JUMP INVALID LOG2 PUSH5 0x6970667358 0x22 SLT KECCAK256 MSTORE8 SSTORE 0xB3 EQ GASLIMIT INVALID 0xC0 MOD 0x1E TSTORE 0xBA SDIV PUSH9 0xB4B52B099472B2BA7D 0xF7 0xCE 0xF9 CALLVALUE 0x2B DUP1 0xB6 BLOBBASEFEE 0xD2 CALL PUSH5 0x736F6C6343 STOP ADDMOD BYTE STOP CALLER "
				},
				"gasEstimates": {
					"creation": {
						"codeDepositCost": "1432000",
						"executionCost": "infinite",
						"totalCost": "infinite"
					},
					"external": {
						"aiOracle()": "infinite",
						"aiOracleCallback(uint256,bytes,bytes)": "infinite",
						"calculateAIResult(uint256,string)": "infinite",
						"callbackGasLimit(uint256)": "2808",
						"estimateFee(uint256)": "infinite",
						"getAIResult(uint256,string)": "infinite",
						"isFinalized(uint256)": "infinite",
						"prompts(uint256,string)": "infinite",
						"requests(uint256)": "infinite",
						"setCallbackGasLimit(uint256,uint64)": "27086"
					}
				},
				"methodIdentifiers": {
					"aiOracle()": "31b221cd",
					"aiOracleCallback(uint256,bytes,bytes)": "b0347814",
					"calculateAIResult(uint256,string)": "fac5d7e1",
					"callbackGasLimit(uint256)": "20f38718",
					"estimateFee(uint256)": "127e8e4d",
					"getAIResult(uint256,string)": "2c6296b7",
					"isFinalized(uint256)": "33727c4d",
					"prompts(uint256,string)": "8cbc52d9",
					"requests(uint256)": "81d12c58",
					"setCallbackGasLimit(uint256,uint64)": "813d1e15"
				}
			},
			"storageLayout": {
				"storage": [
					{
						"astId": 112,
						"contract": "contracts/Prompt.sol:Prompt",
						"label": "owner",
						"offset": 0,
						"slot": "0",
						"type": "t_address"
					},
					{
						"astId": 129,
						"contract": "contracts/Prompt.sol:Prompt",
						"label": "requests",
						"offset": 0,
						"slot": "1",
						"type": "t_mapping(t_uint256,t_struct(AIOracleRequest)110_storage)"
					},
					{
						"astId": 133,
						"contract": "contracts/Prompt.sol:Prompt",
						"label": "callbackGasLimit",
						"offset": 0,
						"slot": "2",
						"type": "t_mapping(t_uint256,t_uint64)"
					},
					{
						"astId": 182,
						"contract": "contracts/Prompt.sol:Prompt",
						"label": "prompts",
						"offset": 0,
						"slot": "3",
						"type": "t_mapping(t_uint256,t_mapping(t_string_memory_ptr,t_string_storage))"
					}
				],
				"types": {
					"t_address": {
						"encoding": "inplace",
						"label": "address",
						"numberOfBytes": "20"
					},
					"t_bytes_storage": {
						"encoding": "bytes",
						"label": "bytes",
						"numberOfBytes": "32"
					},
					"t_mapping(t_string_memory_ptr,t_string_storage)": {
						"encoding": "mapping",
						"key": "t_string_memory_ptr",
						"label": "mapping(string => string)",
						"numberOfBytes": "32",
						"value": "t_string_storage"
					},
					"t_mapping(t_uint256,t_mapping(t_string_memory_ptr,t_string_storage))": {
						"encoding": "mapping",
						"key": "t_uint256",
						"label": "mapping(uint256 => mapping(string => string))",
						"numberOfBytes": "32",
						"value": "t_mapping(t_string_memory_ptr,t_string_storage)"
					},
					"t_mapping(t_uint256,t_struct(AIOracleRequest)110_storage)": {
						"encoding": "mapping",
						"key": "t_uint256",
						"label": "mapping(uint256 => struct Prompt.AIOracleRequest)",
						"numberOfBytes": "32",
						"value": "t_struct(AIOracleRequest)110_storage"
					},
					"t_mapping(t_uint256,t_uint64)": {
						"encoding": "mapping",
						"key": "t_uint256",
						"label": "mapping(uint256 => uint64)",
						"numberOfBytes": "32",
						"value": "t_uint64"
					},
					"t_string_memory_ptr": {
						"encoding": "bytes",
						"label": "string",
						"numberOfBytes": "32"
					},
					"t_string_storage": {
						"encoding": "bytes",
						"label": "string",
						"numberOfBytes": "32"
					},
					"t_struct(AIOracleRequest)110_storage": {
						"encoding": "inplace",
						"label": "struct Prompt.AIOracleRequest",
						"members": [
							{
								"astId": 103,
								"contract": "contracts/Prompt.sol:Prompt",
								"label": "sender",
								"offset": 0,
								"slot": "0",
								"type": "t_address"
							},
							{
								"astId": 105,
								"contract": "contracts/Prompt.sol:Prompt",
								"label": "modelId",
								"offset": 0,
								"slot": "1",
								"type": "t_uint256"
							},
							{
								"astId": 107,
								"contract": "contracts/Prompt.sol:Prompt",
								"label": "input",
								"offset": 0,
								"slot": "2",
								"type": "t_bytes_storage"
							},
							{
								"astId": 109,
								"contract": "contracts/Prompt.sol:Prompt",
								"label": "output",
								"offset": 0,
								"slot": "3",
								"type": "t_bytes_storage"
							}
						],
						"numberOfBytes": "128"
					},
					"t_uint256": {
						"encoding": "inplace",
						"label": "uint256",
						"numberOfBytes": "32"
					},
					"t_uint64": {
						"encoding": "inplace",
						"label": "uint64",
						"numberOfBytes": "8"
					}
				}
			},
			"userdoc": {
				"kind": "user",
				"methods": {},
				"version": 1
			}
		}
	}
}